{
  "contractName": "BaseToken",
  "abi": [
    {
      "inputs": [
        {
          "internalType": "string",
          "name": "name",
          "type": "string"
        },
        {
          "internalType": "string",
          "name": "symbol",
          "type": "string"
        },
        {
          "internalType": "uint8",
          "name": "decimals",
          "type": "uint8"
        },
        {
          "internalType": "uint256",
          "name": "cap",
          "type": "uint256"
        },
        {
          "internalType": "uint256",
          "name": "initialSupply",
          "type": "uint256"
        },
        {
          "internalType": "bool",
          "name": "transferEnabled",
          "type": "bool"
        },
        {
          "internalType": "bool",
          "name": "mintingFinished",
          "type": "bool"
        }
      ],
      "stateMutability": "nonpayable",
      "type": "constructor"
    },
    {
      "anonymous": false,
      "inputs": [
        {
          "indexed": true,
          "internalType": "address",
          "name": "owner",
          "type": "address"
        },
        {
          "indexed": true,
          "internalType": "address",
          "name": "spender",
          "type": "address"
        },
        {
          "indexed": false,
          "internalType": "uint256",
          "name": "value",
          "type": "uint256"
        }
      ],
      "name": "Approval",
      "type": "event"
    },
    {
      "anonymous": false,
      "inputs": [],
      "name": "MintFinished",
      "type": "event"
    },
    {
      "anonymous": false,
      "inputs": [
        {
          "indexed": true,
          "internalType": "address",
          "name": "previousOwner",
          "type": "address"
        },
        {
          "indexed": true,
          "internalType": "address",
          "name": "newOwner",
          "type": "address"
        }
      ],
      "name": "OwnershipTransferred",
      "type": "event"
    },
    {
      "anonymous": false,
      "inputs": [
        {
          "indexed": true,
          "internalType": "bytes32",
          "name": "role",
          "type": "bytes32"
        },
        {
          "indexed": true,
          "internalType": "bytes32",
          "name": "previousAdminRole",
          "type": "bytes32"
        },
        {
          "indexed": true,
          "internalType": "bytes32",
          "name": "newAdminRole",
          "type": "bytes32"
        }
      ],
      "name": "RoleAdminChanged",
      "type": "event"
    },
    {
      "anonymous": false,
      "inputs": [
        {
          "indexed": true,
          "internalType": "bytes32",
          "name": "role",
          "type": "bytes32"
        },
        {
          "indexed": true,
          "internalType": "address",
          "name": "account",
          "type": "address"
        },
        {
          "indexed": true,
          "internalType": "address",
          "name": "sender",
          "type": "address"
        }
      ],
      "name": "RoleGranted",
      "type": "event"
    },
    {
      "anonymous": false,
      "inputs": [
        {
          "indexed": true,
          "internalType": "bytes32",
          "name": "role",
          "type": "bytes32"
        },
        {
          "indexed": true,
          "internalType": "address",
          "name": "account",
          "type": "address"
        },
        {
          "indexed": true,
          "internalType": "address",
          "name": "sender",
          "type": "address"
        }
      ],
      "name": "RoleRevoked",
      "type": "event"
    },
    {
      "anonymous": false,
      "inputs": [
        {
          "indexed": true,
          "internalType": "address",
          "name": "from",
          "type": "address"
        },
        {
          "indexed": true,
          "internalType": "address",
          "name": "to",
          "type": "address"
        },
        {
          "indexed": false,
          "internalType": "uint256",
          "name": "value",
          "type": "uint256"
        }
      ],
      "name": "Transfer",
      "type": "event"
    },
    {
      "anonymous": false,
      "inputs": [],
      "name": "TransferEnabled",
      "type": "event"
    },
    {
      "inputs": [],
      "name": "DEFAULT_ADMIN_ROLE",
      "outputs": [
        {
          "internalType": "bytes32",
          "name": "",
          "type": "bytes32"
        }
      ],
      "stateMutability": "view",
      "type": "function"
    },
    {
      "inputs": [],
      "name": "MINTER_ROLE",
      "outputs": [
        {
          "internalType": "bytes32",
          "name": "",
          "type": "bytes32"
        }
      ],
      "stateMutability": "view",
      "type": "function"
    },
    {
      "inputs": [],
      "name": "OPERATOR_ROLE",
      "outputs": [
        {
          "internalType": "bytes32",
          "name": "",
          "type": "bytes32"
        }
      ],
      "stateMutability": "view",
      "type": "function"
    },
    {
      "inputs": [
        {
          "internalType": "address",
          "name": "owner",
          "type": "address"
        },
        {
          "internalType": "address",
          "name": "spender",
          "type": "address"
        }
      ],
      "name": "allowance",
      "outputs": [
        {
          "internalType": "uint256",
          "name": "",
          "type": "uint256"
        }
      ],
      "stateMutability": "view",
      "type": "function"
    },
    {
      "inputs": [
        {
          "internalType": "address",
          "name": "spender",
          "type": "address"
        },
        {
          "internalType": "uint256",
          "name": "amount",
          "type": "uint256"
        }
      ],
      "name": "approve",
      "outputs": [
        {
          "internalType": "bool",
          "name": "",
          "type": "bool"
        }
      ],
      "stateMutability": "nonpayable",
      "type": "function"
    },
    {
      "inputs": [
        {
          "internalType": "address",
          "name": "spender",
          "type": "address"
        },
        {
          "internalType": "uint256",
          "name": "value",
          "type": "uint256"
        }
      ],
      "name": "approveAndCall",
      "outputs": [
        {
          "internalType": "bool",
          "name": "",
          "type": "bool"
        }
      ],
      "stateMutability": "nonpayable",
      "type": "function"
    },
    {
      "inputs": [
        {
          "internalType": "address",
          "name": "spender",
          "type": "address"
        },
        {
          "internalType": "uint256",
          "name": "value",
          "type": "uint256"
        },
        {
          "internalType": "bytes",
          "name": "data",
          "type": "bytes"
        }
      ],
      "name": "approveAndCall",
      "outputs": [
        {
          "internalType": "bool",
          "name": "",
          "type": "bool"
        }
      ],
      "stateMutability": "nonpayable",
      "type": "function"
    },
    {
      "inputs": [
        {
          "internalType": "address",
          "name": "account",
          "type": "address"
        }
      ],
      "name": "balanceOf",
      "outputs": [
        {
          "internalType": "uint256",
          "name": "",
          "type": "uint256"
        }
      ],
      "stateMutability": "view",
      "type": "function"
    },
    {
      "inputs": [
        {
          "internalType": "uint256",
          "name": "amount",
          "type": "uint256"
        }
      ],
      "name": "burn",
      "outputs": [],
      "stateMutability": "nonpayable",
      "type": "function"
    },
    {
      "inputs": [
        {
          "internalType": "address",
          "name": "account",
          "type": "address"
        },
        {
          "internalType": "uint256",
          "name": "amount",
          "type": "uint256"
        }
      ],
      "name": "burnFrom",
      "outputs": [],
      "stateMutability": "nonpayable",
      "type": "function"
    },
    {
      "inputs": [],
      "name": "cap",
      "outputs": [
        {
          "internalType": "uint256",
          "name": "",
          "type": "uint256"
        }
      ],
      "stateMutability": "view",
      "type": "function"
    },
    {
      "inputs": [],
      "name": "decimals",
      "outputs": [
        {
          "internalType": "uint8",
          "name": "",
          "type": "uint8"
        }
      ],
      "stateMutability": "view",
      "type": "function"
    },
    {
      "inputs": [
        {
          "internalType": "address",
          "name": "spender",
          "type": "address"
        },
        {
          "internalType": "uint256",
          "name": "subtractedValue",
          "type": "uint256"
        }
      ],
      "name": "decreaseAllowance",
      "outputs": [
        {
          "internalType": "bool",
          "name": "",
          "type": "bool"
        }
      ],
      "stateMutability": "nonpayable",
      "type": "function"
    },
    {
      "inputs": [],
      "name": "enableTransfer",
      "outputs": [],
      "stateMutability": "nonpayable",
      "type": "function"
    },
    {
      "inputs": [],
      "name": "finishMinting",
      "outputs": [],
      "stateMutability": "nonpayable",
      "type": "function"
    },
    {
      "inputs": [
        {
          "internalType": "bytes32",
          "name": "role",
          "type": "bytes32"
        }
      ],
      "name": "getRoleAdmin",
      "outputs": [
        {
          "internalType": "bytes32",
          "name": "",
          "type": "bytes32"
        }
      ],
      "stateMutability": "view",
      "type": "function"
    },
    {
      "inputs": [
        {
          "internalType": "bytes32",
          "name": "role",
          "type": "bytes32"
        },
        {
          "internalType": "uint256",
          "name": "index",
          "type": "uint256"
        }
      ],
      "name": "getRoleMember",
      "outputs": [
        {
          "internalType": "address",
          "name": "",
          "type": "address"
        }
      ],
      "stateMutability": "view",
      "type": "function"
    },
    {
      "inputs": [
        {
          "internalType": "bytes32",
          "name": "role",
          "type": "bytes32"
        }
      ],
      "name": "getRoleMemberCount",
      "outputs": [
        {
          "internalType": "uint256",
          "name": "",
          "type": "uint256"
        }
      ],
      "stateMutability": "view",
      "type": "function"
    },
    {
      "inputs": [
        {
          "internalType": "bytes32",
          "name": "role",
          "type": "bytes32"
        },
        {
          "internalType": "address",
          "name": "account",
          "type": "address"
        }
      ],
      "name": "grantRole",
      "outputs": [],
      "stateMutability": "nonpayable",
      "type": "function"
    },
    {
      "inputs": [
        {
          "internalType": "bytes32",
          "name": "role",
          "type": "bytes32"
        },
        {
          "internalType": "address",
          "name": "account",
          "type": "address"
        }
      ],
      "name": "hasRole",
      "outputs": [
        {
          "internalType": "bool",
          "name": "",
          "type": "bool"
        }
      ],
      "stateMutability": "view",
      "type": "function"
    },
    {
      "inputs": [
        {
          "internalType": "address",
          "name": "spender",
          "type": "address"
        },
        {
          "internalType": "uint256",
          "name": "addedValue",
          "type": "uint256"
        }
      ],
      "name": "increaseAllowance",
      "outputs": [
        {
          "internalType": "bool",
          "name": "",
          "type": "bool"
        }
      ],
      "stateMutability": "nonpayable",
      "type": "function"
    },
    {
      "inputs": [
        {
          "internalType": "address",
          "name": "to",
          "type": "address"
        },
        {
          "internalType": "uint256",
          "name": "value",
          "type": "uint256"
        }
      ],
      "name": "mint",
      "outputs": [],
      "stateMutability": "nonpayable",
      "type": "function"
    },
    {
      "inputs": [],
      "name": "mintingFinished",
      "outputs": [
        {
          "internalType": "bool",
          "name": "",
          "type": "bool"
        }
      ],
      "stateMutability": "view",
      "type": "function"
    },
    {
      "inputs": [],
      "name": "name",
      "outputs": [
        {
          "internalType": "string",
          "name": "",
          "type": "string"
        }
      ],
      "stateMutability": "view",
      "type": "function"
    },
    {
      "inputs": [],
      "name": "owner",
      "outputs": [
        {
          "internalType": "address",
          "name": "",
          "type": "address"
        }
      ],
      "stateMutability": "view",
      "type": "function"
    },
    {
      "inputs": [
        {
          "internalType": "address",
          "name": "tokenAddress",
          "type": "address"
        },
        {
          "internalType": "uint256",
          "name": "tokenAmount",
          "type": "uint256"
        }
      ],
      "name": "recoverERC20",
      "outputs": [],
      "stateMutability": "nonpayable",
      "type": "function"
    },
    {
      "inputs": [],
      "name": "renounceOwnership",
      "outputs": [],
      "stateMutability": "nonpayable",
      "type": "function"
    },
    {
      "inputs": [
        {
          "internalType": "bytes32",
          "name": "role",
          "type": "bytes32"
        },
        {
          "internalType": "address",
          "name": "account",
          "type": "address"
        }
      ],
      "name": "renounceRole",
      "outputs": [],
      "stateMutability": "nonpayable",
      "type": "function"
    },
    {
      "inputs": [
        {
          "internalType": "bytes32",
          "name": "role",
          "type": "bytes32"
        },
        {
          "internalType": "address",
          "name": "account",
          "type": "address"
        }
      ],
      "name": "revokeRole",
      "outputs": [],
      "stateMutability": "nonpayable",
      "type": "function"
    },
    {
      "inputs": [
        {
          "internalType": "bytes4",
          "name": "interfaceId",
          "type": "bytes4"
        }
      ],
      "name": "supportsInterface",
      "outputs": [
        {
          "internalType": "bool",
          "name": "",
          "type": "bool"
        }
      ],
      "stateMutability": "view",
      "type": "function"
    },
    {
      "inputs": [],
      "name": "symbol",
      "outputs": [
        {
          "internalType": "string",
          "name": "",
          "type": "string"
        }
      ],
      "stateMutability": "view",
      "type": "function"
    },
    {
      "inputs": [],
      "name": "totalSupply",
      "outputs": [
        {
          "internalType": "uint256",
          "name": "",
          "type": "uint256"
        }
      ],
      "stateMutability": "view",
      "type": "function"
    },
    {
      "inputs": [
        {
          "internalType": "address",
          "name": "to",
          "type": "address"
        },
        {
          "internalType": "uint256",
          "name": "value",
          "type": "uint256"
        }
      ],
      "name": "transfer",
      "outputs": [
        {
          "internalType": "bool",
          "name": "",
          "type": "bool"
        }
      ],
      "stateMutability": "nonpayable",
      "type": "function"
    },
    {
      "inputs": [
        {
          "internalType": "address",
          "name": "to",
          "type": "address"
        },
        {
          "internalType": "uint256",
          "name": "value",
          "type": "uint256"
        }
      ],
      "name": "transferAndCall",
      "outputs": [
        {
          "internalType": "bool",
          "name": "",
          "type": "bool"
        }
      ],
      "stateMutability": "nonpayable",
      "type": "function"
    },
    {
      "inputs": [
        {
          "internalType": "address",
          "name": "to",
          "type": "address"
        },
        {
          "internalType": "uint256",
          "name": "value",
          "type": "uint256"
        },
        {
          "internalType": "bytes",
          "name": "data",
          "type": "bytes"
        }
      ],
      "name": "transferAndCall",
      "outputs": [
        {
          "internalType": "bool",
          "name": "",
          "type": "bool"
        }
      ],
      "stateMutability": "nonpayable",
      "type": "function"
    },
    {
      "inputs": [],
      "name": "transferEnabled",
      "outputs": [
        {
          "internalType": "bool",
          "name": "",
          "type": "bool"
        }
      ],
      "stateMutability": "view",
      "type": "function"
    },
    {
      "inputs": [
        {
          "internalType": "address",
          "name": "from",
          "type": "address"
        },
        {
          "internalType": "address",
          "name": "to",
          "type": "address"
        },
        {
          "internalType": "uint256",
          "name": "value",
          "type": "uint256"
        }
      ],
      "name": "transferFrom",
      "outputs": [
        {
          "internalType": "bool",
          "name": "",
          "type": "bool"
        }
      ],
      "stateMutability": "nonpayable",
      "type": "function"
    },
    {
      "inputs": [
        {
          "internalType": "address",
          "name": "from",
          "type": "address"
        },
        {
          "internalType": "address",
          "name": "to",
          "type": "address"
        },
        {
          "internalType": "uint256",
          "name": "value",
          "type": "uint256"
        },
        {
          "internalType": "bytes",
          "name": "data",
          "type": "bytes"
        }
      ],
      "name": "transferFromAndCall",
      "outputs": [
        {
          "internalType": "bool",
          "name": "",
          "type": "bool"
        }
      ],
      "stateMutability": "nonpayable",
      "type": "function"
    },
    {
      "inputs": [
        {
          "internalType": "address",
          "name": "from",
          "type": "address"
        },
        {
          "internalType": "address",
          "name": "to",
          "type": "address"
        },
        {
          "internalType": "uint256",
          "name": "value",
          "type": "uint256"
        }
      ],
      "name": "transferFromAndCall",
      "outputs": [
        {
          "internalType": "bool",
          "name": "",
          "type": "bool"
        }
      ],
      "stateMutability": "nonpayable",
      "type": "function"
    },
    {
      "inputs": [
        {
          "internalType": "address",
          "name": "newOwner",
          "type": "address"
        }
      ],
      "name": "transferOwnership",
      "outputs": [],
      "stateMutability": "nonpayable",
      "type": "function"
    },
    {
      "inputs": [],
      "name": "generator",
      "outputs": [
        {
          "internalType": "string",
          "name": "",
          "type": "string"
        }
      ],
      "stateMutability": "pure",
      "type": "function"
    },
    {
      "inputs": [],
      "name": "version",
      "outputs": [
        {
          "internalType": "string",
          "name": "",
          "type": "string"
        }
      ],
      "stateMutability": "pure",
      "type": "function"
    }
  ],
  "bytecode": "0x60806040526009805461ffff60a01b191690553480156200001f57600080fd5b506040516200303d3803806200303d833981810160405260e08110156200004557600080fd5b81019080805160405193929190846401000000008211156200006657600080fd5b9083019060208201858111156200007c57600080fd5b82516401000000008111828201881017156200009757600080fd5b82525081516020918201929091019080838360005b83811015620000c6578181015183820152602001620000ac565b50505050905090810190601f168015620000f45780820380516001836020036101000a031916815260200191505b50604052602001805160405193929190846401000000008211156200011857600080fd5b9083019060208201858111156200012e57600080fd5b82516401000000008111828201881017156200014957600080fd5b82525081516020918201929091019080838360005b83811015620001785781810151838201526020016200015e565b50505050905090810190601f168015620001a65780820380516001836020036101000a031916815260200191505b506040908152602082810151918301516060840151608085015160a090950151895194975091955093929091889188918891889188918891889188918891879184918491620001fb91600391850190620009a7565b50805162000211906004906020840190620009a7565b50506005805460ff19166012179055508062000274576040805162461bcd60e51b815260206004820152601560248201527f45524332304361707065643a2063617020697320300000000000000000000000604482015290519081900360640190fd5b600655620002896301ffc9a760e01b62000425565b6200029b634bbee2df60e01b62000425565b620002ad637dcf646760e11b62000425565b50620002c690506000620002c0620004aa565b620004ae565b620002f57ff0887ba65ee2024ea881d91b74c2450ef19e1557f03bed3ea9f16b037cbe2dc9620002c0620004aa565b620003247f523a704056dcd17bcf83bed8b68c59416dac1119be77755efe3bde0a64e46e0c620002c0620004aa565b600062000330620004aa565b600980546001600160a01b0319166001600160a01b038316908117909155604051919250906000907f8be0079c531659141344cd1fd0a4f28419497f9722a3daafe3b4186f6b6457e0908290a3508015806200038b57508284145b620003c85760405162461bcd60e51b815260040180806020018281038252604081526020018062002ffd6040913960400191505060405180910390fd5b620003d385620004be565b8215620003ef57620003ef620003e8620004d4565b84620004e3565b8015620004005762000400620005f2565b8115620004115762000411620006ec565b505050505050505050505050505062000a43565b6001600160e01b0319808216141562000485576040805162461bcd60e51b815260206004820152601c60248201527f4552433136353a20696e76616c696420696e7465726661636520696400000000604482015290519081900360640190fd5b6001600160e01b0319166000908152600760205260409020805460ff19166001179055565b3390565b620004ba828262000786565b5050565b6005805460ff191660ff92909216919091179055565b6009546001600160a01b031690565b6001600160a01b0382166200053f576040805162461bcd60e51b815260206004820152601f60248201527f45524332303a206d696e7420746f20746865207a65726f206164647265737300604482015290519081900360640190fd5b6200054d6000838362000801565b62000569816002546200081e60201b6200161c1790919060201c565b6002556001600160a01b038216600090815260208181526040909120546200059c9183906200161c6200081e821b17901c565b6001600160a01b0383166000818152602081815260408083209490945583518581529351929391927fddf252ad1be2c89b69c2b068fc378daa952ba7f163c4a11628f55a4df523b3ef9281900390910190a35050565b600954600160a01b900460ff161562000652576040805162461bcd60e51b815260206004820152601e60248201527f4552433230426173653a206d696e74696e672069732066696e69736865640000604482015290519081900360640190fd5b6200065c620004aa565b6009546001600160a01b03908116911614620006ae576040805162461bcd60e51b8152602060048201819052602482015260008051602062002fdd833981519152604482015290519081900360640190fd5b6009805460ff60a01b1916600160a01b1790556040517fae5184fba832cb2b1f702aca6117b8d265eaf03ad33eb133f19dde0f5920fa0890600090a1565b620006f6620004aa565b6009546001600160a01b0390811691161462000748576040805162461bcd60e51b8152602060048201819052602482015260008051602062002fdd833981519152604482015290519081900360640190fd5b6009805460ff60a81b1916600160a81b1790556040517f75fce015c314a132947a3e42f6ab79ab8e05397dabf35b4d742dea228bbadc2d90600090a1565b6000828152600860209081526040909120620007ad9183906200167662000882821b17901c565b15620004ba57620007bd620004aa565b6001600160a01b0316816001600160a01b0316837f2f8788117e7eff1d82e926ec794901d17c78024a50270940304540a733656f0d60405160405180910390a45050565b620008198383836200089960201b6200168b1760201c565b505050565b60008282018381101562000879576040805162461bcd60e51b815260206004820152601b60248201527f536166654d6174683a206164646974696f6e206f766572666c6f770000000000604482015290519081900360640190fd5b90505b92915050565b600062000879836001600160a01b0384166200093a565b620008b18383836200081960201b62000f391760201c565b6001600160a01b0383166200081957600654620008e682620008d262000989565b6200081e60201b6200161c1790919060201c565b111562000819576040805162461bcd60e51b815260206004820152601960248201527f45524332304361707065643a2063617020657863656564656400000000000000604482015290519081900360640190fd5b60006200094883836200098f565b62000980575081546001818101845560008481526020808220909301849055845484825282860190935260409020919091556200087c565b5060006200087c565b60025490565b60009081526001919091016020526040902054151590565b828054600181600116156101000203166002900490600052602060002090601f016020900481019282601f10620009ea57805160ff191683800117855562000a1a565b8280016001018555821562000a1a579182015b8281111562000a1a578251825591602001919060010190620009fd565b5062000a2892915062000a2c565b5090565b5b8082111562000a28576000815560010162000a2d565b61258a8062000a536000396000f3fe608060405234801561001057600080fd5b506004361061025e5760003560e01c806379cc679011610146578063a9059cbb116100c3578063d547741f11610087578063d547741f146108eb578063d8fbe99414610917578063dd62ed3e1461094d578063f1b50c1d1461097b578063f2fde38b14610983578063f5b541a6146109a95761025e565b8063a9059cbb14610719578063c1d34b8914610745578063ca15c8731461080b578063cae9ca5114610828578063d5391393146108e35761025e565b80639010d07c1161010a5780639010d07c1461068e57806391d14854146106b157806395d89b41146106dd578063a217fddf146106e5578063a457c2d7146106ed5761025e565b806379cc6790146106025780637afa1eed1461062e5780637d64bcb4146106365780638980f11f1461063e5780638da5cb5b1461066a5761025e565b80633177029f116101df57806340c10f19116101a357806340c10f191461057b57806342966c68146105a75780634cd412d5146105c457806354fd4d50146105cc57806370a08231146105d4578063715018a6146105fa5761025e565b80633177029f14610434578063355274ea1461046057806336568abe1461046857806339509351146104945780634000aea0146104c05761025e565b806318160ddd1161022657806318160ddd1461037b57806323b872dd14610395578063248a9ca3146103cb5780632f2ff15d146103e8578063313ce567146104165761025e565b806301ffc9a71461026357806305d2035b1461029e57806306fdde03146102a6578063095ea7b3146103235780631296ee621461034f575b600080fd5b61028a6004803603602081101561027957600080fd5b50356001600160e01b0319166109b1565b604080519115158252519081900360200190f35b61028a6109d0565b6102ae6109e0565b6040805160208082528351818301528351919283929083019185019080838360005b838110156102e85781810151838201526020016102d0565b50505050905090810190601f1680156103155780820380516001836020036101000a031916815260200191505b509250505060405180910390f35b61028a6004803603604081101561033957600080fd5b506001600160a01b038135169060200135610a76565b61028a6004803603604081101561036557600080fd5b506001600160a01b038135169060200135610a94565b610383610ab7565b60408051918252519081900360200190f35b61028a600480360360608110156103ab57600080fd5b506001600160a01b03813581169160208101359091169060400135610abd565b610383600480360360208110156103e157600080fd5b5035610b4e565b610414600480360360408110156103fe57600080fd5b50803590602001356001600160a01b0316610b63565b005b61041e610bcf565b6040805160ff9092168252519081900360200190f35b61028a6004803603604081101561044a57600080fd5b506001600160a01b038135169060200135610bd8565b610383610bf4565b6104146004803603604081101561047e57600080fd5b50803590602001356001600160a01b0316610bfa565b61028a600480360360408110156104aa57600080fd5b506001600160a01b038135169060200135610c5b565b61028a600480360360608110156104d657600080fd5b6001600160a01b038235169160208101359181019060608101604082013564010000000081111561050657600080fd5b82018360208201111561051857600080fd5b8035906020019184600183028401116401000000008311171561053a57600080fd5b91908080601f016020809104026020016040519081016040528093929190818152602001838380828437600092019190915250929550610cae945050505050565b6104146004803603604081101561059157600080fd5b506001600160a01b038135169060200135610d13565b610414600480360360208110156105bd57600080fd5b5035610de3565b61028a610df7565b6102ae610e07565b610383600480360360208110156105ea57600080fd5b50356001600160a01b0316610e27565b610414610e42565b6104146004803603604081101561061857600080fd5b506001600160a01b038135169060200135610ee4565b6102ae610f3e565b610414610f5e565b6104146004803603604081101561065457600080fd5b506001600160a01b038135169060200135611053565b610672611139565b604080516001600160a01b039092168252519081900360200190f35b610672600480360360408110156106a457600080fd5b5080359060200135611148565b61028a600480360360408110156106c757600080fd5b50803590602001356001600160a01b0316611160565b6102ae611178565b6103836111d9565b61028a6004803603604081101561070357600080fd5b506001600160a01b0381351690602001356111de565b61028a6004803603604081101561072f57600080fd5b506001600160a01b038135169060200135611246565b61028a6004803603608081101561075b57600080fd5b6001600160a01b0382358116926020810135909116916040820135919081019060808101606082013564010000000081111561079657600080fd5b8201836020820111156107a857600080fd5b803590602001918460018302840111640100000000831117156107ca57600080fd5b91908080601f0160208091040260200160405190810160405280939291908181526020018383808284376000920191909152509295506112da945050505050565b6103836004803603602081101561082157600080fd5b503561133a565b61028a6004803603606081101561083e57600080fd5b6001600160a01b038235169160208101359181019060608101604082013564010000000081111561086e57600080fd5b82018360208201111561088057600080fd5b803590602001918460018302840111640100000000831117156108a257600080fd5b91908080601f016020809104026020016040519081016040528093929190818152602001838380828437600092019190915250929550611351945050505050565b6103836113a4565b6104146004803603604081101561090157600080fd5b50803590602001356001600160a01b03166113c8565b61028a6004803603606081101561092d57600080fd5b506001600160a01b03813581169160208101359091169060400135611421565b6103836004803603604081101561096357600080fd5b506001600160a01b038135811691602001351661143e565b610414611469565b6104146004803603602081101561099957600080fd5b50356001600160a01b03166114ff565b6103836115f8565b6001600160e01b03191660009081526007602052604090205460ff1690565b600954600160a01b900460ff1690565b60038054604080516020601f6002600019610100600188161502019095169490940493840181900481028201810190925282815260609390929091830182828015610a6c5780601f10610a4157610100808354040283529160200191610a6c565b820191906000526020600020905b815481529060010190602001808311610a4f57829003601f168201915b5050505050905090565b6000610a8a610a8361170c565b8484611710565b5060015b92915050565b6000610ab0838360405180602001604052806000815250610cae565b9392505050565b60025490565b6009546000908490600160a81b900460ff1680610aff5750610aff7f523a704056dcd17bcf83bed8b68c59416dac1119be77755efe3bde0a64e46e0c82611160565b610b3a5760405162461bcd60e51b815260040180806020018281038252604a8152602001806124b7604a913960600191505060405180910390fd5b610b458585856117fc565b95945050505050565b60009081526008602052604090206002015490565b600082815260086020526040902060020154610b8690610b8161170c565b611160565b610bc15760405162461bcd60e51b815260040180806020018281038252602f81526020018061224d602f913960400191505060405180910390fd5b610bcb8282611874565b5050565b60055460ff1690565b6000610ab0838360405180602001604052806000815250611351565b60065490565b610c0261170c565b6001600160a01b0316816001600160a01b031614610c515760405162461bcd60e51b815260040180806020018281038252602f815260200180612526602f913960400191505060405180910390fd5b610bcb82826118dd565b6000610a8a610c6861170c565b84610ca98560016000610c7961170c565b6001600160a01b03908116825260208083019390935260409182016000908120918c16815292529020549061161c565b611710565b6000610cba8484611246565b50610cce610cc661170c565b858585611946565b610d095760405162461bcd60e51b815260040180806020018281038252602681526020018061238c6026913960400191505060405180910390fd5b5060019392505050565b600954600160a01b900460ff1615610d72576040805162461bcd60e51b815260206004820152601e60248201527f4552433230426173653a206d696e74696e672069732066696e69736865640000604482015290519081900360640190fd5b610d9e7ff0887ba65ee2024ea881d91b74c2450ef19e1557f03bed3ea9f16b037cbe2dc9610b8161170c565b610dd95760405162461bcd60e51b815260040180806020018281038252602b815260200180612361602b913960400191505060405180910390fd5b610bcb8282611a8b565b610df4610dee61170c565b82611b7b565b50565b600954600160a81b900460ff1690565b604080518082019091526006815265076332e322e360d41b602082015290565b6001600160a01b031660009081526020819052604090205490565b610e4a61170c565b6009546001600160a01b03908116911614610e9a576040805162461bcd60e51b815260206004820181905260248201526000805160206123da833981519152604482015290519081900360640190fd5b6009546040516000916001600160a01b0316907f8be0079c531659141344cd1fd0a4f28419497f9722a3daafe3b4186f6b6457e0908390a3600980546001600160a01b0319169055565b6000610f1b826040518060600160405280602481526020016123fa60249139610f1486610f0f61170c565b61143e565b9190611c77565b9050610f2f83610f2961170c565b83611710565b610f398383611b7b565b505050565b60606040518060600160405280602f8152602001612488602f9139905090565b600954600160a01b900460ff1615610fbd576040805162461bcd60e51b815260206004820152601e60248201527f4552433230426173653a206d696e74696e672069732066696e69736865640000604482015290519081900360640190fd5b610fc561170c565b6009546001600160a01b03908116911614611015576040805162461bcd60e51b815260206004820181905260248201526000805160206123da833981519152604482015290519081900360640190fd5b6009805460ff60a01b1916600160a01b1790556040517fae5184fba832cb2b1f702aca6117b8d265eaf03ad33eb133f19dde0f5920fa0890600090a1565b61105b61170c565b6009546001600160a01b039081169116146110ab576040805162461bcd60e51b815260206004820181905260248201526000805160206123da833981519152604482015290519081900360640190fd5b816001600160a01b031663a9059cbb6110c2611139565b836040518363ffffffff1660e01b815260040180836001600160a01b0316815260200182815260200192505050602060405180830381600087803b15801561110957600080fd5b505af115801561111d573d6000803e3d6000fd5b505050506040513d602081101561113357600080fd5b50505050565b6009546001600160a01b031690565b6000828152600860205260408120610ab09083611d0e565b6000828152600860205260408120610ab09083611d1a565b60048054604080516020601f6002600019610100600188161502019095169490940493840181900481028201810190925282815260609390929091830182828015610a6c5780601f10610a4157610100808354040283529160200191610a6c565b600081565b6000610a8a6111eb61170c565b84610ca985604051806060016040528060258152602001612501602591396001600061121561170c565b6001600160a01b03908116825260208083019390935260409182016000908120918d16815292529020549190611c77565b600061125061170c565b600954600160a81b900460ff168061128d575061128d7f523a704056dcd17bcf83bed8b68c59416dac1119be77755efe3bde0a64e46e0c82611160565b6112c85760405162461bcd60e51b815260040180806020018281038252604a8152602001806124b7604a913960600191505060405180910390fd5b6112d28484611d2f565b949350505050565b60006112e7858585610abd565b506112f485858585611946565b61132f5760405162461bcd60e51b815260040180806020018281038252602681526020018061238c6026913960400191505060405180910390fd5b506001949350505050565b6000818152600860205260408120610a8e90611d43565b600061135d8484610a76565b50611369848484611d4e565b610d095760405162461bcd60e51b81526004018080602001828103825260258152602001806122e66025913960400191505060405180910390fd5b7ff0887ba65ee2024ea881d91b74c2450ef19e1557f03bed3ea9f16b037cbe2dc981565b6000828152600860205260409020600201546113e690610b8161170c565b610c515760405162461bcd60e51b81526004018080602001828103825260308152602001806123316030913960400191505060405180910390fd5b60006112d2848484604051806020016040528060008152506112da565b6001600160a01b03918216600090815260016020908152604080832093909416825291909152205490565b61147161170c565b6009546001600160a01b039081169116146114c1576040805162461bcd60e51b815260206004820181905260248201526000805160206123da833981519152604482015290519081900360640190fd5b6009805460ff60a81b1916600160a81b1790556040517f75fce015c314a132947a3e42f6ab79ab8e05397dabf35b4d742dea228bbadc2d90600090a1565b61150761170c565b6009546001600160a01b03908116911614611557576040805162461bcd60e51b815260206004820181905260248201526000805160206123da833981519152604482015290519081900360640190fd5b6001600160a01b03811661159c5760405162461bcd60e51b815260040180806020018281038252602681526020018061229e6026913960400191505060405180910390fd5b6009546040516001600160a01b038084169216907f8be0079c531659141344cd1fd0a4f28419497f9722a3daafe3b4186f6b6457e090600090a3600980546001600160a01b0319166001600160a01b0392909216919091179055565b7f523a704056dcd17bcf83bed8b68c59416dac1119be77755efe3bde0a64e46e0c81565b600082820183811015610ab0576040805162461bcd60e51b815260206004820152601b60248201527f536166654d6174683a206164646974696f6e206f766572666c6f770000000000604482015290519081900360640190fd5b6000610ab0836001600160a01b038416611e81565b611696838383610f39565b6001600160a01b038316610f39576006546116b9826116b3610ab7565b9061161c565b1115610f39576040805162461bcd60e51b815260206004820152601960248201527f45524332304361707065643a2063617020657863656564656400000000000000604482015290519081900360640190fd5b3390565b6001600160a01b0383166117555760405162461bcd60e51b81526004018080602001828103825260248152602001806124646024913960400191505060405180910390fd5b6001600160a01b03821661179a5760405162461bcd60e51b81526004018080602001828103825260228152602001806122c46022913960400191505060405180910390fd5b6001600160a01b03808416600081815260016020908152604080832094871680845294825291829020859055815185815291517f8c5be1e5ebec7d5bd14f71427d1e84f3dd0314c0f7b2291e5b200ac8c7c3b9259281900390910190a3505050565b6000611809848484611ecb565b610d098461181561170c565b610ca9856040518060600160405280602881526020016123b2602891396001600160a01b038a1660009081526001602052604081209061185361170c565b6001600160a01b031681526020810191909152604001600020549190611c77565b600082815260086020526040902061188c9082611676565b15610bcb5761189961170c565b6001600160a01b0316816001600160a01b0316837f2f8788117e7eff1d82e926ec794901d17c78024a50270940304540a733656f0d60405160405180910390a45050565b60008281526008602052604090206118f59082612026565b15610bcb5761190261170c565b6001600160a01b0316816001600160a01b0316837ff6391f5c32d9c69d2a47ea670b442974b53935d1edc7fd64eb21e047a839171b60405160405180910390a45050565b600061195a846001600160a01b031661203b565b611966575060006112d2565b6000846001600160a01b03166388a7ca5c61197f61170c565b8887876040518563ffffffff1660e01b815260040180856001600160a01b03168152602001846001600160a01b0316815260200183815260200180602001828103825283818151815260200191508051906020019080838360005b838110156119f25781810151838201526020016119da565b50505050905090810190601f168015611a1f5780820380516001836020036101000a031916815260200191505b5095505050505050602060405180830381600087803b158015611a4157600080fd5b505af1158015611a55573d6000803e3d6000fd5b505050506040513d6020811015611a6b57600080fd5b50516001600160e01b031916632229f29760e21b14915050949350505050565b6001600160a01b038216611ae6576040805162461bcd60e51b815260206004820152601f60248201527f45524332303a206d696e7420746f20746865207a65726f206164647265737300604482015290519081900360640190fd5b611af260008383612074565b600254611aff908261161c565b6002556001600160a01b038216600090815260208190526040902054611b25908261161c565b6001600160a01b0383166000818152602081815260408083209490945583518581529351929391927fddf252ad1be2c89b69c2b068fc378daa952ba7f163c4a11628f55a4df523b3ef9281900390910190a35050565b6001600160a01b038216611bc05760405162461bcd60e51b815260040180806020018281038252602181526020018061241e6021913960400191505060405180910390fd5b611bcc82600083612074565b611c098160405180606001604052806022815260200161227c602291396001600160a01b0385166000908152602081905260409020549190611c77565b6001600160a01b038316600090815260208190526040902055600254611c2f908261207f565b6002556040805182815290516000916001600160a01b038516917fddf252ad1be2c89b69c2b068fc378daa952ba7f163c4a11628f55a4df523b3ef9181900360200190a35050565b60008184841115611d065760405162461bcd60e51b81526004018080602001828103825283818151815260200191508051906020019080838360005b83811015611ccb578181015183820152602001611cb3565b50505050905090810190601f168015611cf85780820380516001836020036101000a031916815260200191505b509250505060405180910390fd5b505050900390565b6000610ab083836120c1565b6000610ab0836001600160a01b038416612125565b6000610a8a611d3c61170c565b8484611ecb565b6000610a8e8261213d565b6000611d62846001600160a01b031661203b565b611d6e57506000610ab0565b6000846001600160a01b0316637b04a2d0611d8761170c565b86866040518463ffffffff1660e01b815260040180846001600160a01b0316815260200183815260200180602001828103825283818151815260200191508051906020019080838360005b83811015611dea578181015183820152602001611dd2565b50505050905090810190601f168015611e175780820380516001836020036101000a031916815260200191505b50945050505050602060405180830381600087803b158015611e3857600080fd5b505af1158015611e4c573d6000803e3d6000fd5b505050506040513d6020811015611e6257600080fd5b50516001600160e01b0319166307b04a2d60e41b149150509392505050565b6000611e8d8383612125565b611ec357508154600181810184556000848152602080822090930184905584548482528286019093526040902091909155610a8e565b506000610a8e565b6001600160a01b038316611f105760405162461bcd60e51b815260040180806020018281038252602581526020018061243f6025913960400191505060405180910390fd5b6001600160a01b038216611f555760405162461bcd60e51b815260040180806020018281038252602381526020018061222a6023913960400191505060405180910390fd5b611f60838383612074565b611f9d8160405180606001604052806026815260200161230b602691396001600160a01b0386166000908152602081905260409020549190611c77565b6001600160a01b038085166000908152602081905260408082209390935590841681522054611fcc908261161c565b6001600160a01b038084166000818152602081815260409182902094909455805185815290519193928716927fddf252ad1be2c89b69c2b068fc378daa952ba7f163c4a11628f55a4df523b3ef92918290030190a3505050565b6000610ab0836001600160a01b038416612141565b6000813f7fc5d2460186f7233c927e7db2dcc703c0e500b653ca82273b7bfad8045d85a4708181148015906112d2575050151592915050565b610f3983838361168b565b6000610ab083836040518060400160405280601e81526020017f536166654d6174683a207375627472616374696f6e206f766572666c6f770000815250611c77565b815460009082106121035760405162461bcd60e51b81526004018080602001828103825260228152602001806122086022913960400191505060405180910390fd5b82600001828154811061211257fe5b9060005260206000200154905092915050565b60009081526001919091016020526040902054151590565b5490565b600081815260018301602052604081205480156121fd578354600019808301919081019060009087908390811061217457fe5b906000526020600020015490508087600001848154811061219157fe5b6000918252602080832090910192909255828152600189810190925260409020908401905586548790806121c157fe5b60019003818190600052602060002001600090559055866001016000878152602001908152602001600020600090556001945050505050610a8e565b6000915050610a8e56fe456e756d657261626c655365743a20696e646578206f7574206f6620626f756e647345524332303a207472616e7366657220746f20746865207a65726f2061646472657373416363657373436f6e74726f6c3a2073656e646572206d75737420626520616e2061646d696e20746f206772616e7445524332303a206275726e20616d6f756e7420657863656564732062616c616e63654f776e61626c653a206e6577206f776e657220697320746865207a65726f206164647265737345524332303a20617070726f766520746f20746865207a65726f2061646472657373455243313336333a205f636865636b416e6443616c6c417070726f7665207265766572747345524332303a207472616e7366657220616d6f756e7420657863656564732062616c616e6365416363657373436f6e74726f6c3a2073656e646572206d75737420626520616e2061646d696e20746f207265766f6b65526f6c65733a2063616c6c657220646f6573206e6f74206861766520746865204d494e54455220726f6c65455243313336333a205f636865636b416e6443616c6c5472616e73666572207265766572747345524332303a207472616e7366657220616d6f756e74206578636565647320616c6c6f77616e63654f776e61626c653a2063616c6c6572206973206e6f7420746865206f776e657245524332303a206275726e20616d6f756e74206578636565647320616c6c6f77616e636545524332303a206275726e2066726f6d20746865207a65726f206164647265737345524332303a207472616e736665722066726f6d20746865207a65726f206164647265737345524332303a20617070726f76652066726f6d20746865207a65726f206164647265737368747470733a2f2f766974746f6d696e61636f72692e6769746875622e696f2f65726332302d67656e657261746f724552433230426173653a207472616e73666572206973206e6f7420656e61626c6564206f722066726f6d20646f6573206e6f74206861766520746865204f50455241544f5220726f6c6545524332303a2064656372656173656420616c6c6f77616e63652062656c6f77207a65726f416363657373436f6e74726f6c3a2063616e206f6e6c792072656e6f756e636520726f6c657320666f722073656c66a26469706673582212201bdc17d91ba9aa4ca49c7c27effbc9bb968811752416c63c61fd8676ea14354764736f6c634300070100334f776e61626c653a2063616c6c6572206973206e6f7420746865206f776e65724552433230426173653a2069662066696e697368206d696e74696e672c20636170206d75737420626520657175616c20746f20696e697469616c537570706c79",
  "immutableReferences": {},
  "source": "// SPDX-License-Identifier: MIT\n\npragma solidity ^0.7.1;\n\nimport \"@vittominacori/erc20-token/contracts/ERC20Base.sol\";\n\n/**\n * @title BaseToken\n * @author Vittorio Minacori (https://github.com/vittominacori)\n * @dev Implementation of the BaseToken\n */\ncontract BaseToken is ERC20Base {\n\n  string private constant _GENERATOR = \"https://vittominacori.github.io/erc20-generator\";\n  string private constant _VERSION = \"v3.2.0\";\n\n  constructor (\n    string memory name,\n    string memory symbol,\n    uint8 decimals,\n    uint256 cap,\n    uint256 initialSupply,\n    bool transferEnabled,\n    bool mintingFinished\n  ) ERC20Base(name, symbol, decimals, cap, initialSupply, transferEnabled, mintingFinished) {}\n\n  /**\n   * @dev Returns the token generator tool.\n   */\n  function generator() public pure returns (string memory) {\n    return _GENERATOR;\n  }\n\n  /**\n   * @dev Returns the token generator version.\n   */\n  function version() public pure returns (string memory) {\n    return _VERSION;\n  }\n}\n",
  "sourcePath": "/Users/vittominacori/Projects/vittominacori.github.io/erc20-generator/erc20-generator-smartcontracts/contracts/BaseToken.sol",
  "compiler": {
    "name": "solc",
    "version": "0.7.1+commit.f4a555be.Emscripten.clang"
  },
  "schemaVersion": "3.2.5",
  "updatedAt": "2020-09-12T14:51:24.913Z",
  "devdoc": {
    "author": "Vittorio Minacori (https://github.com/vittominacori)",
    "details": "Implementation of the BaseToken",
    "kind": "dev",
    "methods": {
      "allowance(address,address)": {
        "details": "See {IERC20-allowance}."
      },
      "approve(address,uint256)": {
        "details": "See {IERC20-approve}. Requirements: - `spender` cannot be the zero address."
      },
      "approveAndCall(address,uint256)": {
        "details": "Approve spender to transfer tokens and then execute a callback on recipient.",
        "params": {
          "spender": "The address allowed to transfer to",
          "value": "The amount allowed to be transferred"
        },
        "returns": {
          "_0": "A boolean that indicates if the operation was successful."
        }
      },
      "approveAndCall(address,uint256,bytes)": {
        "details": "Approve spender to transfer tokens and then execute a callback on recipient.",
        "params": {
          "data": "Additional data with no specified format.",
          "spender": "The address allowed to transfer to.",
          "value": "The amount allowed to be transferred."
        },
        "returns": {
          "_0": "A boolean that indicates if the operation was successful."
        }
      },
      "balanceOf(address)": {
        "details": "See {IERC20-balanceOf}."
      },
      "burn(uint256)": {
        "details": "Destroys `amount` tokens from the caller. See {ERC20-_burn}."
      },
      "burnFrom(address,uint256)": {
        "details": "Destroys `amount` tokens from `account`, deducting from the caller's allowance. See {ERC20-_burn} and {ERC20-allowance}. Requirements: - the caller must have allowance for ``accounts``'s tokens of at least `amount`."
      },
      "cap()": {
        "details": "Returns the cap on the token's total supply."
      },
      "decimals()": {
        "details": "Returns the number of decimals used to get its user representation. For example, if `decimals` equals `2`, a balance of `505` tokens should be displayed to a user as `5,05` (`505 / 10 ** 2`). Tokens usually opt for a value of 18, imitating the relationship between Ether and Wei. This is the value {ERC20} uses, unless {_setupDecimals} is called. NOTE: This information is only used for _display_ purposes: it in no way affects any of the arithmetic of the contract, including {IERC20-balanceOf} and {IERC20-transfer}."
      },
      "decreaseAllowance(address,uint256)": {
        "details": "Atomically decreases the allowance granted to `spender` by the caller. This is an alternative to {approve} that can be used as a mitigation for problems described in {IERC20-approve}. Emits an {Approval} event indicating the updated allowance. Requirements: - `spender` cannot be the zero address. - `spender` must have allowance for the caller of at least `subtractedValue`."
      },
      "enableTransfer()": {
        "details": "Function to enable transfers."
      },
      "finishMinting()": {
        "details": "Function to stop minting new tokens."
      },
      "generator()": {
        "details": "Returns the token generator tool."
      },
      "getRoleAdmin(bytes32)": {
        "details": "Returns the admin role that controls `role`. See {grantRole} and {revokeRole}. To change a role's admin, use {_setRoleAdmin}."
      },
      "getRoleMember(bytes32,uint256)": {
        "details": "Returns one of the accounts that have `role`. `index` must be a value between 0 and {getRoleMemberCount}, non-inclusive. Role bearers are not sorted in any particular way, and their ordering may change at any point. WARNING: When using {getRoleMember} and {getRoleMemberCount}, make sure you perform all queries on the same block. See the following https://forum.openzeppelin.com/t/iterating-over-elements-on-enumerableset-in-openzeppelin-contracts/2296[forum post] for more information."
      },
      "getRoleMemberCount(bytes32)": {
        "details": "Returns the number of accounts that have `role`. Can be used together with {getRoleMember} to enumerate all bearers of a role."
      },
      "grantRole(bytes32,address)": {
        "details": "Grants `role` to `account`. If `account` had not been already granted `role`, emits a {RoleGranted} event. Requirements: - the caller must have ``role``'s admin role."
      },
      "hasRole(bytes32,address)": {
        "details": "Returns `true` if `account` has been granted `role`."
      },
      "increaseAllowance(address,uint256)": {
        "details": "Atomically increases the allowance granted to `spender` by the caller. This is an alternative to {approve} that can be used as a mitigation for problems described in {IERC20-approve}. Emits an {Approval} event indicating the updated allowance. Requirements: - `spender` cannot be the zero address."
      },
      "mint(address,uint256)": {
        "details": "Function to mint tokens.",
        "params": {
          "to": "The address that will receive the minted tokens",
          "value": "The amount of tokens to mint"
        }
      },
      "mintingFinished()": {
        "returns": {
          "_0": "if minting is finished or not."
        }
      },
      "name()": {
        "details": "Returns the name of the token."
      },
      "owner()": {
        "details": "Returns the address of the current owner."
      },
      "recoverERC20(address,uint256)": {
        "details": "Remember that only owner can call so be careful when use on contracts generated from other contracts.",
        "params": {
          "tokenAddress": "The token contract address",
          "tokenAmount": "Number of tokens to be sent"
        }
      },
      "renounceOwnership()": {
        "details": "Leaves the contract without owner. It will not be possible to call `onlyOwner` functions anymore. Can only be called by the current owner. NOTE: Renouncing ownership will leave the contract without an owner, thereby removing any functionality that is only available to the owner."
      },
      "renounceRole(bytes32,address)": {
        "details": "Revokes `role` from the calling account. Roles are often managed via {grantRole} and {revokeRole}: this function's purpose is to provide a mechanism for accounts to lose their privileges if they are compromised (such as when a trusted device is misplaced). If the calling account had been granted `role`, emits a {RoleRevoked} event. Requirements: - the caller must be `account`."
      },
      "revokeRole(bytes32,address)": {
        "details": "Revokes `role` from `account`. If `account` had been granted `role`, emits a {RoleRevoked} event. Requirements: - the caller must have ``role``'s admin role."
      },
      "supportsInterface(bytes4)": {
        "details": "See {IERC165-supportsInterface}. Time complexity O(1), guaranteed to always use less than 30 000 gas."
      },
      "symbol()": {
        "details": "Returns the symbol of the token, usually a shorter version of the name."
      },
      "totalSupply()": {
        "details": "See {IERC20-totalSupply}."
      },
      "transfer(address,uint256)": {
        "details": "Transfer tokens to a specified address.",
        "params": {
          "to": "The address to transfer to",
          "value": "The amount to be transferred"
        },
        "returns": {
          "_0": "A boolean that indicates if the operation was successful."
        }
      },
      "transferAndCall(address,uint256)": {
        "details": "Transfer tokens to a specified address and then execute a callback on recipient.",
        "params": {
          "to": "The address to transfer to.",
          "value": "The amount to be transferred."
        },
        "returns": {
          "_0": "A boolean that indicates if the operation was successful."
        }
      },
      "transferAndCall(address,uint256,bytes)": {
        "details": "Transfer tokens to a specified address and then execute a callback on recipient.",
        "params": {
          "data": "Additional data with no specified format",
          "to": "The address to transfer to",
          "value": "The amount to be transferred"
        },
        "returns": {
          "_0": "A boolean that indicates if the operation was successful."
        }
      },
      "transferEnabled()": {
        "returns": {
          "_0": "if transfer is enabled or not."
        }
      },
      "transferFrom(address,address,uint256)": {
        "details": "Transfer tokens from one address to another.",
        "params": {
          "from": "The address which you want to send tokens from",
          "to": "The address which you want to transfer to",
          "value": "the amount of tokens to be transferred"
        },
        "returns": {
          "_0": "A boolean that indicates if the operation was successful."
        }
      },
      "transferFromAndCall(address,address,uint256)": {
        "details": "Transfer tokens from one address to another and then execute a callback on recipient.",
        "params": {
          "from": "The address which you want to send tokens from",
          "to": "The address which you want to transfer to",
          "value": "The amount of tokens to be transferred"
        },
        "returns": {
          "_0": "A boolean that indicates if the operation was successful."
        }
      },
      "transferFromAndCall(address,address,uint256,bytes)": {
        "details": "Transfer tokens from one address to another and then execute a callback on recipient.",
        "params": {
          "data": "Additional data with no specified format",
          "from": "The address which you want to send tokens from",
          "to": "The address which you want to transfer to",
          "value": "The amount of tokens to be transferred"
        },
        "returns": {
          "_0": "A boolean that indicates if the operation was successful."
        }
      },
      "transferOwnership(address)": {
        "details": "Transfers ownership of the contract to a new account (`newOwner`). Can only be called by the current owner."
      },
      "version()": {
        "details": "Returns the token generator version."
      }
    },
    "title": "BaseToken",
    "version": 1
  },
  "userdoc": {
    "kind": "user",
    "methods": {},
    "version": 1
  }
}