{
  "contractName": "BaseToken",
  "abi": [
    {
      "constant": true,
      "inputs": [
        {
          "name": "_interfaceId",
          "type": "bytes4"
        }
      ],
      "name": "supportsInterface",
      "outputs": [
        {
          "name": "",
          "type": "bool"
        }
      ],
      "payable": false,
      "stateMutability": "view",
      "type": "function"
    },
    {
      "constant": true,
      "inputs": [],
      "name": "mintingFinished",
      "outputs": [
        {
          "name": "",
          "type": "bool"
        }
      ],
      "payable": false,
      "stateMutability": "view",
      "type": "function"
    },
    {
      "constant": true,
      "inputs": [],
      "name": "name",
      "outputs": [
        {
          "name": "",
          "type": "string"
        }
      ],
      "payable": false,
      "stateMutability": "view",
      "type": "function"
    },
    {
      "constant": false,
      "inputs": [
        {
          "name": "_spender",
          "type": "address"
        },
        {
          "name": "_value",
          "type": "uint256"
        }
      ],
      "name": "approve",
      "outputs": [
        {
          "name": "",
          "type": "bool"
        }
      ],
      "payable": false,
      "stateMutability": "nonpayable",
      "type": "function"
    },
    {
      "constant": true,
      "inputs": [
        {
          "name": "_operator",
          "type": "address"
        },
        {
          "name": "_role",
          "type": "string"
        }
      ],
      "name": "checkRole",
      "outputs": [],
      "payable": false,
      "stateMutability": "view",
      "type": "function"
    },
    {
      "constant": false,
      "inputs": [
        {
          "name": "_to",
          "type": "address"
        },
        {
          "name": "_value",
          "type": "uint256"
        }
      ],
      "name": "transferAndCall",
      "outputs": [
        {
          "name": "",
          "type": "bool"
        }
      ],
      "payable": false,
      "stateMutability": "nonpayable",
      "type": "function"
    },
    {
      "constant": true,
      "inputs": [],
      "name": "totalSupply",
      "outputs": [
        {
          "name": "",
          "type": "uint256"
        }
      ],
      "payable": false,
      "stateMutability": "view",
      "type": "function"
    },
    {
      "constant": true,
      "inputs": [],
      "name": "InterfaceId_ERC165",
      "outputs": [
        {
          "name": "",
          "type": "bytes4"
        }
      ],
      "payable": false,
      "stateMutability": "view",
      "type": "function"
    },
    {
      "constant": true,
      "inputs": [
        {
          "name": "_operator",
          "type": "address"
        },
        {
          "name": "_role",
          "type": "string"
        }
      ],
      "name": "hasRole",
      "outputs": [
        {
          "name": "",
          "type": "bool"
        }
      ],
      "payable": false,
      "stateMutability": "view",
      "type": "function"
    },
    {
      "constant": false,
      "inputs": [
        {
          "name": "_from",
          "type": "address"
        },
        {
          "name": "_to",
          "type": "address"
        },
        {
          "name": "_value",
          "type": "uint256"
        }
      ],
      "name": "transferFrom",
      "outputs": [
        {
          "name": "",
          "type": "bool"
        }
      ],
      "payable": false,
      "stateMutability": "nonpayable",
      "type": "function"
    },
    {
      "constant": false,
      "inputs": [
        {
          "name": "_minter",
          "type": "address"
        }
      ],
      "name": "removeMinter",
      "outputs": [],
      "payable": false,
      "stateMutability": "nonpayable",
      "type": "function"
    },
    {
      "constant": true,
      "inputs": [],
      "name": "decimals",
      "outputs": [
        {
          "name": "",
          "type": "uint8"
        }
      ],
      "payable": false,
      "stateMutability": "view",
      "type": "function"
    },
    {
      "constant": false,
      "inputs": [
        {
          "name": "_spender",
          "type": "address"
        },
        {
          "name": "_value",
          "type": "uint256"
        }
      ],
      "name": "approveAndCall",
      "outputs": [
        {
          "name": "",
          "type": "bool"
        }
      ],
      "payable": false,
      "stateMutability": "nonpayable",
      "type": "function"
    },
    {
      "constant": false,
      "inputs": [
        {
          "name": "_to",
          "type": "address"
        },
        {
          "name": "_value",
          "type": "uint256"
        },
        {
          "name": "_data",
          "type": "bytes"
        }
      ],
      "name": "transferAndCall",
      "outputs": [
        {
          "name": "",
          "type": "bool"
        }
      ],
      "payable": false,
      "stateMutability": "nonpayable",
      "type": "function"
    },
    {
      "constant": false,
      "inputs": [
        {
          "name": "_to",
          "type": "address"
        },
        {
          "name": "_amount",
          "type": "uint256"
        }
      ],
      "name": "mint",
      "outputs": [
        {
          "name": "",
          "type": "bool"
        }
      ],
      "payable": false,
      "stateMutability": "nonpayable",
      "type": "function"
    },
    {
      "constant": false,
      "inputs": [
        {
          "name": "_value",
          "type": "uint256"
        }
      ],
      "name": "burn",
      "outputs": [],
      "payable": false,
      "stateMutability": "nonpayable",
      "type": "function"
    },
    {
      "constant": false,
      "inputs": [
        {
          "name": "_spender",
          "type": "address"
        },
        {
          "name": "_subtractedValue",
          "type": "uint256"
        }
      ],
      "name": "decreaseApproval",
      "outputs": [
        {
          "name": "",
          "type": "bool"
        }
      ],
      "payable": false,
      "stateMutability": "nonpayable",
      "type": "function"
    },
    {
      "constant": true,
      "inputs": [
        {
          "name": "_owner",
          "type": "address"
        }
      ],
      "name": "balanceOf",
      "outputs": [
        {
          "name": "",
          "type": "uint256"
        }
      ],
      "payable": false,
      "stateMutability": "view",
      "type": "function"
    },
    {
      "constant": false,
      "inputs": [],
      "name": "renounceOwnership",
      "outputs": [],
      "payable": false,
      "stateMutability": "nonpayable",
      "type": "function"
    },
    {
      "constant": false,
      "inputs": [],
      "name": "finishMinting",
      "outputs": [
        {
          "name": "",
          "type": "bool"
        }
      ],
      "payable": false,
      "stateMutability": "nonpayable",
      "type": "function"
    },
    {
      "constant": false,
      "inputs": [
        {
          "name": "_tokenAddress",
          "type": "address"
        },
        {
          "name": "_tokens",
          "type": "uint256"
        }
      ],
      "name": "recoverERC20",
      "outputs": [
        {
          "name": "success",
          "type": "bool"
        }
      ],
      "payable": false,
      "stateMutability": "nonpayable",
      "type": "function"
    },
    {
      "constant": true,
      "inputs": [],
      "name": "owner",
      "outputs": [
        {
          "name": "",
          "type": "address"
        }
      ],
      "payable": false,
      "stateMutability": "view",
      "type": "function"
    },
    {
      "constant": true,
      "inputs": [],
      "name": "ROLE_MINTER",
      "outputs": [
        {
          "name": "",
          "type": "string"
        }
      ],
      "payable": false,
      "stateMutability": "view",
      "type": "function"
    },
    {
      "constant": true,
      "inputs": [],
      "name": "symbol",
      "outputs": [
        {
          "name": "",
          "type": "string"
        }
      ],
      "payable": false,
      "stateMutability": "view",
      "type": "function"
    },
    {
      "constant": false,
      "inputs": [
        {
          "name": "_minter",
          "type": "address"
        }
      ],
      "name": "addMinter",
      "outputs": [],
      "payable": false,
      "stateMutability": "nonpayable",
      "type": "function"
    },
    {
      "constant": false,
      "inputs": [
        {
          "name": "_to",
          "type": "address"
        },
        {
          "name": "_value",
          "type": "uint256"
        }
      ],
      "name": "transfer",
      "outputs": [
        {
          "name": "",
          "type": "bool"
        }
      ],
      "payable": false,
      "stateMutability": "nonpayable",
      "type": "function"
    },
    {
      "constant": true,
      "inputs": [],
      "name": "builtOn",
      "outputs": [
        {
          "name": "",
          "type": "string"
        }
      ],
      "payable": false,
      "stateMutability": "view",
      "type": "function"
    },
    {
      "constant": false,
      "inputs": [
        {
          "name": "_from",
          "type": "address"
        },
        {
          "name": "_to",
          "type": "address"
        },
        {
          "name": "_value",
          "type": "uint256"
        },
        {
          "name": "_data",
          "type": "bytes"
        }
      ],
      "name": "transferFromAndCall",
      "outputs": [
        {
          "name": "",
          "type": "bool"
        }
      ],
      "payable": false,
      "stateMutability": "nonpayable",
      "type": "function"
    },
    {
      "constant": false,
      "inputs": [
        {
          "name": "_spender",
          "type": "address"
        },
        {
          "name": "_value",
          "type": "uint256"
        },
        {
          "name": "_data",
          "type": "bytes"
        }
      ],
      "name": "approveAndCall",
      "outputs": [
        {
          "name": "",
          "type": "bool"
        }
      ],
      "payable": false,
      "stateMutability": "nonpayable",
      "type": "function"
    },
    {
      "constant": false,
      "inputs": [
        {
          "name": "_spender",
          "type": "address"
        },
        {
          "name": "_addedValue",
          "type": "uint256"
        }
      ],
      "name": "increaseApproval",
      "outputs": [
        {
          "name": "",
          "type": "bool"
        }
      ],
      "payable": false,
      "stateMutability": "nonpayable",
      "type": "function"
    },
    {
      "constant": false,
      "inputs": [
        {
          "name": "_from",
          "type": "address"
        },
        {
          "name": "_to",
          "type": "address"
        },
        {
          "name": "_value",
          "type": "uint256"
        }
      ],
      "name": "transferFromAndCall",
      "outputs": [
        {
          "name": "",
          "type": "bool"
        }
      ],
      "payable": false,
      "stateMutability": "nonpayable",
      "type": "function"
    },
    {
      "constant": true,
      "inputs": [
        {
          "name": "_owner",
          "type": "address"
        },
        {
          "name": "_spender",
          "type": "address"
        }
      ],
      "name": "allowance",
      "outputs": [
        {
          "name": "",
          "type": "uint256"
        }
      ],
      "payable": false,
      "stateMutability": "view",
      "type": "function"
    },
    {
      "constant": false,
      "inputs": [
        {
          "name": "_newOwner",
          "type": "address"
        }
      ],
      "name": "transferOwnership",
      "outputs": [],
      "payable": false,
      "stateMutability": "nonpayable",
      "type": "function"
    },
    {
      "inputs": [
        {
          "name": "_name",
          "type": "string"
        },
        {
          "name": "_symbol",
          "type": "string"
        },
        {
          "name": "_decimals",
          "type": "uint8"
        }
      ],
      "payable": false,
      "stateMutability": "nonpayable",
      "type": "constructor"
    },
    {
      "anonymous": false,
      "inputs": [
        {
          "indexed": true,
          "name": "burner",
          "type": "address"
        },
        {
          "indexed": false,
          "name": "value",
          "type": "uint256"
        }
      ],
      "name": "Burn",
      "type": "event"
    },
    {
      "anonymous": false,
      "inputs": [
        {
          "indexed": true,
          "name": "operator",
          "type": "address"
        },
        {
          "indexed": false,
          "name": "role",
          "type": "string"
        }
      ],
      "name": "RoleAdded",
      "type": "event"
    },
    {
      "anonymous": false,
      "inputs": [
        {
          "indexed": true,
          "name": "operator",
          "type": "address"
        },
        {
          "indexed": false,
          "name": "role",
          "type": "string"
        }
      ],
      "name": "RoleRemoved",
      "type": "event"
    },
    {
      "anonymous": false,
      "inputs": [
        {
          "indexed": true,
          "name": "to",
          "type": "address"
        },
        {
          "indexed": false,
          "name": "amount",
          "type": "uint256"
        }
      ],
      "name": "Mint",
      "type": "event"
    },
    {
      "anonymous": false,
      "inputs": [],
      "name": "MintFinished",
      "type": "event"
    },
    {
      "anonymous": false,
      "inputs": [
        {
          "indexed": true,
          "name": "previousOwner",
          "type": "address"
        }
      ],
      "name": "OwnershipRenounced",
      "type": "event"
    },
    {
      "anonymous": false,
      "inputs": [
        {
          "indexed": true,
          "name": "previousOwner",
          "type": "address"
        },
        {
          "indexed": true,
          "name": "newOwner",
          "type": "address"
        }
      ],
      "name": "OwnershipTransferred",
      "type": "event"
    },
    {
      "anonymous": false,
      "inputs": [
        {
          "indexed": true,
          "name": "owner",
          "type": "address"
        },
        {
          "indexed": true,
          "name": "spender",
          "type": "address"
        },
        {
          "indexed": false,
          "name": "value",
          "type": "uint256"
        }
      ],
      "name": "Approval",
      "type": "event"
    },
    {
      "anonymous": false,
      "inputs": [
        {
          "indexed": true,
          "name": "from",
          "type": "address"
        },
        {
          "indexed": true,
          "name": "to",
          "type": "address"
        },
        {
          "indexed": false,
          "name": "value",
          "type": "uint256"
        }
      ],
      "name": "Transfer",
      "type": "event"
    }
  ],
  "bytecode": "0x6007805460a060020a60ff021916905560e0604052602f60808190527f68747470733a2f2f766974746f6d696e61636f72692e6769746875622e696f2f60a09081527f65726332302d67656e657261746f72000000000000000000000000000000000060c052620000749160099190620003f1565b503480156200008257600080fd5b5060405162001f8938038062001f89833981016040908152815160208084015192840151918401805190949390930192849184918491620000c991600091860190620003f1565b508151620000df906001906020850190620003f1565b506002805460ff191660ff92909216919091179055506200012b90507f01ffc9a700000000000000000000000000000000000000000000000000000000640100000000620001ce810204565b60078054600160a060020a03191633179055620001717f4bbee2df00000000000000000000000000000000000000000000000000000000640100000000620001ce810204565b620001a57ffb9ec8ce00000000000000000000000000000000000000000000000000000000640100000000620001ce810204565b600754620001c590600160a060020a03166401000000006200023b810204565b50505062000496565b7fffffffff000000000000000000000000000000000000000000000000000000008082161415620001fe57600080fd5b7fffffffff00000000000000000000000000000000000000000000000000000000166000908152600360205260409020805460ff19166001179055565b600754600160a060020a031633146200025357600080fd5b620002a3816040805190810160405280600681526020017f6d696e7465720000000000000000000000000000000000000000000000000000815250620002a6640100000000026401000000009004565b50565b62000322826008836040518082805190602001908083835b60208310620002df5780518252601f199092019160209182019101620002be565b51815160209384036101000a6000190180199092169116179052920194855250604051938490030190922092915050640100000000620003cc810262001a521704565b81600160a060020a03167fbfec83d64eaa953f2708271a023ab9ee82057f8f3578d548c1a4ba0b5b700489826040518080602001828103825283818151815260200191508051906020019080838360005b838110156200038d57818101518382015260200162000373565b50505050905090810190601f168015620003bb5780820380516001836020036101000a031916815260200191505b509250505060405180910390a25050565b600160a060020a0316600090815260209190915260409020805460ff19166001179055565b828054600181600116156101000203166002900490600052602060002090601f016020900481019282601f106200043457805160ff191683800117855562000464565b8280016001018555821562000464579182015b828111156200046457825182559160200191906001019062000447565b506200047292915062000476565b5090565b6200049391905b808211156200047257600081556001016200047d565b90565b611ae380620004a66000396000f3006080604052600436106101a05763ffffffff7c010000000000000000000000000000000000000000000000000000000060003504166301ffc9a781146101a557806305d2035b146101db57806306fdde03146101f0578063095ea7b31461027a5780630988ca8c1461029e5780631296ee621461030757806318160ddd1461032b57806319fa8f5014610352578063217fe6c61461038457806323b872dd146103eb5780633092afd514610415578063313ce567146104365780633177029f146104615780634000aea01461048557806340c10f19146104ee57806342966c6814610512578063661884631461052a57806370a082311461054e578063715018a61461056f5780637d64bcb4146105845780638980f11f146105995780638da5cb5b146105bd57806392afc33a146105ee57806395d89b4114610603578063983b2d5614610618578063a9059cbb14610639578063b60b70841461065d578063c1d34b8914610672578063cae9ca51146106e1578063d73dd6231461074a578063d8fbe9941461076e578063dd62ed3e14610798578063f2fde38b146107bf575b600080fd5b3480156101b157600080fd5b506101c7600160e060020a0319600435166107e0565b604080519115158252519081900360200190f35b3480156101e757600080fd5b506101c76107ff565b3480156101fc57600080fd5b50610205610820565b6040805160208082528351818301528351919283929083019185019080838360005b8381101561023f578181015183820152602001610227565b50505050905090810190601f16801561026c5780820380516001836020036101000a031916815260200191505b509250505060405180910390f35b34801561028657600080fd5b506101c7600160a060020a03600435166024356108ae565b3480156102aa57600080fd5b5060408051602060046024803582810135601f8101859004850286018501909652858552610305958335600160a060020a03169536956044949193909101919081908401838280828437509497506109149650505050505050565b005b34801561031357600080fd5b506101c7600160a060020a0360043516602435610982565b34801561033757600080fd5b506103406109a6565b60408051918252519081900360200190f35b34801561035e57600080fd5b506103676109ac565b60408051600160e060020a03199092168252519081900360200190f35b34801561039057600080fd5b5060408051602060046024803582810135601f81018590048502860185019096528585526101c7958335600160a060020a03169536956044949193909101919081908401838280828437509497506109d09650505050505050565b3480156103f757600080fd5b506101c7600160a060020a0360043581169060243516604435610a3c565b34801561042157600080fd5b50610305600160a060020a0360043516610ba1565b34801561044257600080fd5b5061044b610be8565b6040805160ff9092168252519081900360200190f35b34801561046d57600080fd5b506101c7600160a060020a0360043516602435610bf1565b34801561049157600080fd5b50604080516020600460443581810135601f81018490048402850184019095528484526101c7948235600160a060020a0316946024803595369594606494920191908190840183828082843750949750610c0e9650505050505050565b3480156104fa57600080fd5b506101c7600160a060020a0360043516602435610c46565b34801561051e57600080fd5b50610305600435610d66565b34801561053657600080fd5b506101c7600160a060020a0360043516602435610d70565b34801561055a57600080fd5b50610340600160a060020a0360043516610e5f565b34801561057b57600080fd5b50610305610e7a565b34801561059057600080fd5b506101c7610ee8565b3480156105a557600080fd5b506101c7600160a060020a0360043516602435610f8e565b3480156105c957600080fd5b506105d261104a565b60408051600160a060020a039092168252519081900360200190f35b3480156105fa57600080fd5b50610205611059565b34801561060f57600080fd5b5061020561107e565b34801561062457600080fd5b50610305600160a060020a03600435166110d8565b34801561064557600080fd5b506101c7600160a060020a036004351660243561111c565b34801561066957600080fd5b506102056111eb565b34801561067e57600080fd5b50604080516020601f6064356004818101359283018490048402850184019095528184526101c794600160a060020a0381358116956024803590921695604435953695608494019181908401838280828437509497506112469650505050505050565b3480156106ed57600080fd5b50604080516020600460443581810135601f81018490048402850184019095528484526101c7948235600160a060020a03169460248035953695946064949201919081908401838280828437509497506112809650505050505050565b34801561075657600080fd5b506101c7600160a060020a0360043516602435611298565b34801561077a57600080fd5b506101c7600160a060020a0360043581169060243516604435611331565b3480156107a457600080fd5b50610340600160a060020a0360043581169060243516611357565b3480156107cb57600080fd5b50610305600160a060020a0360043516611382565b600160e060020a03191660009081526003602052604090205460ff1690565b60075474010000000000000000000000000000000000000000900460ff1681565b6000805460408051602060026001851615610100026000190190941693909304601f810184900484028201840190925281815292918301828280156108a65780601f1061087b576101008083540402835291602001916108a6565b820191906000526020600020905b81548152906001019060200180831161088957829003601f168201915b505050505081565b336000818152600660209081526040808320600160a060020a038716808552908352818420869055815186815291519394909390927f8c5be1e5ebec7d5bd14f71427d1e84f3dd0314c0f7b2291e5b200ac8c7c3b925928290030190a350600192915050565b61097e826008836040518082805190602001908083835b6020831061094a5780518252601f19909201916020918201910161092b565b51815160209384036101000a60001901801990921691161790529201948552506040519384900301909220929150506113a2565b5050565b600061099f83836020604051908101604052806000815250610c0e565b9392505050565b60055490565b7f01ffc9a70000000000000000000000000000000000000000000000000000000081565b600061099f836008846040518082805190602001908083835b60208310610a085780518252601f1990920191602091820191016109e9565b51815160209384036101000a60001901801990921691161790529201948552506040519384900301909220929150506113b7565b600160a060020a038316600090815260046020526040812054821115610a6157600080fd5b600160a060020a0384166000908152600660209081526040808320338452909152902054821115610a9157600080fd5b600160a060020a0383161515610aa657600080fd5b600160a060020a038416600090815260046020526040902054610acf908363ffffffff6113d616565b600160a060020a038086166000908152600460205260408082209390935590851681522054610b04908363ffffffff6113e816565b600160a060020a038085166000908152600460209081526040808320949094559187168152600682528281203382529091522054610b48908363ffffffff6113d616565b600160a060020a0380861660008181526006602090815260408083203384528252918290209490945580518681529051928716939192600080516020611a98833981519152929181900390910190a35060019392505050565b600754600160a060020a03163314610bb857600080fd5b610be581604080519081016040528060068152602001600080516020611a788339815191528152506113fb565b50565b60025460ff1681565b600061099f83836020604051908101604052806000815250611280565b6000610c1a848461111c565b1515610c2557600080fd5b610c313385858561150c565b1515610c3c57600080fd5b5060019392505050565b6000610c7533604080519081016040528060068152602001600080516020611a78833981519152815250610914565b60075474010000000000000000000000000000000000000000900460ff1615610c9d57600080fd5b600554610cb0908363ffffffff6113e816565b600555600160a060020a038316600090815260046020526040902054610cdc908363ffffffff6113e816565b600160a060020a038416600081815260046020908152604091829020939093558051858152905191927f0f6798a560793a54c3bcfe86a93cde1e73087d944c0ea20544137d412139688592918290030190a2604080518381529051600160a060020a03851691600091600080516020611a988339815191529181900360200190a350600192915050565b610be53382611679565b336000908152600660209081526040808320600160a060020a0386168452909152812054808310610dc457336000908152600660209081526040808320600160a060020a0388168452909152812055610df9565b610dd4818463ffffffff6113d616565b336000908152600660209081526040808320600160a060020a03891684529091529020555b336000818152600660209081526040808320600160a060020a0389168085529083529281902054815190815290519293927f8c5be1e5ebec7d5bd14f71427d1e84f3dd0314c0f7b2291e5b200ac8c7c3b925929181900390910190a35060019392505050565b600160a060020a031660009081526004602052604090205490565b600754600160a060020a03163314610e9157600080fd5b600754604051600160a060020a03909116907ff8df31144d9c2f0f6b59d69b8b98abd5459d07f2742c4df920b25aae33c6482090600090a26007805473ffffffffffffffffffffffffffffffffffffffff19169055565b600754600090600160a060020a03163314610f0257600080fd5b60075474010000000000000000000000000000000000000000900460ff1615610f2a57600080fd5b6007805474ff00000000000000000000000000000000000000001916740100000000000000000000000000000000000000001790556040517fae5184fba832cb2b1f702aca6117b8d265eaf03ad33eb133f19dde0f5920fa0890600090a150600190565b600754600090600160a060020a03163314610fa857600080fd5b600754604080517fa9059cbb000000000000000000000000000000000000000000000000000000008152600160a060020a0392831660048201526024810185905290519185169163a9059cbb916044808201926020929091908290030181600087803b15801561101757600080fd5b505af115801561102b573d6000803e3d6000fd5b505050506040513d602081101561104157600080fd5b50519392505050565b600754600160a060020a031681565b6040805180820190915260068152600080516020611a78833981519152602082015281565b60018054604080516020600284861615610100026000190190941693909304601f810184900484028201840190925281815292918301828280156108a65780601f1061087b576101008083540402835291602001916108a6565b600754600160a060020a031633146110ef57600080fd5b610be581604080519081016040528060068152602001600080516020611a78833981519152815250611768565b3360009081526004602052604081205482111561113857600080fd5b600160a060020a038316151561114d57600080fd5b3360009081526004602052604090205461116d908363ffffffff6113d616565b3360009081526004602052604080822092909255600160a060020a0385168152205461119f908363ffffffff6113e816565b600160a060020a038416600081815260046020908152604091829020939093558051858152905191923392600080516020611a988339815191529281900390910190a350600192915050565b6009805460408051602060026001851615610100026000190190941693909304601f810184900484028201840190925281815292918301828280156108a65780601f1061087b576101008083540402835291602001916108a6565b6000611253858585610a3c565b151561125e57600080fd5b61126a8585858561150c565b151561127557600080fd5b506001949350505050565b600061128c84846108ae565b50610c3184848461183a565b336000908152600660209081526040808320600160a060020a03861684529091528120546112cc908363ffffffff6113e816565b336000818152600660209081526040808320600160a060020a0389168085529083529281902085905580519485525191937f8c5be1e5ebec7d5bd14f71427d1e84f3dd0314c0f7b2291e5b200ac8c7c3b925929081900390910190a350600192915050565b600061134f8484846020604051908101604052806000815250611246565b949350505050565b600160a060020a03918216600090815260066020908152604080832093909416825291909152205490565b600754600160a060020a0316331461139957600080fd5b610be5816119aa565b6113ac82826113b7565b151561097e57600080fd5b600160a060020a03166000908152602091909152604090205460ff1690565b6000828211156113e257fe5b50900390565b818101828110156113f557fe5b92915050565b611465826008836040518082805190602001908083835b602083106114315780518252601f199092019160209182019101611412565b51815160209384036101000a6000190180199092169116179052920194855250604051938490030190922092915050611a28565b81600160a060020a03167fd211483f91fc6eff862467f8de606587a30c8fc9981056f051b897a418df803a826040518080602001828103825283818151815260200191508051906020019080838360005b838110156114ce5781810151838201526020016114b6565b50505050905090810190601f1680156114fb5780820380516001836020036101000a031916815260200191505b509250505060405180910390a25050565b60008061152185600160a060020a0316611a4a565b15156115305760009150611670565b6040517f88a7ca5c0000000000000000000000000000000000000000000000000000000081523360048201818152600160a060020a03898116602485015260448401889052608060648501908152875160848601528751918a16946388a7ca5c94938c938b938b93909160a490910190602085019080838360005b838110156115c35781810151838201526020016115ab565b50505050905090810190601f1680156115f05780820380516001836020036101000a031916815260200191505b5095505050505050602060405180830381600087803b15801561161257600080fd5b505af1158015611626573d6000803e3d6000fd5b505050506040513d602081101561163c57600080fd5b5051600160e060020a031981167f88a7ca5c0000000000000000000000000000000000000000000000000000000014925090505b50949350505050565b600160a060020a03821660009081526004602052604090205481111561169e57600080fd5b600160a060020a0382166000908152600460205260409020546116c7908263ffffffff6113d616565b600160a060020a0383166000908152600460205260409020556005546116f3908263ffffffff6113d616565b600555604080518281529051600160a060020a038416917fcc16f5dbb4873280815c1ee09dbd06736cffcc184412cf7a71a0fdb75d397ca5919081900360200190a2604080518281529051600091600160a060020a03851691600080516020611a988339815191529181900360200190a35050565b6117d2826008836040518082805190602001908083835b6020831061179e5780518252601f19909201916020918201910161177f565b51815160209384036101000a6000190180199092169116179052920194855250604051938490030190922092915050611a52565b81600160a060020a03167fbfec83d64eaa953f2708271a023ab9ee82057f8f3578d548c1a4ba0b5b70048982604051808060200182810382528381815181526020019150805190602001908083836000838110156114ce5781810151838201526020016114b6565b60008061184f85600160a060020a0316611a4a565b151561185e57600091506119a2565b84600160a060020a0316637b04a2d03386866040518463ffffffff167c01000000000000000000000000000000000000000000000000000000000281526004018084600160a060020a0316600160a060020a0316815260200183815260200180602001828103825283818151815260200191508051906020019080838360005b838110156118f65781810151838201526020016118de565b50505050905090810190601f1680156119235780820380516001836020036101000a031916815260200191505b50945050505050602060405180830381600087803b15801561194457600080fd5b505af1158015611958573d6000803e3d6000fd5b505050506040513d602081101561196e57600080fd5b5051600160e060020a031981167f7b04a2d00000000000000000000000000000000000000000000000000000000014925090505b509392505050565b600160a060020a03811615156119bf57600080fd5b600754604051600160a060020a038084169216907f8be0079c531659141344cd1fd0a4f28419497f9722a3daafe3b4186f6b6457e090600090a36007805473ffffffffffffffffffffffffffffffffffffffff1916600160a060020a0392909216919091179055565b600160a060020a0316600090815260209190915260409020805460ff19169055565b6000903b1190565b600160a060020a0316600090815260209190915260409020805460ff1916600117905556006d696e7465720000000000000000000000000000000000000000000000000000ddf252ad1be2c89b69c2b068fc378daa952ba7f163c4a11628f55a4df523b3efa165627a7a72305820c85c46f0f54989e55afc66344d9c3a07149f1fe39e15b1b7a1f1269cd053826a0029",
  "source": "pragma solidity ^0.4.24;\n\nimport \"openzeppelin-solidity/contracts/token/ERC20/DetailedERC20.sol\";\nimport \"openzeppelin-solidity/contracts/token/ERC20/RBACMintableToken.sol\";\nimport \"openzeppelin-solidity/contracts/token/ERC20/BurnableToken.sol\";\nimport \"erc-payable-token/contracts/token/ERC1363/ERC1363BasicToken.sol\";\nimport \"eth-token-recover/contracts/TokenRecover.sol\";\n\n\n// solium-disable-next-line max-len\ncontract BaseToken is DetailedERC20, RBACMintableToken, BurnableToken, ERC1363BasicToken, TokenRecover {\n\n  string public builtOn = \"https://vittominacori.github.io/erc20-generator\";\n\n  constructor(\n    string _name,\n    string _symbol,\n    uint8 _decimals\n  )\n    DetailedERC20 (_name, _symbol, _decimals)\n    public\n  {\n    addMinter(owner);\n  }\n}\n",
  "sourcePath": "/Users/vittominacori/Projects/vittominacori.github.io/erc20-generator/smart-contracts/contracts/BaseToken.sol",
  "compiler": {
    "name": "solc",
    "version": "0.4.24+commit.e67f0147.Emscripten.clang"
  },
  "schemaVersion": "2.0.1",
  "updatedAt": "2018-10-04T19:55:27.614Z"
}