{
  "contractName": "BaseToken",
  "abi": [
    {
      "constant": true,
      "inputs": [
        {
          "name": "interfaceId",
          "type": "bytes4"
        }
      ],
      "name": "supportsInterface",
      "outputs": [
        {
          "name": "",
          "type": "bool"
        }
      ],
      "payable": false,
      "stateMutability": "view",
      "type": "function"
    },
    {
      "constant": true,
      "inputs": [],
      "name": "name",
      "outputs": [
        {
          "name": "",
          "type": "string"
        }
      ],
      "payable": false,
      "stateMutability": "view",
      "type": "function"
    },
    {
      "constant": false,
      "inputs": [
        {
          "name": "spender",
          "type": "address"
        },
        {
          "name": "value",
          "type": "uint256"
        }
      ],
      "name": "approve",
      "outputs": [
        {
          "name": "",
          "type": "bool"
        }
      ],
      "payable": false,
      "stateMutability": "nonpayable",
      "type": "function"
    },
    {
      "constant": false,
      "inputs": [
        {
          "name": "to",
          "type": "address"
        },
        {
          "name": "value",
          "type": "uint256"
        }
      ],
      "name": "transferAndCall",
      "outputs": [
        {
          "name": "",
          "type": "bool"
        }
      ],
      "payable": false,
      "stateMutability": "nonpayable",
      "type": "function"
    },
    {
      "constant": true,
      "inputs": [],
      "name": "totalSupply",
      "outputs": [
        {
          "name": "",
          "type": "uint256"
        }
      ],
      "payable": false,
      "stateMutability": "view",
      "type": "function"
    },
    {
      "constant": false,
      "inputs": [
        {
          "name": "from",
          "type": "address"
        },
        {
          "name": "to",
          "type": "address"
        },
        {
          "name": "value",
          "type": "uint256"
        }
      ],
      "name": "transferFrom",
      "outputs": [
        {
          "name": "",
          "type": "bool"
        }
      ],
      "payable": false,
      "stateMutability": "nonpayable",
      "type": "function"
    },
    {
      "constant": true,
      "inputs": [],
      "name": "decimals",
      "outputs": [
        {
          "name": "",
          "type": "uint8"
        }
      ],
      "payable": false,
      "stateMutability": "view",
      "type": "function"
    },
    {
      "constant": false,
      "inputs": [
        {
          "name": "spender",
          "type": "address"
        },
        {
          "name": "value",
          "type": "uint256"
        }
      ],
      "name": "approveAndCall",
      "outputs": [
        {
          "name": "",
          "type": "bool"
        }
      ],
      "payable": false,
      "stateMutability": "nonpayable",
      "type": "function"
    },
    {
      "constant": true,
      "inputs": [],
      "name": "cap",
      "outputs": [
        {
          "name": "",
          "type": "uint256"
        }
      ],
      "payable": false,
      "stateMutability": "view",
      "type": "function"
    },
    {
      "constant": false,
      "inputs": [
        {
          "name": "spender",
          "type": "address"
        },
        {
          "name": "addedValue",
          "type": "uint256"
        }
      ],
      "name": "increaseAllowance",
      "outputs": [
        {
          "name": "",
          "type": "bool"
        }
      ],
      "payable": false,
      "stateMutability": "nonpayable",
      "type": "function"
    },
    {
      "constant": false,
      "inputs": [
        {
          "name": "to",
          "type": "address"
        },
        {
          "name": "value",
          "type": "uint256"
        },
        {
          "name": "data",
          "type": "bytes"
        }
      ],
      "name": "transferAndCall",
      "outputs": [
        {
          "name": "",
          "type": "bool"
        }
      ],
      "payable": false,
      "stateMutability": "nonpayable",
      "type": "function"
    },
    {
      "constant": false,
      "inputs": [
        {
          "name": "to",
          "type": "address"
        },
        {
          "name": "value",
          "type": "uint256"
        }
      ],
      "name": "mint",
      "outputs": [
        {
          "name": "",
          "type": "bool"
        }
      ],
      "payable": false,
      "stateMutability": "nonpayable",
      "type": "function"
    },
    {
      "constant": false,
      "inputs": [
        {
          "name": "value",
          "type": "uint256"
        }
      ],
      "name": "burn",
      "outputs": [],
      "payable": false,
      "stateMutability": "nonpayable",
      "type": "function"
    },
    {
      "constant": true,
      "inputs": [
        {
          "name": "owner",
          "type": "address"
        }
      ],
      "name": "balanceOf",
      "outputs": [
        {
          "name": "",
          "type": "uint256"
        }
      ],
      "payable": false,
      "stateMutability": "view",
      "type": "function"
    },
    {
      "constant": false,
      "inputs": [],
      "name": "renounceOwnership",
      "outputs": [],
      "payable": false,
      "stateMutability": "nonpayable",
      "type": "function"
    },
    {
      "constant": false,
      "inputs": [
        {
          "name": "from",
          "type": "address"
        },
        {
          "name": "value",
          "type": "uint256"
        }
      ],
      "name": "burnFrom",
      "outputs": [],
      "payable": false,
      "stateMutability": "nonpayable",
      "type": "function"
    },
    {
      "constant": false,
      "inputs": [
        {
          "name": "tokenAddress",
          "type": "address"
        },
        {
          "name": "tokenAmount",
          "type": "uint256"
        }
      ],
      "name": "recoverERC20",
      "outputs": [],
      "payable": false,
      "stateMutability": "nonpayable",
      "type": "function"
    },
    {
      "constant": true,
      "inputs": [],
      "name": "owner",
      "outputs": [
        {
          "name": "",
          "type": "address"
        }
      ],
      "payable": false,
      "stateMutability": "view",
      "type": "function"
    },
    {
      "constant": true,
      "inputs": [],
      "name": "isOwner",
      "outputs": [
        {
          "name": "",
          "type": "bool"
        }
      ],
      "payable": false,
      "stateMutability": "view",
      "type": "function"
    },
    {
      "constant": true,
      "inputs": [],
      "name": "symbol",
      "outputs": [
        {
          "name": "",
          "type": "string"
        }
      ],
      "payable": false,
      "stateMutability": "view",
      "type": "function"
    },
    {
      "constant": false,
      "inputs": [
        {
          "name": "account",
          "type": "address"
        }
      ],
      "name": "addMinter",
      "outputs": [],
      "payable": false,
      "stateMutability": "nonpayable",
      "type": "function"
    },
    {
      "constant": false,
      "inputs": [],
      "name": "renounceMinter",
      "outputs": [],
      "payable": false,
      "stateMutability": "nonpayable",
      "type": "function"
    },
    {
      "constant": false,
      "inputs": [
        {
          "name": "spender",
          "type": "address"
        },
        {
          "name": "subtractedValue",
          "type": "uint256"
        }
      ],
      "name": "decreaseAllowance",
      "outputs": [
        {
          "name": "",
          "type": "bool"
        }
      ],
      "payable": false,
      "stateMutability": "nonpayable",
      "type": "function"
    },
    {
      "constant": false,
      "inputs": [
        {
          "name": "to",
          "type": "address"
        },
        {
          "name": "value",
          "type": "uint256"
        }
      ],
      "name": "transfer",
      "outputs": [
        {
          "name": "",
          "type": "bool"
        }
      ],
      "payable": false,
      "stateMutability": "nonpayable",
      "type": "function"
    },
    {
      "constant": true,
      "inputs": [
        {
          "name": "account",
          "type": "address"
        }
      ],
      "name": "isMinter",
      "outputs": [
        {
          "name": "",
          "type": "bool"
        }
      ],
      "payable": false,
      "stateMutability": "view",
      "type": "function"
    },
    {
      "constant": true,
      "inputs": [],
      "name": "builtOn",
      "outputs": [
        {
          "name": "",
          "type": "string"
        }
      ],
      "payable": false,
      "stateMutability": "view",
      "type": "function"
    },
    {
      "constant": false,
      "inputs": [
        {
          "name": "from",
          "type": "address"
        },
        {
          "name": "to",
          "type": "address"
        },
        {
          "name": "value",
          "type": "uint256"
        },
        {
          "name": "data",
          "type": "bytes"
        }
      ],
      "name": "transferFromAndCall",
      "outputs": [
        {
          "name": "",
          "type": "bool"
        }
      ],
      "payable": false,
      "stateMutability": "nonpayable",
      "type": "function"
    },
    {
      "constant": false,
      "inputs": [
        {
          "name": "spender",
          "type": "address"
        },
        {
          "name": "value",
          "type": "uint256"
        },
        {
          "name": "data",
          "type": "bytes"
        }
      ],
      "name": "approveAndCall",
      "outputs": [
        {
          "name": "",
          "type": "bool"
        }
      ],
      "payable": false,
      "stateMutability": "nonpayable",
      "type": "function"
    },
    {
      "constant": false,
      "inputs": [
        {
          "name": "from",
          "type": "address"
        },
        {
          "name": "to",
          "type": "address"
        },
        {
          "name": "value",
          "type": "uint256"
        }
      ],
      "name": "transferFromAndCall",
      "outputs": [
        {
          "name": "",
          "type": "bool"
        }
      ],
      "payable": false,
      "stateMutability": "nonpayable",
      "type": "function"
    },
    {
      "constant": true,
      "inputs": [
        {
          "name": "owner",
          "type": "address"
        },
        {
          "name": "spender",
          "type": "address"
        }
      ],
      "name": "allowance",
      "outputs": [
        {
          "name": "",
          "type": "uint256"
        }
      ],
      "payable": false,
      "stateMutability": "view",
      "type": "function"
    },
    {
      "constant": false,
      "inputs": [
        {
          "name": "newOwner",
          "type": "address"
        }
      ],
      "name": "transferOwnership",
      "outputs": [],
      "payable": false,
      "stateMutability": "nonpayable",
      "type": "function"
    },
    {
      "inputs": [
        {
          "name": "name",
          "type": "string"
        },
        {
          "name": "symbol",
          "type": "string"
        },
        {
          "name": "decimals",
          "type": "uint8"
        },
        {
          "name": "cap",
          "type": "uint256"
        },
        {
          "name": "initialBalance",
          "type": "uint256"
        }
      ],
      "payable": false,
      "stateMutability": "nonpayable",
      "type": "constructor"
    },
    {
      "anonymous": false,
      "inputs": [
        {
          "indexed": true,
          "name": "previousOwner",
          "type": "address"
        },
        {
          "indexed": true,
          "name": "newOwner",
          "type": "address"
        }
      ],
      "name": "OwnershipTransferred",
      "type": "event"
    },
    {
      "anonymous": false,
      "inputs": [
        {
          "indexed": true,
          "name": "account",
          "type": "address"
        }
      ],
      "name": "MinterAdded",
      "type": "event"
    },
    {
      "anonymous": false,
      "inputs": [
        {
          "indexed": true,
          "name": "account",
          "type": "address"
        }
      ],
      "name": "MinterRemoved",
      "type": "event"
    },
    {
      "anonymous": false,
      "inputs": [
        {
          "indexed": true,
          "name": "from",
          "type": "address"
        },
        {
          "indexed": true,
          "name": "to",
          "type": "address"
        },
        {
          "indexed": false,
          "name": "value",
          "type": "uint256"
        }
      ],
      "name": "Transfer",
      "type": "event"
    },
    {
      "anonymous": false,
      "inputs": [
        {
          "indexed": true,
          "name": "owner",
          "type": "address"
        },
        {
          "indexed": true,
          "name": "spender",
          "type": "address"
        },
        {
          "indexed": false,
          "name": "value",
          "type": "uint256"
        }
      ],
      "name": "Approval",
      "type": "event"
    }
  ],
  "bytecode": "0x60e0604052602f60808190527f68747470733a2f2f766974746f6d696e61636f72692e6769746875622e696f2f60a09081527f65726332302d67656e657261746f72000000000000000000000000000000000060c0526200006491600a9190620004e0565b503480156200007257600080fd5b5060405162001b7938038062001b79833981016040908152815160208084015192840151606085015160808601519386018051909695909501949193909290918391879187918791620000cc9160009190860190620004e0565b508151620000e2906001906020850190620004e0565b506002805460ff191660ff92909216919091179055506200010e90503364010000000062000243810204565b600081116200011c57600080fd5b600755620001537f01ffc9a70000000000000000000000000000000000000000000000000000000064010000000062000295810204565b620001877f4bbee2df0000000000000000000000000000000000000000000000000000000064010000000062000295810204565b620001bb7ffb9ec8ce0000000000000000000000000000000000000000000000000000000064010000000062000295810204565b60098054600160a060020a031916331790819055604051600160a060020a0391909116906000907f8be0079c531659141344cd1fd0a4f28419497f9722a3daafe3b4186f6b6457e0908290a360008111156200023857620002386200022864010000000062000302810204565b8264010000000062000312810204565b505050505062000582565b6200025e600682640100000000620015216200036c82021704565b604051600160a060020a038216907f6ae172837ea30b801fbfcdd4108aa1d5bf8ff775444fd70256b44e6bf3dfc3f690600090a250565b7fffffffff000000000000000000000000000000000000000000000000000000008082161415620002c557600080fd5b7fffffffff00000000000000000000000000000000000000000000000000000000166000908152600860205260409020805460ff19166001179055565b600954600160a060020a03165b90565b60075462000342826200032d640100000000620003c7810204565b9064010000000062000ec0620003cd82021704565b11156200034e57600080fd5b62000368828264010000000062001475620003e782021704565b5050565b600160a060020a03811615156200038257600080fd5b620003978282640100000000620004a8810204565b15620003a257600080fd5b600160a060020a0316600090815260209190915260409020805460ff19166001179055565b60055490565b600082820183811015620003e057600080fd5b9392505050565b600160a060020a0382161515620003fd57600080fd5b6005546200041a908264010000000062000ec0620003cd82021704565b600555600160a060020a03821660009081526003602052604090205462000450908264010000000062000ec0620003cd82021704565b600160a060020a03831660008181526003602090815260408083209490945583518581529351929391927fddf252ad1be2c89b69c2b068fc378daa952ba7f163c4a11628f55a4df523b3ef9281900390910190a35050565b6000600160a060020a0382161515620004c057600080fd5b50600160a060020a03166000908152602091909152604090205460ff1690565b828054600181600116156101000203166002900490600052602060002090601f016020900481019282601f106200052357805160ff191683800117855562000553565b8280016001018555821562000553579182015b828111156200055357825182559160200191906001019062000536565b506200056192915062000565565b5090565b6200030f91905b808211156200056157600081556001016200056c565b6115e780620005926000396000f3006080604052600436106101715763ffffffff60e060020a60003504166301ffc9a7811461017657806306fdde03146101ac578063095ea7b3146102365780631296ee621461025a57806318160ddd1461027e57806323b872dd146102a5578063313ce567146102cf5780633177029f146102fa578063355274ea1461031e57806339509351146103335780634000aea01461035757806340c10f19146103c057806342966c68146103e457806370a08231146103fe578063715018a61461041f57806379cc6790146104345780638980f11f146104585780638da5cb5b1461047c5780638f32d59b146104ad57806395d89b41146104c2578063983b2d56146104d757806398650275146104f8578063a457c2d71461050d578063a9059cbb14610531578063aa271e1a14610555578063b60b708414610576578063c1d34b891461058b578063cae9ca51146105fa578063d8fbe99414610663578063dd62ed3e1461068d578063f2fde38b146106b4575b600080fd5b34801561018257600080fd5b50610198600160e060020a0319600435166106d5565b604080519115158252519081900360200190f35b3480156101b857600080fd5b506101c16106f4565b6040805160208082528351818301528351919283929083019185019080838360005b838110156101fb5781810151838201526020016101e3565b50505050905090810190601f1680156102285780820380516001836020036101000a031916815260200191505b509250505060405180910390f35b34801561024257600080fd5b50610198600160a060020a036004351660243561078a565b34801561026657600080fd5b50610198600160a060020a0360043516602435610808565b34801561028a57600080fd5b5061029361082c565b60408051918252519081900360200190f35b3480156102b157600080fd5b50610198600160a060020a0360043581169060243516604435610832565b3480156102db57600080fd5b506102e46108cf565b6040805160ff9092168252519081900360200190f35b34801561030657600080fd5b50610198600160a060020a03600435166024356108d8565b34801561032a57600080fd5b506102936108f5565b34801561033f57600080fd5b50610198600160a060020a03600435166024356108fb565b34801561036357600080fd5b50604080516020600460443581810135601f8101849004840285018401909552848452610198948235600160a060020a03169460248035953695946064949201919081908401838280828437509497506109ab9650505050505050565b3480156103cc57600080fd5b50610198600160a060020a03600435166024356109d9565b3480156103f057600080fd5b506103fc600435610a02565b005b34801561040a57600080fd5b50610293600160a060020a0360043516610a0f565b34801561042b57600080fd5b506103fc610a2a565b34801561044057600080fd5b506103fc600160a060020a0360043516602435610a94565b34801561046457600080fd5b506103fc600160a060020a0360043516602435610aa2565b34801561048857600080fd5b50610491610b4f565b60408051600160a060020a039092168252519081900360200190f35b3480156104b957600080fd5b50610198610b5e565b3480156104ce57600080fd5b506101c1610b6f565b3480156104e357600080fd5b506103fc600160a060020a0360043516610bcf565b34801561050457600080fd5b506103fc610bec565b34801561051957600080fd5b50610198600160a060020a0360043516602435610bf7565b34801561053d57600080fd5b50610198600160a060020a0360043516602435610c42565b34801561056157600080fd5b50610198600160a060020a0360043516610c4f565b34801561058257600080fd5b506101c1610c68565b34801561059757600080fd5b50604080516020601f60643560048181013592830184900484028501840190955281845261019894600160a060020a038135811695602480359092169560443595369560849401918190840183828082843750949750610cf69650505050505050565b34801561060657600080fd5b50604080516020600460443581810135601f8101849004840285018401909552848452610198948235600160a060020a0316946024803595369594606494920191908190840183828082843750949750610d309650505050505050565b34801561066f57600080fd5b50610198600160a060020a0360043581169060243516604435610d48565b34801561069957600080fd5b50610293600160a060020a0360043581169060243516610d6e565b3480156106c057600080fd5b506103fc600160a060020a0360043516610d99565b600160e060020a03191660009081526008602052604090205460ff1690565b60008054604080516020601f60026000196101006001881615020190951694909404938401819004810282018101909252828152606093909290918301828280156107805780601f1061075557610100808354040283529160200191610780565b820191906000526020600020905b81548152906001019060200180831161076357829003601f168201915b5050505050905090565b6000600160a060020a03831615156107a157600080fd5b336000818152600460209081526040808320600160a060020a03881680855290835292819020869055805186815290519293927f8c5be1e5ebec7d5bd14f71427d1e84f3dd0314c0f7b2291e5b200ac8c7c3b925929181900390910190a350600192915050565b6000610825838360206040519081016040528060008152506109ab565b9392505050565b60055490565b600160a060020a038316600090815260046020908152604080832033845290915281205482111561086257600080fd5b600160a060020a0384166000908152600460209081526040808320338452909152902054610896908363ffffffff610db516565b600160a060020a03851660009081526004602090815260408083203384529091529020556108c5848484610dcc565b5060019392505050565b60025460ff1690565b600061082583836020604051908101604052806000815250610d30565b60075490565b6000600160a060020a038316151561091257600080fd5b336000908152600460209081526040808320600160a060020a0387168452909152902054610946908363ffffffff610ec016565b336000818152600460209081526040808320600160a060020a0389168085529083529281902085905580519485525191937f8c5be1e5ebec7d5bd14f71427d1e84f3dd0314c0f7b2291e5b200ac8c7c3b925929081900390910190a350600192915050565b60006109b78484610c42565b15156109c257600080fd5b6109ce33858585610ed2565b15156108c557600080fd5b60006109e433610c4f565b15156109ef57600080fd5b6109f9838361103f565b50600192915050565b610a0c338261106f565b50565b600160a060020a031660009081526003602052604090205490565b610a32610b5e565b1515610a3d57600080fd5b600954604051600091600160a060020a0316907f8be0079c531659141344cd1fd0a4f28419497f9722a3daafe3b4186f6b6457e0908390a36009805473ffffffffffffffffffffffffffffffffffffffff19169055565b610a9e828261113f565b5050565b610aaa610b5e565b1515610ab557600080fd5b81600160a060020a031663a9059cbb610acc610b4f565b836040518363ffffffff1660e060020a0281526004018083600160a060020a0316600160a060020a0316815260200182815260200192505050602060405180830381600087803b158015610b1f57600080fd5b505af1158015610b33573d6000803e3d6000fd5b505050506040513d6020811015610b4957600080fd5b50505050565b600954600160a060020a031690565b600954600160a060020a0316331490565b60018054604080516020601f600260001961010087891615020190951694909404938401819004810282018101909252828152606093909290918301828280156107805780601f1061075557610100808354040283529160200191610780565b610bd833610c4f565b1515610be357600080fd5b610a0c816111d1565b610bf533611219565b565b6000600160a060020a0383161515610c0e57600080fd5b336000908152600460209081526040808320600160a060020a0387168452909152902054610946908363ffffffff610db516565b60006109f9338484610dcc565b6000610c6260068363ffffffff61126116565b92915050565b600a805460408051602060026001851615610100026000190190941693909304601f81018490048402820184019092528181529291830182828015610cee5780601f10610cc357610100808354040283529160200191610cee565b820191906000526020600020905b815481529060010190602001808311610cd157829003601f168201915b505050505081565b6000610d03858585610832565b1515610d0e57600080fd5b610d1a85858585610ed2565b1515610d2557600080fd5b506001949350505050565b6000610d3c848461078a565b506109ce848484611298565b6000610d668484846020604051908101604052806000815250610cf6565b949350505050565b600160a060020a03918216600090815260046020908152604080832093909416825291909152205490565b610da1610b5e565b1515610dac57600080fd5b610a0c816113ef565b60008083831115610dc557600080fd5b5050900390565b600160a060020a038316600090815260036020526040902054811115610df157600080fd5b600160a060020a0382161515610e0657600080fd5b600160a060020a038316600090815260036020526040902054610e2f908263ffffffff610db516565b600160a060020a038085166000908152600360205260408082209390935590841681522054610e64908263ffffffff610ec016565b600160a060020a0380841660008181526003602090815260409182902094909455805185815290519193928716927fddf252ad1be2c89b69c2b068fc378daa952ba7f163c4a11628f55a4df523b3ef92918290030190a3505050565b60008282018381101561082557600080fd5b600080610ee785600160a060020a031661146d565b1515610ef65760009150611036565b6040517f88a7ca5c0000000000000000000000000000000000000000000000000000000081523360048201818152600160a060020a03898116602485015260448401889052608060648501908152875160848601528751918a16946388a7ca5c94938c938b938b93909160a490910190602085019080838360005b83811015610f89578181015183820152602001610f71565b50505050905090810190601f168015610fb65780820380516001836020036101000a031916815260200191505b5095505050505050602060405180830381600087803b158015610fd857600080fd5b505af1158015610fec573d6000803e3d6000fd5b505050506040513d602081101561100257600080fd5b5051600160e060020a031981167f88a7ca5c0000000000000000000000000000000000000000000000000000000014925090505b50949350505050565b60075461105a8261104e61082c565b9063ffffffff610ec016565b111561106557600080fd5b610a9e8282611475565b600160a060020a038216151561108457600080fd5b600160a060020a0382166000908152600360205260409020548111156110a957600080fd5b6005546110bc908263ffffffff610db516565b600555600160a060020a0382166000908152600360205260409020546110e8908263ffffffff610db516565b600160a060020a0383166000818152600360209081526040808320949094558351858152935191937fddf252ad1be2c89b69c2b068fc378daa952ba7f163c4a11628f55a4df523b3ef929081900390910190a35050565b600160a060020a038216600090815260046020908152604080832033845290915290205481111561116f57600080fd5b600160a060020a03821660009081526004602090815260408083203384529091529020546111a3908263ffffffff610db516565b600160a060020a0383166000908152600460209081526040808320338452909152902055610a9e828261106f565b6111e260068263ffffffff61152116565b604051600160a060020a038216907f6ae172837ea30b801fbfcdd4108aa1d5bf8ff775444fd70256b44e6bf3dfc3f690600090a250565b61122a60068263ffffffff61156f16565b604051600160a060020a038216907fe94479a9f7e1952cc78f2d6baab678adc1b772d936c6583def489e524cb6669290600090a250565b6000600160a060020a038216151561127857600080fd5b50600160a060020a03166000908152602091909152604090205460ff1690565b6000806112ad85600160a060020a031661146d565b15156112bc57600091506113e7565b84600160a060020a0316637b04a2d03386866040518463ffffffff1660e060020a0281526004018084600160a060020a0316600160a060020a0316815260200183815260200180602001828103825283818151815260200191508051906020019080838360005b8381101561133b578181015183820152602001611323565b50505050905090810190601f1680156113685780820380516001836020036101000a031916815260200191505b50945050505050602060405180830381600087803b15801561138957600080fd5b505af115801561139d573d6000803e3d6000fd5b505050506040513d60208110156113b357600080fd5b5051600160e060020a031981167f7b04a2d00000000000000000000000000000000000000000000000000000000014925090505b509392505050565b600160a060020a038116151561140457600080fd5b600954604051600160a060020a038084169216907f8be0079c531659141344cd1fd0a4f28419497f9722a3daafe3b4186f6b6457e090600090a36009805473ffffffffffffffffffffffffffffffffffffffff1916600160a060020a0392909216919091179055565b6000903b1190565b600160a060020a038216151561148a57600080fd5b60055461149d908263ffffffff610ec016565b600555600160a060020a0382166000908152600360205260409020546114c9908263ffffffff610ec016565b600160a060020a03831660008181526003602090815260408083209490945583518581529351929391927fddf252ad1be2c89b69c2b068fc378daa952ba7f163c4a11628f55a4df523b3ef9281900390910190a35050565b600160a060020a038116151561153657600080fd5b6115408282611261565b1561154a57600080fd5b600160a060020a0316600090815260209190915260409020805460ff19166001179055565b600160a060020a038116151561158457600080fd5b61158e8282611261565b151561159957600080fd5b600160a060020a0316600090815260209190915260409020805460ff191690555600a165627a7a72305820dbcc24d8245b945ac1d2f1e96e8e52bd60b5ea7b4bb99f58239bab6defe5423e0029",
  "source": "pragma solidity ^0.4.24;\n\nimport \"openzeppelin-solidity/contracts/token/ERC20/ERC20Detailed.sol\";\nimport \"openzeppelin-solidity/contracts/token/ERC20/ERC20Capped.sol\";\nimport \"openzeppelin-solidity/contracts/token/ERC20/ERC20Burnable.sol\";\nimport \"erc-payable-token/contracts/token/ERC1363/ERC1363.sol\";\nimport \"eth-token-recover/contracts/TokenRecover.sol\";\n\n/**\n * @title BaseToken\n * @author Vittorio Minacori (https://github.com/vittominacori)\n * @dev Implementation of a BaseToken\n */\ncontract BaseToken is ERC20Detailed, ERC20Capped, ERC20Burnable, ERC1363, TokenRecover { // solium-disable-line max-len\n\n  string public builtOn = \"https://vittominacori.github.io/erc20-generator\";\n\n  constructor(\n    string name,\n    string symbol,\n    uint8 decimals,\n    uint256 cap,\n    uint256 initialBalance\n  )\n    ERC20Detailed(name, symbol, decimals)\n    ERC20Capped(cap)\n    public\n  {\n    if (initialBalance > 0) {\n      _mint(owner(), initialBalance);\n    }\n  }\n}\n",
  "sourcePath": "/Users/vittominacori/Projects/vittominacori.github.io/erc20-generator/erc20-generator-smartcontracts/contracts/BaseToken.sol",
  "compiler": {
    "name": "solc",
    "version": "0.4.24+commit.e67f0147.Emscripten.clang"
  },
  "schemaVersion": "2.0.1",
  "updatedAt": "2018-12-03T18:02:39.270Z"
}