{
  "contractName": "ERC20Token",
  "abi": [
    {
      "constant": true,
      "inputs": [],
      "name": "mintingFinished",
      "outputs": [
        {
          "name": "",
          "type": "bool"
        }
      ],
      "payable": false,
      "stateMutability": "view",
      "type": "function"
    },
    {
      "constant": true,
      "inputs": [],
      "name": "name",
      "outputs": [
        {
          "name": "",
          "type": "string"
        }
      ],
      "payable": false,
      "stateMutability": "view",
      "type": "function"
    },
    {
      "constant": false,
      "inputs": [
        {
          "name": "spender",
          "type": "address"
        },
        {
          "name": "value",
          "type": "uint256"
        }
      ],
      "name": "approve",
      "outputs": [
        {
          "name": "",
          "type": "bool"
        }
      ],
      "payable": false,
      "stateMutability": "nonpayable",
      "type": "function"
    },
    {
      "constant": true,
      "inputs": [],
      "name": "totalSupply",
      "outputs": [
        {
          "name": "",
          "type": "uint256"
        }
      ],
      "payable": false,
      "stateMutability": "view",
      "type": "function"
    },
    {
      "constant": false,
      "inputs": [
        {
          "name": "from",
          "type": "address"
        },
        {
          "name": "to",
          "type": "address"
        },
        {
          "name": "value",
          "type": "uint256"
        }
      ],
      "name": "transferFrom",
      "outputs": [
        {
          "name": "",
          "type": "bool"
        }
      ],
      "payable": false,
      "stateMutability": "nonpayable",
      "type": "function"
    },
    {
      "constant": false,
      "inputs": [],
      "name": "renounceOperator",
      "outputs": [],
      "payable": false,
      "stateMutability": "nonpayable",
      "type": "function"
    },
    {
      "constant": false,
      "inputs": [
        {
          "name": "account",
          "type": "address"
        }
      ],
      "name": "removeMinter",
      "outputs": [],
      "payable": false,
      "stateMutability": "nonpayable",
      "type": "function"
    },
    {
      "constant": true,
      "inputs": [],
      "name": "decimals",
      "outputs": [
        {
          "name": "",
          "type": "uint8"
        }
      ],
      "payable": false,
      "stateMutability": "view",
      "type": "function"
    },
    {
      "constant": true,
      "inputs": [],
      "name": "cap",
      "outputs": [
        {
          "name": "",
          "type": "uint256"
        }
      ],
      "payable": false,
      "stateMutability": "view",
      "type": "function"
    },
    {
      "constant": false,
      "inputs": [
        {
          "name": "spender",
          "type": "address"
        },
        {
          "name": "addedValue",
          "type": "uint256"
        }
      ],
      "name": "increaseAllowance",
      "outputs": [
        {
          "name": "",
          "type": "bool"
        }
      ],
      "payable": false,
      "stateMutability": "nonpayable",
      "type": "function"
    },
    {
      "constant": false,
      "inputs": [
        {
          "name": "to",
          "type": "address"
        },
        {
          "name": "value",
          "type": "uint256"
        }
      ],
      "name": "mint",
      "outputs": [
        {
          "name": "",
          "type": "bool"
        }
      ],
      "payable": false,
      "stateMutability": "nonpayable",
      "type": "function"
    },
    {
      "constant": false,
      "inputs": [
        {
          "name": "amount",
          "type": "uint256"
        }
      ],
      "name": "burn",
      "outputs": [],
      "payable": false,
      "stateMutability": "nonpayable",
      "type": "function"
    },
    {
      "constant": true,
      "inputs": [],
      "name": "transferEnabled",
      "outputs": [
        {
          "name": "",
          "type": "bool"
        }
      ],
      "payable": false,
      "stateMutability": "view",
      "type": "function"
    },
    {
      "constant": true,
      "inputs": [
        {
          "name": "account",
          "type": "address"
        }
      ],
      "name": "isOperator",
      "outputs": [
        {
          "name": "",
          "type": "bool"
        }
      ],
      "payable": false,
      "stateMutability": "view",
      "type": "function"
    },
    {
      "constant": true,
      "inputs": [
        {
          "name": "account",
          "type": "address"
        }
      ],
      "name": "balanceOf",
      "outputs": [
        {
          "name": "",
          "type": "uint256"
        }
      ],
      "payable": false,
      "stateMutability": "view",
      "type": "function"
    },
    {
      "constant": false,
      "inputs": [],
      "name": "renounceOwnership",
      "outputs": [],
      "payable": false,
      "stateMutability": "nonpayable",
      "type": "function"
    },
    {
      "constant": false,
      "inputs": [
        {
          "name": "account",
          "type": "address"
        },
        {
          "name": "amount",
          "type": "uint256"
        }
      ],
      "name": "burnFrom",
      "outputs": [],
      "payable": false,
      "stateMutability": "nonpayable",
      "type": "function"
    },
    {
      "constant": false,
      "inputs": [],
      "name": "finishMinting",
      "outputs": [],
      "payable": false,
      "stateMutability": "nonpayable",
      "type": "function"
    },
    {
      "constant": false,
      "inputs": [
        {
          "name": "tokenAddress",
          "type": "address"
        },
        {
          "name": "tokenAmount",
          "type": "uint256"
        }
      ],
      "name": "recoverERC20",
      "outputs": [],
      "payable": false,
      "stateMutability": "nonpayable",
      "type": "function"
    },
    {
      "constant": true,
      "inputs": [],
      "name": "owner",
      "outputs": [
        {
          "name": "",
          "type": "address"
        }
      ],
      "payable": false,
      "stateMutability": "view",
      "type": "function"
    },
    {
      "constant": true,
      "inputs": [],
      "name": "isOwner",
      "outputs": [
        {
          "name": "",
          "type": "bool"
        }
      ],
      "payable": false,
      "stateMutability": "view",
      "type": "function"
    },
    {
      "constant": true,
      "inputs": [],
      "name": "symbol",
      "outputs": [
        {
          "name": "",
          "type": "string"
        }
      ],
      "payable": false,
      "stateMutability": "view",
      "type": "function"
    },
    {
      "constant": false,
      "inputs": [
        {
          "name": "account",
          "type": "address"
        }
      ],
      "name": "addMinter",
      "outputs": [],
      "payable": false,
      "stateMutability": "nonpayable",
      "type": "function"
    },
    {
      "constant": false,
      "inputs": [],
      "name": "renounceMinter",
      "outputs": [],
      "payable": false,
      "stateMutability": "nonpayable",
      "type": "function"
    },
    {
      "constant": false,
      "inputs": [
        {
          "name": "account",
          "type": "address"
        }
      ],
      "name": "addOperator",
      "outputs": [],
      "payable": false,
      "stateMutability": "nonpayable",
      "type": "function"
    },
    {
      "constant": false,
      "inputs": [
        {
          "name": "spender",
          "type": "address"
        },
        {
          "name": "subtractedValue",
          "type": "uint256"
        }
      ],
      "name": "decreaseAllowance",
      "outputs": [
        {
          "name": "",
          "type": "bool"
        }
      ],
      "payable": false,
      "stateMutability": "nonpayable",
      "type": "function"
    },
    {
      "constant": false,
      "inputs": [
        {
          "name": "to",
          "type": "address"
        },
        {
          "name": "value",
          "type": "uint256"
        }
      ],
      "name": "transfer",
      "outputs": [
        {
          "name": "",
          "type": "bool"
        }
      ],
      "payable": false,
      "stateMutability": "nonpayable",
      "type": "function"
    },
    {
      "constant": true,
      "inputs": [
        {
          "name": "account",
          "type": "address"
        }
      ],
      "name": "isMinter",
      "outputs": [
        {
          "name": "",
          "type": "bool"
        }
      ],
      "payable": false,
      "stateMutability": "view",
      "type": "function"
    },
    {
      "constant": false,
      "inputs": [
        {
          "name": "account",
          "type": "address"
        }
      ],
      "name": "removeOperator",
      "outputs": [],
      "payable": false,
      "stateMutability": "nonpayable",
      "type": "function"
    },
    {
      "constant": true,
      "inputs": [],
      "name": "builtOn",
      "outputs": [
        {
          "name": "",
          "type": "string"
        }
      ],
      "payable": false,
      "stateMutability": "view",
      "type": "function"
    },
    {
      "constant": true,
      "inputs": [
        {
          "name": "owner",
          "type": "address"
        },
        {
          "name": "spender",
          "type": "address"
        }
      ],
      "name": "allowance",
      "outputs": [
        {
          "name": "",
          "type": "uint256"
        }
      ],
      "payable": false,
      "stateMutability": "view",
      "type": "function"
    },
    {
      "constant": false,
      "inputs": [],
      "name": "enableTransfer",
      "outputs": [],
      "payable": false,
      "stateMutability": "nonpayable",
      "type": "function"
    },
    {
      "constant": false,
      "inputs": [
        {
          "name": "newOwner",
          "type": "address"
        }
      ],
      "name": "transferOwnership",
      "outputs": [],
      "payable": false,
      "stateMutability": "nonpayable",
      "type": "function"
    },
    {
      "inputs": [
        {
          "name": "name",
          "type": "string"
        },
        {
          "name": "symbol",
          "type": "string"
        },
        {
          "name": "decimals",
          "type": "uint8"
        },
        {
          "name": "cap",
          "type": "uint256"
        },
        {
          "name": "initialSupply",
          "type": "uint256"
        }
      ],
      "payable": false,
      "stateMutability": "nonpayable",
      "type": "constructor"
    },
    {
      "anonymous": false,
      "inputs": [],
      "name": "MintFinished",
      "type": "event"
    },
    {
      "anonymous": false,
      "inputs": [],
      "name": "TransferEnabled",
      "type": "event"
    },
    {
      "anonymous": false,
      "inputs": [
        {
          "indexed": true,
          "name": "previousOwner",
          "type": "address"
        },
        {
          "indexed": true,
          "name": "newOwner",
          "type": "address"
        }
      ],
      "name": "OwnershipTransferred",
      "type": "event"
    },
    {
      "anonymous": false,
      "inputs": [
        {
          "indexed": true,
          "name": "account",
          "type": "address"
        }
      ],
      "name": "OperatorAdded",
      "type": "event"
    },
    {
      "anonymous": false,
      "inputs": [
        {
          "indexed": true,
          "name": "account",
          "type": "address"
        }
      ],
      "name": "OperatorRemoved",
      "type": "event"
    },
    {
      "anonymous": false,
      "inputs": [
        {
          "indexed": true,
          "name": "account",
          "type": "address"
        }
      ],
      "name": "MinterAdded",
      "type": "event"
    },
    {
      "anonymous": false,
      "inputs": [
        {
          "indexed": true,
          "name": "account",
          "type": "address"
        }
      ],
      "name": "MinterRemoved",
      "type": "event"
    },
    {
      "anonymous": false,
      "inputs": [
        {
          "indexed": true,
          "name": "from",
          "type": "address"
        },
        {
          "indexed": true,
          "name": "to",
          "type": "address"
        },
        {
          "indexed": false,
          "name": "value",
          "type": "uint256"
        }
      ],
      "name": "Transfer",
      "type": "event"
    },
    {
      "anonymous": false,
      "inputs": [
        {
          "indexed": true,
          "name": "owner",
          "type": "address"
        },
        {
          "indexed": true,
          "name": "spender",
          "type": "address"
        },
        {
          "indexed": false,
          "name": "value",
          "type": "uint256"
        }
      ],
      "name": "Approval",
      "type": "event"
    }
  ],
  "bytecode": "0x60098054600160a01b61ffff021916905560e0604052602f6080818152906200206f60a03980516200003a91600a91602090910190620006bb565b503480156200004857600080fd5b506040516200209e3803806200209e833981018060405260a08110156200006e57600080fd5b8101908080516401000000008111156200008757600080fd5b820160208101848111156200009b57600080fd5b8151640100000000811182820187101715620000b657600080fd5b50509291906020018051640100000000811115620000d357600080fd5b82016020810184811115620000e757600080fd5b81516401000000008111828201871017156200010257600080fd5b505060208083015160408401516060909401518751939650909450918691869186918691869183918791879187916200014191600091860190620006bb565b50815162000157906001906020850190620006bb565b506002805460ff191660ff9290921691909117905550620001819050336200028a602090811b901c565b60008111620001f157604080517f08c379a000000000000000000000000000000000000000000000000000000000815260206004820152601560248201527f45524332304361707065643a2063617020697320300000000000000000000000604482015290519081900360640190fd5b6007556200020633620002dc602090811b901c565b600980546001600160a01b0319163317908190556040516001600160a01b0391909116906000907f8be0079c531659141344cd1fd0a4f28419497f9722a3daafe3b4186f6b6457e0908290a380156200027a576200027a6200026d6200032e60201b60201c565b826200033e60201b60201c565b505050505050505050506200075d565b620002a5816006620003f360201b620015d31790919060201c565b6040516001600160a01b038216907f6ae172837ea30b801fbfcdd4108aa1d5bf8ff775444fd70256b44e6bf3dfc3f690600090a250565b620002f7816008620003f360201b620015d31790919060201c565b6040516001600160a01b038216907fac6fa858e9350a46cec16539926e0fde25b7629f84b5a72bffaae4df888ae86d90600090a250565b6009546001600160a01b03165b90565b6007546200036a82620003566200049760201b60201c565b6200049d60201b62000fc61790919060201c565b1115620003d857604080517f08c379a000000000000000000000000000000000000000000000000000000000815260206004820152601960248201527f45524332304361707065643a2063617020657863656564656400000000000000604482015290519081900360640190fd5b620003ef82826200051960201b620016571760201c565b5050565b6200040582826200063860201b60201c565b156200047257604080517f08c379a000000000000000000000000000000000000000000000000000000000815260206004820152601f60248201527f526f6c65733a206163636f756e7420616c72656164792068617320726f6c6500604482015290519081900360640190fd5b6001600160a01b0316600090815260209190915260409020805460ff19166001179055565b60055490565b6000828201838110156200051257604080517f08c379a000000000000000000000000000000000000000000000000000000000815260206004820152601b60248201527f536166654d6174683a206164646974696f6e206f766572666c6f770000000000604482015290519081900360640190fd5b9392505050565b6001600160a01b0382166200058f57604080517f08c379a000000000000000000000000000000000000000000000000000000000815260206004820152601f60248201527f45524332303a206d696e7420746f20746865207a65726f206164647265737300604482015290519081900360640190fd5b620005ab816005546200049d60201b62000fc61790919060201c565b6005556001600160a01b038216600090815260036020908152604090912054620005e091839062000fc66200049d821b17901c565b6001600160a01b03831660008181526003602090815260408083209490945583518581529351929391927fddf252ad1be2c89b69c2b068fc378daa952ba7f163c4a11628f55a4df523b3ef9281900390910190a35050565b60006001600160a01b0382166200069b576040517f08c379a00000000000000000000000000000000000000000000000000000000081526004018080602001828103825260228152602001806200204d6022913960400191505060405180910390fd5b506001600160a01b03166000908152602091909152604090205460ff1690565b828054600181600116156101000203166002900490600052602060002090601f016020900481019282601f10620006fe57805160ff19168380011785556200072e565b828001600101855582156200072e579182015b828111156200072e57825182559160200191906001019062000711565b506200073c92915062000740565b5090565b6200033b91905b808211156200073c576000815560010162000747565b6118e0806200076d6000396000f3fe608060405234801561001057600080fd5b50600436106101fb5760003560e01c806379cc67901161011a5780639870d7fe116100ad578063ac8a584a1161007c578063ac8a584a146105a2578063b60b7084146105c8578063dd62ed3e146105d0578063f1b50c1d146105fe578063f2fde38b14610606576101fb565b80639870d7fe146104fe578063a457c2d714610524578063a9059cbb14610550578063aa271e1a1461057c576101fb565b80638f32d59b116100e95780638f32d59b146104c057806395d89b41146104c8578063983b2d56146104d057806398650275146104f6576101fb565b806379cc67901461043c5780637d64bcb4146104685780638980f11f146104705780638da5cb5b1461049c576101fb565b8063355274ea116101925780634cd412d5116101615780634cd412d5146103e05780636d70f7ae146103e857806370a082311461040e578063715018a614610434576101fb565b8063355274ea14610363578063395093511461036b57806340c10f191461039757806342966c68146103c3576101fb565b806323b872dd116101ce57806323b872dd146102df5780632ab6f8db146103155780633092afd51461031f578063313ce56714610345576101fb565b806305d2035b1461020057806306fdde031461021c578063095ea7b31461029957806318160ddd146102c5575b600080fd5b61020861062c565b604080519115158252519081900360200190f35b61022461063c565b6040805160208082528351818301528351919283929083019185019080838360005b8381101561025e578181015183820152602001610246565b50505050905090810190601f16801561028b5780820380516001836020036101000a031916815260200191505b509250505060405180910390f35b610208600480360360408110156102af57600080fd5b506001600160a01b0381351690602001356106d2565b6102cd6106e8565b60408051918252519081900360200190f35b610208600480360360608110156102f557600080fd5b506001600160a01b038135811691602081013590911690604001356106ee565b61031d61072c565b005b61031d6004803603602081101561033557600080fd5b50356001600160a01b0316610737565b61034d61078d565b6040805160ff9092168252519081900360200190f35b6102cd610796565b6102086004803603604081101561038157600080fd5b506001600160a01b03813516906020013561079c565b610208600480360360408110156103ad57600080fd5b506001600160a01b0381351690602001356107dd565b61031d600480360360208110156103d957600080fd5b5035610808565b610208610812565b610208600480360360208110156103fe57600080fd5b50356001600160a01b0316610822565b6102cd6004803603602081101561042457600080fd5b50356001600160a01b031661083b565b61031d610856565b61031d6004803603604081101561045257600080fd5b506001600160a01b0381351690602001356108ea565b61031d6108f8565b61031d6004803603604081101561048657600080fd5b506001600160a01b0381351690602001356109a8565b6104a4610a89565b604080516001600160a01b039092168252519081900360200190f35b610208610a98565b610224610aa9565b61031d600480360360208110156104e657600080fd5b50356001600160a01b0316610b09565b61031d610b59565b61031d6004803603602081101561051457600080fd5b50356001600160a01b0316610b62565b6102086004803603604081101561053a57600080fd5b506001600160a01b038135169060200135610b7d565b6102086004803603604081101561056657600080fd5b506001600160a01b038135169060200135610bb9565b6102086004803603602081101561059257600080fd5b50356001600160a01b0316610bf5565b61031d600480360360208110156105b857600080fd5b50356001600160a01b0316610c08565b610224610c5b565b6102cd600480360360408110156105e657600080fd5b506001600160a01b0381358116916020013516610ce9565b61031d610d14565b61031d6004803603602081101561061c57600080fd5b50356001600160a01b0316610d9f565b600954600160a01b900460ff1690565b60008054604080516020601f60026000196101006001881615020190951694909404938401819004810282018101909252828152606093909290918301828280156106c85780601f1061069d576101008083540402835291602001916106c8565b820191906000526020600020905b8154815290600101906020018083116106ab57829003601f168201915b5050505050905090565b60006106df338484610df2565b50600192915050565b60055490565b6009546000908490600160a81b900460ff168061070f575061070f81610822565b61071857600080fd5b610723858585610ee4565b95945050505050565b61073533610f36565b565b61073f610a98565b6107815760408051600160e51b62461bcd0281526020600482018190526024820152600080516020611809833981519152604482015290519081900360640190fd5b61078a81610f7e565b50565b60025460ff1690565b60075490565b3360008181526004602090815260408083206001600160a01b038716845290915281205490916106df9185906107d8908663ffffffff610fc616565b610df2565b600954600090600160a01b900460ff16156107f757600080fd5b6108018383611023565b9392505050565b61078a3382611076565b600954600160a81b900460ff1690565b600061083560088363ffffffff61115416565b92915050565b6001600160a01b031660009081526003602052604090205490565b61085e610a98565b6108a05760408051600160e51b62461bcd0281526020600482018190526024820152600080516020611809833981519152604482015290519081900360640190fd5b6009546040516000916001600160a01b0316907f8be0079c531659141344cd1fd0a4f28419497f9722a3daafe3b4186f6b6457e0908390a3600980546001600160a01b0319169055565b6108f482826111be565b5050565b610900610a98565b6109425760408051600160e51b62461bcd0281526020600482018190526024820152600080516020611809833981519152604482015290519081900360640190fd5b600954600160a01b900460ff161561095957600080fd5b6009805474ff00000000000000000000000000000000000000001916600160a01b1790556040517fae5184fba832cb2b1f702aca6117b8d265eaf03ad33eb133f19dde0f5920fa0890600090a1565b6109b0610a98565b6109f25760408051600160e51b62461bcd0281526020600482018190526024820152600080516020611809833981519152604482015290519081900360640190fd5b816001600160a01b031663a9059cbb610a09610a89565b836040518363ffffffff1660e01b815260040180836001600160a01b03166001600160a01b0316815260200182815260200192505050602060405180830381600087803b158015610a5957600080fd5b505af1158015610a6d573d6000803e3d6000fd5b505050506040513d6020811015610a8357600080fd5b50505050565b6009546001600160a01b031690565b6009546001600160a01b0316331490565b60018054604080516020601f600260001961010087891615020190951694909404938401819004810282018101909252828152606093909290918301828280156106c85780601f1061069d576101008083540402835291602001916106c8565b610b1233610bf5565b610b5057604051600160e51b62461bcd0281526004018080602001828103825260308152602001806117b86030913960400191505060405180910390fd5b61078a81611203565b61073533610f7e565b610b6b33610822565b610b7457600080fd5b61078a8161124b565b3360008181526004602090815260408083206001600160a01b038716845290915281205490916106df9185906107d8908663ffffffff61129316565b6009546000903390600160a81b900460ff1680610bda5750610bda81610822565b610be357600080fd5b610bed84846112f3565b949350505050565b600061083560068363ffffffff61115416565b610c10610a98565b610c525760408051600160e51b62461bcd0281526020600482018190526024820152600080516020611809833981519152604482015290519081900360640190fd5b61078a81610f36565b600a805460408051602060026001851615610100026000190190941693909304601f81018490048402820184019092528181529291830182828015610ce15780601f10610cb657610100808354040283529160200191610ce1565b820191906000526020600020905b815481529060010190602001808311610cc457829003601f168201915b505050505081565b6001600160a01b03918216600090815260046020908152604080832093909416825291909152205490565b610d1c610a98565b610d5e5760408051600160e51b62461bcd0281526020600482018190526024820152600080516020611809833981519152604482015290519081900360640190fd5b60098054600160a81b60ff021916600160a81b1790556040517f75fce015c314a132947a3e42f6ab79ab8e05397dabf35b4d742dea228bbadc2d90600090a1565b610da7610a98565b610de95760408051600160e51b62461bcd0281526020600482018190526024820152600080516020611809833981519152604482015290519081900360640190fd5b61078a81611300565b6001600160a01b038316610e3a57604051600160e51b62461bcd0281526004018080602001828103825260248152602001806118916024913960400191505060405180910390fd5b6001600160a01b038216610e8257604051600160e51b62461bcd0281526004018080602001828103825260228152602001806117966022913960400191505060405180910390fd5b6001600160a01b03808416600081815260046020908152604080832094871680845294825291829020859055815185815291517f8c5be1e5ebec7d5bd14f71427d1e84f3dd0314c0f7b2291e5b200ac8c7c3b9259281900390910190a3505050565b6000610ef18484846113a4565b6001600160a01b038416600090815260046020908152604080832033808552925290912054610f2c9186916107d8908663ffffffff61129316565b5060019392505050565b610f4760088263ffffffff6114ee16565b6040516001600160a01b038216907f80c0b871b97b595b16a7741c1b06fed0c6f6f558639f18ccbce50724325dc40d90600090a250565b610f8f60068263ffffffff6114ee16565b6040516001600160a01b038216907fe94479a9f7e1952cc78f2d6baab678adc1b772d936c6583def489e524cb6669290600090a250565b6000828201838110156108015760408051600160e51b62461bcd02815260206004820152601b60248201527f536166654d6174683a206164646974696f6e206f766572666c6f770000000000604482015290519081900360640190fd5b600061102e33610bf5565b61106c57604051600160e51b62461bcd0281526004018080602001828103825260308152602001806117b86030913960400191505060405180910390fd5b6106df8383611558565b6001600160a01b0382166110be57604051600160e51b62461bcd02815260040180806020018281038252602181526020018061184b6021913960400191505060405180910390fd5b6005546110d1908263ffffffff61129316565b6005556001600160a01b0382166000908152600360205260409020546110fd908263ffffffff61129316565b6001600160a01b0383166000818152600360209081526040808320949094558351858152935191937fddf252ad1be2c89b69c2b068fc378daa952ba7f163c4a11628f55a4df523b3ef929081900390910190a35050565b60006001600160a01b03821661119e57604051600160e51b62461bcd0281526004018080602001828103825260228152602001806118296022913960400191505060405180910390fd5b506001600160a01b03166000908152602091909152604090205460ff1690565b6111c88282611076565b6001600160a01b0382166000908152600460209081526040808320338085529252909120546108f49184916107d8908563ffffffff61129316565b61121460068263ffffffff6115d316565b6040516001600160a01b038216907f6ae172837ea30b801fbfcdd4108aa1d5bf8ff775444fd70256b44e6bf3dfc3f690600090a250565b61125c60088263ffffffff6115d316565b6040516001600160a01b038216907fac6fa858e9350a46cec16539926e0fde25b7629f84b5a72bffaae4df888ae86d90600090a250565b6000828211156112ed5760408051600160e51b62461bcd02815260206004820152601e60248201527f536166654d6174683a207375627472616374696f6e206f766572666c6f770000604482015290519081900360640190fd5b50900390565b60006106df3384846113a4565b6001600160a01b03811661134857604051600160e51b62461bcd0281526004018080602001828103825260268152602001806117706026913960400191505060405180910390fd5b6009546040516001600160a01b038084169216907f8be0079c531659141344cd1fd0a4f28419497f9722a3daafe3b4186f6b6457e090600090a3600980546001600160a01b0319166001600160a01b0392909216919091179055565b6001600160a01b0383166113ec57604051600160e51b62461bcd02815260040180806020018281038252602581526020018061186c6025913960400191505060405180910390fd5b6001600160a01b03821661143457604051600160e51b62461bcd02815260040180806020018281038252602381526020018061174d6023913960400191505060405180910390fd5b6001600160a01b03831660009081526003602052604090205461145d908263ffffffff61129316565b6001600160a01b038085166000908152600360205260408082209390935590841681522054611492908263ffffffff610fc616565b6001600160a01b0380841660008181526003602090815260409182902094909455805185815290519193928716927fddf252ad1be2c89b69c2b068fc378daa952ba7f163c4a11628f55a4df523b3ef92918290030190a3505050565b6114f88282611154565b61153657604051600160e51b62461bcd0281526004018080602001828103825260218152602001806117e86021913960400191505060405180910390fd5b6001600160a01b0316600090815260209190915260409020805460ff19169055565b600754611573826115676106e8565b9063ffffffff610fc616565b11156115c95760408051600160e51b62461bcd02815260206004820152601960248201527f45524332304361707065643a2063617020657863656564656400000000000000604482015290519081900360640190fd5b6108f48282611657565b6115dd8282611154565b156116325760408051600160e51b62461bcd02815260206004820152601f60248201527f526f6c65733a206163636f756e7420616c72656164792068617320726f6c6500604482015290519081900360640190fd5b6001600160a01b0316600090815260209190915260409020805460ff19166001179055565b6001600160a01b0382166116b55760408051600160e51b62461bcd02815260206004820152601f60248201527f45524332303a206d696e7420746f20746865207a65726f206164647265737300604482015290519081900360640190fd5b6005546116c8908263ffffffff610fc616565b6005556001600160a01b0382166000908152600360205260409020546116f4908263ffffffff610fc616565b6001600160a01b03831660008181526003602090815260408083209490945583518581529351929391927fddf252ad1be2c89b69c2b068fc378daa952ba7f163c4a11628f55a4df523b3ef9281900390910190a3505056fe45524332303a207472616e7366657220746f20746865207a65726f20616464726573734f776e61626c653a206e6577206f776e657220697320746865207a65726f206164647265737345524332303a20617070726f766520746f20746865207a65726f20616464726573734d696e746572526f6c653a2063616c6c657220646f6573206e6f74206861766520746865204d696e74657220726f6c65526f6c65733a206163636f756e7420646f6573206e6f74206861766520726f6c654f776e61626c653a2063616c6c6572206973206e6f7420746865206f776e6572526f6c65733a206163636f756e7420697320746865207a65726f206164647265737345524332303a206275726e2066726f6d20746865207a65726f206164647265737345524332303a207472616e736665722066726f6d20746865207a65726f206164647265737345524332303a20617070726f76652066726f6d20746865207a65726f2061646472657373a165627a7a72305820eb2cec6a0c7b5c43000b65acad6e8ca4c8dd763b7a0aadc7753c9d5950b42b790029526f6c65733a206163636f756e7420697320746865207a65726f206164647265737368747470733a2f2f766974746f6d696e61636f72692e6769746875622e696f2f65726332302d67656e657261746f72",
  "source": "pragma solidity ^0.5.7;\n\nimport \"ico-maker/contracts/token/ERC20/BaseERC20Token.sol\";\n\n/**\n * @title ERC20Token\n * @author Vittorio Minacori (https://github.com/vittominacori)\n * @dev Implementation of a BaseERC20Token\n */\ncontract ERC20Token is BaseERC20Token {\n\n    string public builtOn = \"https://vittominacori.github.io/erc20-generator\";\n\n    constructor(\n        string memory name,\n        string memory symbol,\n        uint8 decimals,\n        uint256 cap,\n        uint256 initialSupply\n    )\n        public\n        BaseERC20Token(name, symbol, decimals, cap, initialSupply)\n    {} // solhint-disable-line no-empty-blocks\n}\n",
  "sourcePath": "/Users/vittominacori/Projects/vittominacori.github.io/erc20-generator/erc20-generator-smartcontracts/contracts/ERC20Token.sol",
  "compiler": {
    "name": "solc",
    "version": "0.5.8+commit.23d335f2.Emscripten.clang"
  },
  "schemaVersion": "3.0.9",
  "updatedAt": "2019-05-28T18:09:16.136Z",
  "devdoc": {
    "author": "Vittorio Minacori (https://github.com/vittominacori)",
    "details": "Implementation of a BaseERC20Token",
    "methods": {
      "allowance(address,address)": {
        "details": "See `IERC20.allowance`."
      },
      "approve(address,uint256)": {
        "details": "See `IERC20.approve`.     * Requirements:     * - `spender` cannot be the zero address."
      },
      "balanceOf(address)": {
        "details": "See `IERC20.balanceOf`."
      },
      "burn(uint256)": {
        "details": "Destoys `amount` tokens from the caller.     * See `ERC20._burn`."
      },
      "burnFrom(address,uint256)": {
        "details": "See `ERC20._burnFrom`."
      },
      "cap()": {
        "details": "Returns the cap on the token's total supply."
      },
      "decimals()": {
        "details": "Returns the number of decimals used to get its user representation. For example, if `decimals` equals `2`, a balance of `505` tokens should be displayed to a user as `5,05` (`505 / 10 ** 2`).     * Tokens usually opt for a value of 18, imitating the relationship between Ether and Wei.     * > Note that this information is only used for _display_ purposes: it in no way affects any of the arithmetic of the contract, including `IERC20.balanceOf` and `IERC20.transfer`."
      },
      "decreaseAllowance(address,uint256)": {
        "details": "Atomically decreases the allowance granted to `spender` by the caller.     * This is an alternative to `approve` that can be used as a mitigation for problems described in `IERC20.approve`.     * Emits an `Approval` event indicating the updated allowance.     * Requirements:     * - `spender` cannot be the zero address. - `spender` must have allowance for the caller of at least `subtractedValue`."
      },
      "enableTransfer()": {
        "details": "Function to enable transfers."
      },
      "finishMinting()": {
        "details": "Function to stop minting new tokens."
      },
      "increaseAllowance(address,uint256)": {
        "details": "Atomically increases the allowance granted to `spender` by the caller.     * This is an alternative to `approve` that can be used as a mitigation for problems described in `IERC20.approve`.     * Emits an `Approval` event indicating the updated allowance.     * Requirements:     * - `spender` cannot be the zero address."
      },
      "isOwner()": {
        "details": "Returns true if the caller is the current owner."
      },
      "mint(address,uint256)": {
        "details": "Function to mint tokens",
        "params": {
          "to": "The address that will receive the minted tokens.",
          "value": "The amount of tokens to mint."
        },
        "return": "A boolean that indicates if the operation was successful."
      },
      "mintingFinished()": {
        "return": "if minting is finished or not."
      },
      "name()": {
        "details": "Returns the name of the token."
      },
      "owner()": {
        "details": "Returns the address of the current owner."
      },
      "recoverERC20(address,uint256)": {
        "details": "Remember that only owner can call so be careful when use on contracts generated from other contracts.",
        "params": {
          "tokenAddress": "The token contract address",
          "tokenAmount": "Number of tokens to be sent"
        }
      },
      "removeMinter(address)": {
        "details": "remove the `minter` role from address",
        "params": {
          "account": "Address you want to remove role"
        }
      },
      "removeOperator(address)": {
        "details": "remove the `operator` role from address",
        "params": {
          "account": "Address you want to remove role"
        }
      },
      "renounceOwnership()": {
        "details": "Leaves the contract without owner. It will not be possible to call `onlyOwner` functions anymore. Can only be called by the current owner.     * > Note: Renouncing ownership will leave the contract without an owner, thereby removing any functionality that is only available to the owner."
      },
      "symbol()": {
        "details": "Returns the symbol of the token, usually a shorter version of the name."
      },
      "totalSupply()": {
        "details": "See `IERC20.totalSupply`."
      },
      "transfer(address,uint256)": {
        "details": "Transfer token to a specified address",
        "params": {
          "to": "The address to transfer to.",
          "value": "The amount to be transferred."
        },
        "return": "A boolean that indicates if the operation was successful."
      },
      "transferEnabled()": {
        "return": "if transfer is enabled or not."
      },
      "transferFrom(address,address,uint256)": {
        "details": "Transfer tokens from one address to another.",
        "params": {
          "from": "address The address which you want to send tokens from",
          "to": "address The address which you want to transfer to",
          "value": "uint256 the amount of tokens to be transferred"
        },
        "return": "A boolean that indicates if the operation was successful."
      },
      "transferOwnership(address)": {
        "details": "Transfers ownership of the contract to a new account (`newOwner`). Can only be called by the current owner."
      }
    },
    "title": "ERC20Token"
  },
  "userdoc": {
    "methods": {}
  }
}