{
  "contractName": "ERC20Token",
  "abi": [
    {
      "inputs": [
        {
          "internalType": "string",
          "name": "name",
          "type": "string"
        },
        {
          "internalType": "string",
          "name": "symbol",
          "type": "string"
        },
        {
          "internalType": "uint8",
          "name": "decimals",
          "type": "uint8"
        },
        {
          "internalType": "uint256",
          "name": "cap",
          "type": "uint256"
        },
        {
          "internalType": "uint256",
          "name": "initialSupply",
          "type": "uint256"
        },
        {
          "internalType": "bool",
          "name": "transferEnabled",
          "type": "bool"
        }
      ],
      "payable": false,
      "stateMutability": "nonpayable",
      "type": "constructor"
    },
    {
      "anonymous": false,
      "inputs": [
        {
          "indexed": true,
          "internalType": "address",
          "name": "owner",
          "type": "address"
        },
        {
          "indexed": true,
          "internalType": "address",
          "name": "spender",
          "type": "address"
        },
        {
          "indexed": false,
          "internalType": "uint256",
          "name": "value",
          "type": "uint256"
        }
      ],
      "name": "Approval",
      "type": "event"
    },
    {
      "anonymous": false,
      "inputs": [],
      "name": "MintFinished",
      "type": "event"
    },
    {
      "anonymous": false,
      "inputs": [
        {
          "indexed": true,
          "internalType": "address",
          "name": "account",
          "type": "address"
        }
      ],
      "name": "MinterAdded",
      "type": "event"
    },
    {
      "anonymous": false,
      "inputs": [
        {
          "indexed": true,
          "internalType": "address",
          "name": "account",
          "type": "address"
        }
      ],
      "name": "MinterRemoved",
      "type": "event"
    },
    {
      "anonymous": false,
      "inputs": [
        {
          "indexed": true,
          "internalType": "address",
          "name": "account",
          "type": "address"
        }
      ],
      "name": "OperatorAdded",
      "type": "event"
    },
    {
      "anonymous": false,
      "inputs": [
        {
          "indexed": true,
          "internalType": "address",
          "name": "account",
          "type": "address"
        }
      ],
      "name": "OperatorRemoved",
      "type": "event"
    },
    {
      "anonymous": false,
      "inputs": [
        {
          "indexed": true,
          "internalType": "address",
          "name": "previousOwner",
          "type": "address"
        },
        {
          "indexed": true,
          "internalType": "address",
          "name": "newOwner",
          "type": "address"
        }
      ],
      "name": "OwnershipTransferred",
      "type": "event"
    },
    {
      "anonymous": false,
      "inputs": [
        {
          "indexed": true,
          "internalType": "address",
          "name": "from",
          "type": "address"
        },
        {
          "indexed": true,
          "internalType": "address",
          "name": "to",
          "type": "address"
        },
        {
          "indexed": false,
          "internalType": "uint256",
          "name": "value",
          "type": "uint256"
        }
      ],
      "name": "Transfer",
      "type": "event"
    },
    {
      "anonymous": false,
      "inputs": [],
      "name": "TransferEnabled",
      "type": "event"
    },
    {
      "constant": false,
      "inputs": [
        {
          "internalType": "address",
          "name": "account",
          "type": "address"
        }
      ],
      "name": "addMinter",
      "outputs": [],
      "payable": false,
      "stateMutability": "nonpayable",
      "type": "function"
    },
    {
      "constant": false,
      "inputs": [
        {
          "internalType": "address",
          "name": "account",
          "type": "address"
        }
      ],
      "name": "addOperator",
      "outputs": [],
      "payable": false,
      "stateMutability": "nonpayable",
      "type": "function"
    },
    {
      "constant": true,
      "inputs": [
        {
          "internalType": "address",
          "name": "owner",
          "type": "address"
        },
        {
          "internalType": "address",
          "name": "spender",
          "type": "address"
        }
      ],
      "name": "allowance",
      "outputs": [
        {
          "internalType": "uint256",
          "name": "",
          "type": "uint256"
        }
      ],
      "payable": false,
      "stateMutability": "view",
      "type": "function"
    },
    {
      "constant": false,
      "inputs": [
        {
          "internalType": "address",
          "name": "spender",
          "type": "address"
        },
        {
          "internalType": "uint256",
          "name": "amount",
          "type": "uint256"
        }
      ],
      "name": "approve",
      "outputs": [
        {
          "internalType": "bool",
          "name": "",
          "type": "bool"
        }
      ],
      "payable": false,
      "stateMutability": "nonpayable",
      "type": "function"
    },
    {
      "constant": false,
      "inputs": [
        {
          "internalType": "address",
          "name": "spender",
          "type": "address"
        },
        {
          "internalType": "uint256",
          "name": "value",
          "type": "uint256"
        }
      ],
      "name": "approveAndCall",
      "outputs": [
        {
          "internalType": "bool",
          "name": "",
          "type": "bool"
        }
      ],
      "payable": false,
      "stateMutability": "nonpayable",
      "type": "function"
    },
    {
      "constant": false,
      "inputs": [
        {
          "internalType": "address",
          "name": "spender",
          "type": "address"
        },
        {
          "internalType": "uint256",
          "name": "value",
          "type": "uint256"
        },
        {
          "internalType": "bytes",
          "name": "data",
          "type": "bytes"
        }
      ],
      "name": "approveAndCall",
      "outputs": [
        {
          "internalType": "bool",
          "name": "",
          "type": "bool"
        }
      ],
      "payable": false,
      "stateMutability": "nonpayable",
      "type": "function"
    },
    {
      "constant": true,
      "inputs": [
        {
          "internalType": "address",
          "name": "account",
          "type": "address"
        }
      ],
      "name": "balanceOf",
      "outputs": [
        {
          "internalType": "uint256",
          "name": "",
          "type": "uint256"
        }
      ],
      "payable": false,
      "stateMutability": "view",
      "type": "function"
    },
    {
      "constant": true,
      "inputs": [],
      "name": "builtOn",
      "outputs": [
        {
          "internalType": "string",
          "name": "",
          "type": "string"
        }
      ],
      "payable": false,
      "stateMutability": "view",
      "type": "function"
    },
    {
      "constant": false,
      "inputs": [
        {
          "internalType": "uint256",
          "name": "amount",
          "type": "uint256"
        }
      ],
      "name": "burn",
      "outputs": [],
      "payable": false,
      "stateMutability": "nonpayable",
      "type": "function"
    },
    {
      "constant": false,
      "inputs": [
        {
          "internalType": "address",
          "name": "account",
          "type": "address"
        },
        {
          "internalType": "uint256",
          "name": "amount",
          "type": "uint256"
        }
      ],
      "name": "burnFrom",
      "outputs": [],
      "payable": false,
      "stateMutability": "nonpayable",
      "type": "function"
    },
    {
      "constant": true,
      "inputs": [],
      "name": "cap",
      "outputs": [
        {
          "internalType": "uint256",
          "name": "",
          "type": "uint256"
        }
      ],
      "payable": false,
      "stateMutability": "view",
      "type": "function"
    },
    {
      "constant": true,
      "inputs": [],
      "name": "decimals",
      "outputs": [
        {
          "internalType": "uint8",
          "name": "",
          "type": "uint8"
        }
      ],
      "payable": false,
      "stateMutability": "view",
      "type": "function"
    },
    {
      "constant": false,
      "inputs": [
        {
          "internalType": "address",
          "name": "spender",
          "type": "address"
        },
        {
          "internalType": "uint256",
          "name": "subtractedValue",
          "type": "uint256"
        }
      ],
      "name": "decreaseAllowance",
      "outputs": [
        {
          "internalType": "bool",
          "name": "",
          "type": "bool"
        }
      ],
      "payable": false,
      "stateMutability": "nonpayable",
      "type": "function"
    },
    {
      "constant": false,
      "inputs": [],
      "name": "enableTransfer",
      "outputs": [],
      "payable": false,
      "stateMutability": "nonpayable",
      "type": "function"
    },
    {
      "constant": false,
      "inputs": [],
      "name": "finishMinting",
      "outputs": [],
      "payable": false,
      "stateMutability": "nonpayable",
      "type": "function"
    },
    {
      "constant": false,
      "inputs": [
        {
          "internalType": "address",
          "name": "spender",
          "type": "address"
        },
        {
          "internalType": "uint256",
          "name": "addedValue",
          "type": "uint256"
        }
      ],
      "name": "increaseAllowance",
      "outputs": [
        {
          "internalType": "bool",
          "name": "",
          "type": "bool"
        }
      ],
      "payable": false,
      "stateMutability": "nonpayable",
      "type": "function"
    },
    {
      "constant": true,
      "inputs": [
        {
          "internalType": "address",
          "name": "account",
          "type": "address"
        }
      ],
      "name": "isMinter",
      "outputs": [
        {
          "internalType": "bool",
          "name": "",
          "type": "bool"
        }
      ],
      "payable": false,
      "stateMutability": "view",
      "type": "function"
    },
    {
      "constant": true,
      "inputs": [
        {
          "internalType": "address",
          "name": "account",
          "type": "address"
        }
      ],
      "name": "isOperator",
      "outputs": [
        {
          "internalType": "bool",
          "name": "",
          "type": "bool"
        }
      ],
      "payable": false,
      "stateMutability": "view",
      "type": "function"
    },
    {
      "constant": true,
      "inputs": [],
      "name": "isOwner",
      "outputs": [
        {
          "internalType": "bool",
          "name": "",
          "type": "bool"
        }
      ],
      "payable": false,
      "stateMutability": "view",
      "type": "function"
    },
    {
      "constant": false,
      "inputs": [
        {
          "internalType": "address",
          "name": "to",
          "type": "address"
        },
        {
          "internalType": "uint256",
          "name": "value",
          "type": "uint256"
        }
      ],
      "name": "mint",
      "outputs": [
        {
          "internalType": "bool",
          "name": "",
          "type": "bool"
        }
      ],
      "payable": false,
      "stateMutability": "nonpayable",
      "type": "function"
    },
    {
      "constant": true,
      "inputs": [],
      "name": "mintingFinished",
      "outputs": [
        {
          "internalType": "bool",
          "name": "",
          "type": "bool"
        }
      ],
      "payable": false,
      "stateMutability": "view",
      "type": "function"
    },
    {
      "constant": true,
      "inputs": [],
      "name": "name",
      "outputs": [
        {
          "internalType": "string",
          "name": "",
          "type": "string"
        }
      ],
      "payable": false,
      "stateMutability": "view",
      "type": "function"
    },
    {
      "constant": true,
      "inputs": [],
      "name": "owner",
      "outputs": [
        {
          "internalType": "address",
          "name": "",
          "type": "address"
        }
      ],
      "payable": false,
      "stateMutability": "view",
      "type": "function"
    },
    {
      "constant": false,
      "inputs": [
        {
          "internalType": "address",
          "name": "tokenAddress",
          "type": "address"
        },
        {
          "internalType": "uint256",
          "name": "tokenAmount",
          "type": "uint256"
        }
      ],
      "name": "recoverERC20",
      "outputs": [],
      "payable": false,
      "stateMutability": "nonpayable",
      "type": "function"
    },
    {
      "constant": false,
      "inputs": [
        {
          "internalType": "address",
          "name": "account",
          "type": "address"
        }
      ],
      "name": "removeMinter",
      "outputs": [],
      "payable": false,
      "stateMutability": "nonpayable",
      "type": "function"
    },
    {
      "constant": false,
      "inputs": [
        {
          "internalType": "address",
          "name": "account",
          "type": "address"
        }
      ],
      "name": "removeOperator",
      "outputs": [],
      "payable": false,
      "stateMutability": "nonpayable",
      "type": "function"
    },
    {
      "constant": false,
      "inputs": [],
      "name": "renounceMinter",
      "outputs": [],
      "payable": false,
      "stateMutability": "nonpayable",
      "type": "function"
    },
    {
      "constant": false,
      "inputs": [],
      "name": "renounceOperator",
      "outputs": [],
      "payable": false,
      "stateMutability": "nonpayable",
      "type": "function"
    },
    {
      "constant": false,
      "inputs": [],
      "name": "renounceOwnership",
      "outputs": [],
      "payable": false,
      "stateMutability": "nonpayable",
      "type": "function"
    },
    {
      "constant": true,
      "inputs": [
        {
          "internalType": "bytes4",
          "name": "interfaceId",
          "type": "bytes4"
        }
      ],
      "name": "supportsInterface",
      "outputs": [
        {
          "internalType": "bool",
          "name": "",
          "type": "bool"
        }
      ],
      "payable": false,
      "stateMutability": "view",
      "type": "function"
    },
    {
      "constant": true,
      "inputs": [],
      "name": "symbol",
      "outputs": [
        {
          "internalType": "string",
          "name": "",
          "type": "string"
        }
      ],
      "payable": false,
      "stateMutability": "view",
      "type": "function"
    },
    {
      "constant": true,
      "inputs": [],
      "name": "totalSupply",
      "outputs": [
        {
          "internalType": "uint256",
          "name": "",
          "type": "uint256"
        }
      ],
      "payable": false,
      "stateMutability": "view",
      "type": "function"
    },
    {
      "constant": false,
      "inputs": [
        {
          "internalType": "address",
          "name": "to",
          "type": "address"
        },
        {
          "internalType": "uint256",
          "name": "value",
          "type": "uint256"
        }
      ],
      "name": "transfer",
      "outputs": [
        {
          "internalType": "bool",
          "name": "",
          "type": "bool"
        }
      ],
      "payable": false,
      "stateMutability": "nonpayable",
      "type": "function"
    },
    {
      "constant": false,
      "inputs": [
        {
          "internalType": "address",
          "name": "to",
          "type": "address"
        },
        {
          "internalType": "uint256",
          "name": "value",
          "type": "uint256"
        }
      ],
      "name": "transferAndCall",
      "outputs": [
        {
          "internalType": "bool",
          "name": "",
          "type": "bool"
        }
      ],
      "payable": false,
      "stateMutability": "nonpayable",
      "type": "function"
    },
    {
      "constant": false,
      "inputs": [
        {
          "internalType": "address",
          "name": "to",
          "type": "address"
        },
        {
          "internalType": "uint256",
          "name": "value",
          "type": "uint256"
        },
        {
          "internalType": "bytes",
          "name": "data",
          "type": "bytes"
        }
      ],
      "name": "transferAndCall",
      "outputs": [
        {
          "internalType": "bool",
          "name": "",
          "type": "bool"
        }
      ],
      "payable": false,
      "stateMutability": "nonpayable",
      "type": "function"
    },
    {
      "constant": true,
      "inputs": [],
      "name": "transferEnabled",
      "outputs": [
        {
          "internalType": "bool",
          "name": "",
          "type": "bool"
        }
      ],
      "payable": false,
      "stateMutability": "view",
      "type": "function"
    },
    {
      "constant": false,
      "inputs": [
        {
          "internalType": "address",
          "name": "from",
          "type": "address"
        },
        {
          "internalType": "address",
          "name": "to",
          "type": "address"
        },
        {
          "internalType": "uint256",
          "name": "value",
          "type": "uint256"
        }
      ],
      "name": "transferFrom",
      "outputs": [
        {
          "internalType": "bool",
          "name": "",
          "type": "bool"
        }
      ],
      "payable": false,
      "stateMutability": "nonpayable",
      "type": "function"
    },
    {
      "constant": false,
      "inputs": [
        {
          "internalType": "address",
          "name": "from",
          "type": "address"
        },
        {
          "internalType": "address",
          "name": "to",
          "type": "address"
        },
        {
          "internalType": "uint256",
          "name": "value",
          "type": "uint256"
        },
        {
          "internalType": "bytes",
          "name": "data",
          "type": "bytes"
        }
      ],
      "name": "transferFromAndCall",
      "outputs": [
        {
          "internalType": "bool",
          "name": "",
          "type": "bool"
        }
      ],
      "payable": false,
      "stateMutability": "nonpayable",
      "type": "function"
    },
    {
      "constant": false,
      "inputs": [
        {
          "internalType": "address",
          "name": "from",
          "type": "address"
        },
        {
          "internalType": "address",
          "name": "to",
          "type": "address"
        },
        {
          "internalType": "uint256",
          "name": "value",
          "type": "uint256"
        }
      ],
      "name": "transferFromAndCall",
      "outputs": [
        {
          "internalType": "bool",
          "name": "",
          "type": "bool"
        }
      ],
      "payable": false,
      "stateMutability": "nonpayable",
      "type": "function"
    },
    {
      "constant": false,
      "inputs": [
        {
          "internalType": "address",
          "name": "newOwner",
          "type": "address"
        }
      ],
      "name": "transferOwnership",
      "outputs": [],
      "payable": false,
      "stateMutability": "nonpayable",
      "type": "function"
    }
  ],
  "bytecode": "0x6009805461ffff60a01b1916905560e0604052602f60808181529062002b5660a03980516200003791600b91602090910190620008f9565b503480156200004557600080fd5b5060405162002b8538038062002b85833981810160405260c08110156200006b57600080fd5b81019080805160405193929190846401000000008211156200008c57600080fd5b908301906020820185811115620000a257600080fd5b8251640100000000811182820188101715620000bd57600080fd5b82525081516020918201929091019080838360005b83811015620000ec578181015183820152602001620000d2565b50505050905090810190601f1680156200011a5780820380516001836020036101000a031916815260200191505b50604052602001805160405193929190846401000000008211156200013e57600080fd5b9083019060208201858111156200015457600080fd5b82516401000000008111828201881017156200016f57600080fd5b82525081516020918201929091019080838360005b838110156200019e57818101518382015260200162000184565b50505050905090810190601f168015620001cc5780820380516001836020036101000a031916815260200191505b506040908152602082810151918301516060840151608090940151885193965090945091879187918791879187918691869186918691869183918791879187916200021e9160009190860190620008f9565b50815162000234906001906020850190620008f9565b506002805460ff191660ff92909216919091179055506200026990506200025a620003e7565b6001600160e01b03620003ec16565b60008111620002bf576040805162461bcd60e51b815260206004820152601560248201527f45524332304361707065643a2063617020697320300000000000000000000000604482015290519081900360640190fd5b600755620002d6336001600160e01b036200043e16565b620002e96001600160e01b03620003e716565b600980546001600160a01b0319166001600160a01b0392831617908190556040519116906000907f8be0079c531659141344cd1fd0a4f28419497f9722a3daafe3b4186f6b6457e0908290a38015620003635762000363620003536001600160e01b036200049016565b826001600160e01b036200049f16565b506200038693506301ffc9a760e01b9250506001600160e01b036200053d169050565b620003a1634bbee2df60e01b6001600160e01b036200053d16565b620003bc637dcf646760e11b6001600160e01b036200053d16565b50505050508015620003db57620003db6001600160e01b03620005c216565b5050505050506200099b565b335b90565b620004078160066200066560201b62001dc01790919060201c565b6040516001600160a01b038216907f6ae172837ea30b801fbfcdd4108aa1d5bf8ff775444fd70256b44e6bf3dfc3f690600090a250565b620004598160086200066560201b62001dc01790919060201c565b6040516001600160a01b038216907fac6fa858e9350a46cec16539926e0fde25b7629f84b5a72bffaae4df888ae86d90600090a250565b6009546001600160a01b031690565b600754620004ce82620004ba6001600160e01b03620006f216565b620006f860201b620014731790919060201c565b111562000522576040805162461bcd60e51b815260206004820152601960248201527f45524332304361707065643a2063617020657863656564656400000000000000604482015290519081900360640190fd5b6200053982826200075a60201b62001e411760201c565b5050565b6001600160e01b031980821614156200059d576040805162461bcd60e51b815260206004820152601c60248201527f4552433136353a20696e76616c696420696e7465726661636520696400000000604482015290519081900360640190fd5b6001600160e01b0319166000908152600a60205260409020805460ff19166001179055565b620005d56001600160e01b036200085f16565b62000627576040805162461bcd60e51b815260206004820181905260248201527f4f776e61626c653a2063616c6c6572206973206e6f7420746865206f776e6572604482015290519081900360640190fd5b6009805460ff60a81b1916600160a81b1790556040517f75fce015c314a132947a3e42f6ab79ab8e05397dabf35b4d742dea228bbadc2d90600090a1565b6200067a82826001600160e01b036200089016565b15620006cd576040805162461bcd60e51b815260206004820152601f60248201527f526f6c65733a206163636f756e7420616c72656164792068617320726f6c6500604482015290519081900360640190fd5b6001600160a01b0316600090815260209190915260409020805460ff19166001179055565b60055490565b60008282018381101562000753576040805162461bcd60e51b815260206004820152601b60248201527f536166654d6174683a206164646974696f6e206f766572666c6f770000000000604482015290519081900360640190fd5b9392505050565b6001600160a01b038216620007b6576040805162461bcd60e51b815260206004820152601f60248201527f45524332303a206d696e7420746f20746865207a65726f206164647265737300604482015290519081900360640190fd5b620007d281600554620006f860201b620014731790919060201c565b6005556001600160a01b0382166000908152600360209081526040909120546200080791839062001473620006f8821b17901c565b6001600160a01b03831660008181526003602090815260408083209490945583518581529351929391927fddf252ad1be2c89b69c2b068fc378daa952ba7f163c4a11628f55a4df523b3ef9281900390910190a35050565b6009546000906001600160a01b0316620008816001600160e01b03620003e716565b6001600160a01b031614905090565b60006001600160a01b038216620008d95760405162461bcd60e51b815260040180806020018281038252602281526020018062002b346022913960400191505060405180910390fd5b506001600160a01b03166000908152602091909152604090205460ff1690565b828054600181600116156101000203166002900490600052602060002090601f016020900481019282601f106200093c57805160ff19168380011785556200096c565b828001600101855582156200096c579182015b828111156200096c5782518255916020019190600101906200094f565b506200097a9291506200097e565b5090565b620003e991905b808211156200097a576000815560010162000985565b61218980620009ab6000396000f3fe608060405234801561001057600080fd5b50600436106102485760003560e01c806379cc67901161013b578063a9059cbb116100b8578063cae9ca511161007c578063cae9ca511461081d578063d8fbe994146108d8578063dd62ed3e1461090e578063f1b50c1d1461093c578063f2fde38b1461094457610248565b8063a9059cbb146106d7578063aa271e1a14610703578063ac8a584a14610729578063b60b70841461074f578063c1d34b891461075757610248565b806395d89b41116100ff57806395d89b411461064f578063983b2d5614610657578063986502751461067d5780639870d7fe14610685578063a457c2d7146106ab57610248565b806379cc6790146105c35780637d64bcb4146105ef5780638980f11f146105f75780638da5cb5b146106235780638f32d59b1461064757610248565b80633177029f116101c957806342966c681161018d57806342966c681461054a5780634cd412d5146105675780636d70f7ae1461056f57806370a0823114610595578063715018a6146105bb57610248565b80633177029f14610403578063355274ea1461042f57806339509351146104375780634000aea01461046357806340c10f191461051e57610248565b806318160ddd1161021057806318160ddd1461036557806323b872dd1461037f5780632ab6f8db146103b55780633092afd5146103bf578063313ce567146103e557610248565b806301ffc9a71461024d57806305d2035b1461028857806306fdde0314610290578063095ea7b31461030d5780631296ee6214610339575b600080fd5b6102746004803603602081101561026357600080fd5b50356001600160e01b03191661096a565b604080519115158252519081900360200190f35b610274610989565b610298610999565b6040805160208082528351818301528351919283929083019185019080838360005b838110156102d25781810151838201526020016102ba565b50505050905090810190601f1680156102ff5780820380516001836020036101000a031916815260200191505b509250505060405180910390f35b6102746004803603604081101561032357600080fd5b506001600160a01b038135169060200135610a2f565b6102746004803603604081101561034f57600080fd5b506001600160a01b038135169060200135610a4c565b61036d610a6f565b60408051918252519081900360200190f35b6102746004803603606081101561039557600080fd5b506001600160a01b03813581169160208101359091169060400135610a75565b6103bd610ab3565b005b6103bd600480360360208110156103d557600080fd5b50356001600160a01b0316610abe565b6103ed610b11565b6040805160ff9092168252519081900360200190f35b6102746004803603604081101561041957600080fd5b506001600160a01b038135169060200135610b1a565b61036d610b36565b6102746004803603604081101561044d57600080fd5b506001600160a01b038135169060200135610b3c565b6102746004803603606081101561047957600080fd5b6001600160a01b03823516916020810135918101906060810160408201356401000000008111156104a957600080fd5b8201836020820111156104bb57600080fd5b803590602001918460018302840111640100000000831117156104dd57600080fd5b91908080601f016020809104026020016040519081016040528093929190818152602001838380828437600092019190915250929550610b95945050505050565b6102746004803603604081101561053457600080fd5b506001600160a01b038135169060200135610bc9565b6103bd6004803603602081101561056057600080fd5b5035610bed565b610274610bfe565b6102746004803603602081101561058557600080fd5b50356001600160a01b0316610c0e565b61036d600480360360208110156105ab57600080fd5b50356001600160a01b0316610c27565b6103bd610c42565b6103bd600480360360408110156105d957600080fd5b506001600160a01b038135169060200135610cd3565b6103bd610ce1565b6103bd6004803603604081101561060d57600080fd5b506001600160a01b038135169060200135610d7d565b61062b610e5b565b604080516001600160a01b039092168252519081900360200190f35b610274610e6a565b610298610e90565b6103bd6004803603602081101561066d57600080fd5b50356001600160a01b0316610ef0565b6103bd610f44565b6103bd6004803603602081101561069b57600080fd5b50356001600160a01b0316610f54565b610274600480360360408110156106c157600080fd5b506001600160a01b038135169060200135610f6f565b610274600480360360408110156106ed57600080fd5b506001600160a01b038135169060200135610fdd565b6102746004803603602081101561071957600080fd5b50356001600160a01b0316611019565b6103bd6004803603602081101561073f57600080fd5b50356001600160a01b031661102c565b61029861107c565b6102746004803603608081101561076d57600080fd5b6001600160a01b038235811692602081013590911691604082013591908101906080810160608201356401000000008111156107a857600080fd5b8201836020820111156107ba57600080fd5b803590602001918460018302840111640100000000831117156107dc57600080fd5b91908080601f01602080910402602001604051908101604052809392919081815260200183838082843760009201919091525092955061110a945050505050565b6102746004803603606081101561083357600080fd5b6001600160a01b038235169160208101359181019060608101604082013564010000000081111561086357600080fd5b82018360208201111561087557600080fd5b8035906020019184600183028401116401000000008311171561089757600080fd5b91908080601f016020809104026020016040519081016040528093929190818152602001838380828437600092019190915250929550611140945050505050565b610274600480360360608110156108ee57600080fd5b506001600160a01b03813581169160208101359091169060400135611158565b61036d6004803603604081101561092457600080fd5b506001600160a01b0381358116916020013516611175565b6103bd6111a0565b6103bd6004803603602081101561095a57600080fd5b50356001600160a01b0316611225565b6001600160e01b0319166000908152600a602052604090205460ff1690565b600954600160a01b900460ff1690565b60008054604080516020601f6002600019610100600188161502019095169490940493840181900481028201810190925282815260609390929091830182828015610a255780601f106109fa57610100808354040283529160200191610a25565b820191906000526020600020905b815481529060010190602001808311610a0857829003601f168201915b5050505050905090565b6000610a43610a3c611275565b8484611279565b50600192915050565b6000610a68838360405180602001604052806000815250610b95565b9392505050565b60055490565b6009546000908490600160a81b900460ff1680610a965750610a9681610c0e565b610a9f57600080fd5b610aaa858585611365565b95945050505050565b610abc336113e3565b565b610ac6610e6a565b610b05576040805162461bcd60e51b81526020600482018190526024820152600080516020612060833981519152604482015290519081900360640190fd5b610b0e8161142b565b50565b60025460ff1690565b6000610a68838360405180602001604052806000815250611140565b60075490565b6000610a43610b49611275565b84610b908560046000610b5a611275565b6001600160a01b03908116825260208083019390935260409182016000908120918c16815292529020549063ffffffff61147316565b611279565b6000610ba18484610fdd565b610baa57600080fd5b610bb6338585856114cd565b610bbf57600080fd5b5060019392505050565b600954600090600160a01b900460ff1615610be357600080fd5b610a688383611600565b610b0e610bf8611275565b82611652565b600954600160a81b900460ff1690565b6000610c2160088363ffffffff61174e16565b92915050565b6001600160a01b031660009081526003602052604090205490565b610c4a610e6a565b610c89576040805162461bcd60e51b81526020600482018190526024820152600080516020612060833981519152604482015290519081900360640190fd5b6009546040516000916001600160a01b0316907f8be0079c531659141344cd1fd0a4f28419497f9722a3daafe3b4186f6b6457e0908390a3600980546001600160a01b0319169055565b610cdd82826117b5565b5050565b610ce9610e6a565b610d28576040805162461bcd60e51b81526020600482018190526024820152600080516020612060833981519152604482015290519081900360640190fd5b600954600160a01b900460ff1615610d3f57600080fd5b6009805460ff60a01b1916600160a01b1790556040517fae5184fba832cb2b1f702aca6117b8d265eaf03ad33eb133f19dde0f5920fa0890600090a1565b610d85610e6a565b610dc4576040805162461bcd60e51b81526020600482018190526024820152600080516020612060833981519152604482015290519081900360640190fd5b816001600160a01b031663a9059cbb610ddb610e5b565b836040518363ffffffff1660e01b815260040180836001600160a01b03166001600160a01b0316815260200182815260200192505050602060405180830381600087803b158015610e2b57600080fd5b505af1158015610e3f573d6000803e3d6000fd5b505050506040513d6020811015610e5557600080fd5b50505050565b6009546001600160a01b031690565b6009546000906001600160a01b0316610e81611275565b6001600160a01b031614905090565b60018054604080516020601f60026000196101008789161502019095169490940493840181900481028201810190925282815260609390929091830182828015610a255780601f106109fa57610100808354040283529160200191610a25565b610f00610efb611275565b611019565b610f3b5760405162461bcd60e51b8152600401808060200182810382526030815260200180611fe76030913960400191505060405180910390fd5b610b0e81611809565b610abc610f4f611275565b61142b565b610f5d33610c0e565b610f6657600080fd5b610b0e81611851565b6000610a43610f7c611275565b84610b90856040518060600160405280602581526020016121306025913960046000610fa6611275565b6001600160a01b03908116825260208083019390935260409182016000908120918d1681529252902054919063ffffffff61189916565b6009546000903390600160a81b900460ff1680610ffe5750610ffe81610c0e565b61100757600080fd5b6110118484611930565b949350505050565b6000610c2160068363ffffffff61174e16565b611034610e6a565b611073576040805162461bcd60e51b81526020600482018190526024820152600080516020612060833981519152604482015290519081900360640190fd5b610b0e816113e3565b600b805460408051602060026001851615610100026000190190941693909304601f810184900484028201840190925281815292918301828280156111025780601f106110d757610100808354040283529160200191611102565b820191906000526020600020905b8154815290600101906020018083116110e557829003601f168201915b505050505081565b6000611117858585610a75565b61112057600080fd5b61112c858585856114cd565b61113557600080fd5b506001949350505050565b600061114c8484610a2f565b50610bb6848484611944565b60006110118484846040518060200160405280600081525061110a565b6001600160a01b03918216600090815260046020908152604080832093909416825291909152205490565b6111a8610e6a565b6111e7576040805162461bcd60e51b81526020600482018190526024820152600080516020612060833981519152604482015290519081900360640190fd5b6009805460ff60a81b1916600160a81b1790556040517f75fce015c314a132947a3e42f6ab79ab8e05397dabf35b4d742dea228bbadc2d90600090a1565b61122d610e6a565b61126c576040805162461bcd60e51b81526020600482018190526024820152600080516020612060833981519152604482015290519081900360640190fd5b610b0e81611a69565b3390565b6001600160a01b0383166112be5760405162461bcd60e51b815260040180806020018281038252602481526020018061210c6024913960400191505060405180910390fd5b6001600160a01b0382166113035760405162461bcd60e51b8152600401808060200182810382526022815260200180611f9f6022913960400191505060405180910390fd5b6001600160a01b03808416600081815260046020908152604080832094871680845294825291829020859055815185815291517f8c5be1e5ebec7d5bd14f71427d1e84f3dd0314c0f7b2291e5b200ac8c7c3b9259281900390910190a3505050565b6000611372848484611b0a565b610bbf8461137e611275565b610b9085604051806060016040528060288152602001612038602891396001600160a01b038a166000908152600460205260408120906113bc611275565b6001600160a01b03168152602081019190915260400160002054919063ffffffff61189916565b6113f460088263ffffffff611c6816565b6040516001600160a01b038216907f80c0b871b97b595b16a7741c1b06fed0c6f6f558639f18ccbce50724325dc40d90600090a250565b61143c60068263ffffffff611c6816565b6040516001600160a01b038216907fe94479a9f7e1952cc78f2d6baab678adc1b772d936c6583def489e524cb6669290600090a250565b600082820183811015610a68576040805162461bcd60e51b815260206004820152601b60248201527f536166654d6174683a206164646974696f6e206f766572666c6f770000000000604482015290519081900360640190fd5b60006114e1846001600160a01b0316611ccf565b6114ed57506000611011565b604051632229f29760e21b815233600482018181526001600160a01b03888116602485015260448401879052608060648501908152865160848601528651600095928a16946388a7ca5c9490938c938b938b939260a4019060208501908083838e5b8381101561156757818101518382015260200161154f565b50505050905090810190601f1680156115945780820380516001836020036101000a031916815260200191505b5095505050505050602060405180830381600087803b1580156115b657600080fd5b505af11580156115ca573d6000803e3d6000fd5b505050506040513d60208110156115e057600080fd5b50516001600160e01b031916632229f29760e21b14915050949350505050565b600061160d610efb611275565b6116485760405162461bcd60e51b8152600401808060200182810382526030815260200180611fe76030913960400191505060405180910390fd5b610a438383611d06565b6001600160a01b0382166116975760405162461bcd60e51b81526004018080602001828103825260218152602001806120c66021913960400191505060405180910390fd5b6116da81604051806060016040528060228152602001611f57602291396001600160a01b038516600090815260036020526040902054919063ffffffff61189916565b6001600160a01b038316600090815260036020526040902055600554611706908263ffffffff611d7e16565b6005556040805182815290516000916001600160a01b038516917fddf252ad1be2c89b69c2b068fc378daa952ba7f163c4a11628f55a4df523b3ef9181900360200190a35050565b60006001600160a01b0382166117955760405162461bcd60e51b81526004018080602001828103825260228152602001806120806022913960400191505060405180910390fd5b506001600160a01b03166000908152602091909152604090205460ff1690565b6117bf8282611652565b610cdd826117cb611275565b610b90846040518060600160405280602481526020016120a2602491396001600160a01b0388166000908152600460205260408120906113bc611275565b61181a60068263ffffffff611dc016565b6040516001600160a01b038216907f6ae172837ea30b801fbfcdd4108aa1d5bf8ff775444fd70256b44e6bf3dfc3f690600090a250565b61186260088263ffffffff611dc016565b6040516001600160a01b038216907fac6fa858e9350a46cec16539926e0fde25b7629f84b5a72bffaae4df888ae86d90600090a250565b600081848411156119285760405162461bcd60e51b81526004018080602001828103825283818151815260200191508051906020019080838360005b838110156118ed5781810151838201526020016118d5565b50505050905090810190601f16801561191a5780820380516001836020036101000a031916815260200191505b509250505060405180910390fd5b505050900390565b6000610a4361193d611275565b8484611b0a565b6000611958846001600160a01b0316611ccf565b61196457506000610a68565b6040516307b04a2d60e41b81523360048201818152602483018690526060604484019081528551606485015285516000946001600160a01b038a1694637b04a2d09490938a938a936084019060208501908083838d5b838110156119d25781810151838201526020016119ba565b50505050905090810190601f1680156119ff5780820380516001836020036101000a031916815260200191505b50945050505050602060405180830381600087803b158015611a2057600080fd5b505af1158015611a34573d6000803e3d6000fd5b505050506040513d6020811015611a4a57600080fd5b50516001600160e01b0319166307b04a2d60e41b149150509392505050565b6001600160a01b038116611aae5760405162461bcd60e51b8152600401808060200182810382526026815260200180611f796026913960400191505060405180910390fd5b6009546040516001600160a01b038084169216907f8be0079c531659141344cd1fd0a4f28419497f9722a3daafe3b4186f6b6457e090600090a3600980546001600160a01b0319166001600160a01b0392909216919091179055565b6001600160a01b038316611b4f5760405162461bcd60e51b81526004018080602001828103825260258152602001806120e76025913960400191505060405180910390fd5b6001600160a01b038216611b945760405162461bcd60e51b8152600401808060200182810382526023815260200180611f346023913960400191505060405180910390fd5b611bd781604051806060016040528060268152602001611fc1602691396001600160a01b038616600090815260036020526040902054919063ffffffff61189916565b6001600160a01b038085166000908152600360205260408082209390935590841681522054611c0c908263ffffffff61147316565b6001600160a01b0380841660008181526003602090815260409182902094909455805185815290519193928716927fddf252ad1be2c89b69c2b068fc378daa952ba7f163c4a11628f55a4df523b3ef92918290030190a3505050565b611c72828261174e565b611cad5760405162461bcd60e51b81526004018080602001828103825260218152602001806120176021913960400191505060405180910390fd5b6001600160a01b0316600090815260209190915260409020805460ff19169055565b6000813f7fc5d2460186f7233c927e7db2dcc703c0e500b653ca82273b7bfad8045d85a47081158015906110115750141592915050565b600754611d2182611d15610a6f565b9063ffffffff61147316565b1115611d74576040805162461bcd60e51b815260206004820152601960248201527f45524332304361707065643a2063617020657863656564656400000000000000604482015290519081900360640190fd5b610cdd8282611e41565b6000610a6883836040518060400160405280601e81526020017f536166654d6174683a207375627472616374696f6e206f766572666c6f770000815250611899565b611dca828261174e565b15611e1c576040805162461bcd60e51b815260206004820152601f60248201527f526f6c65733a206163636f756e7420616c72656164792068617320726f6c6500604482015290519081900360640190fd5b6001600160a01b0316600090815260209190915260409020805460ff19166001179055565b6001600160a01b038216611e9c576040805162461bcd60e51b815260206004820152601f60248201527f45524332303a206d696e7420746f20746865207a65726f206164647265737300604482015290519081900360640190fd5b600554611eaf908263ffffffff61147316565b6005556001600160a01b038216600090815260036020526040902054611edb908263ffffffff61147316565b6001600160a01b03831660008181526003602090815260408083209490945583518581529351929391927fddf252ad1be2c89b69c2b068fc378daa952ba7f163c4a11628f55a4df523b3ef9281900390910190a3505056fe45524332303a207472616e7366657220746f20746865207a65726f206164647265737345524332303a206275726e20616d6f756e7420657863656564732062616c616e63654f776e61626c653a206e6577206f776e657220697320746865207a65726f206164647265737345524332303a20617070726f766520746f20746865207a65726f206164647265737345524332303a207472616e7366657220616d6f756e7420657863656564732062616c616e63654d696e746572526f6c653a2063616c6c657220646f6573206e6f74206861766520746865204d696e74657220726f6c65526f6c65733a206163636f756e7420646f6573206e6f74206861766520726f6c6545524332303a207472616e7366657220616d6f756e74206578636565647320616c6c6f77616e63654f776e61626c653a2063616c6c6572206973206e6f7420746865206f776e6572526f6c65733a206163636f756e7420697320746865207a65726f206164647265737345524332303a206275726e20616d6f756e74206578636565647320616c6c6f77616e636545524332303a206275726e2066726f6d20746865207a65726f206164647265737345524332303a207472616e736665722066726f6d20746865207a65726f206164647265737345524332303a20617070726f76652066726f6d20746865207a65726f206164647265737345524332303a2064656372656173656420616c6c6f77616e63652062656c6f77207a65726fa265627a7a7231582084001a10073f76e909619ca9197058de11ef66f5023cb4494056dfe6ba14f46864736f6c634300050f0032526f6c65733a206163636f756e7420697320746865207a65726f206164647265737368747470733a2f2f766974746f6d696e61636f72692e6769746875622e696f2f65726332302d67656e657261746f72",
  "source": "pragma solidity ^0.5.15;\n\nimport \"ico-maker/contracts/token/ERC1363/BaseERC1363Token.sol\";\n\n/**\n * @title ERC20Token\n * @author Vittorio Minacori (https://github.com/vittominacori)\n * @dev Implementation of a BaseERC1363Token\n */\ncontract ERC20Token is BaseERC1363Token {\n\n    string public builtOn = \"https://vittominacori.github.io/erc20-generator\";\n\n    constructor(\n        string memory name,\n        string memory symbol,\n        uint8 decimals,\n        uint256 cap,\n        uint256 initialSupply,\n        bool transferEnabled\n    )\n        public\n        BaseERC1363Token(name, symbol, decimals, cap, initialSupply)\n    {\n        if (transferEnabled) {\n            enableTransfer();\n        }\n    }\n}\n",
  "sourcePath": "/Users/vittominacori/Projects/vittominacori.github.io/erc20-generator/erc20-generator-smartcontracts/contracts/ERC20Token.sol",
  "compiler": {
    "name": "solc",
    "version": "0.5.15+commit.6a57276f.Emscripten.clang"
  },
  "schemaVersion": "3.0.20",
  "updatedAt": "2019-12-24T12:16:40.237Z",
  "devdoc": {
    "author": "Vittorio Minacori (https://github.com/vittominacori)",
    "details": "Implementation of a BaseERC1363Token",
    "methods": {
      "allowance(address,address)": {
        "details": "See {IERC20-allowance}."
      },
      "approve(address,uint256)": {
        "details": "See {IERC20-approve}.     * Requirements:     * - `spender` cannot be the zero address."
      },
      "balanceOf(address)": {
        "details": "See {IERC20-balanceOf}."
      },
      "burn(uint256)": {
        "details": "Destroys `amount` tokens from the caller.     * See {ERC20-_burn}."
      },
      "burnFrom(address,uint256)": {
        "details": "See {ERC20-_burnFrom}."
      },
      "cap()": {
        "details": "Returns the cap on the token's total supply."
      },
      "decimals()": {
        "details": "Returns the number of decimals used to get its user representation. For example, if `decimals` equals `2`, a balance of `505` tokens should be displayed to a user as `5,05` (`505 / 10 ** 2`).     * Tokens usually opt for a value of 18, imitating the relationship between Ether and Wei.     * NOTE: This information is only used for _display_ purposes: it in no way affects any of the arithmetic of the contract, including {IERC20-balanceOf} and {IERC20-transfer}."
      },
      "decreaseAllowance(address,uint256)": {
        "details": "Atomically decreases the allowance granted to `spender` by the caller.     * This is an alternative to {approve} that can be used as a mitigation for problems described in {IERC20-approve}.     * Emits an {Approval} event indicating the updated allowance.     * Requirements:     * - `spender` cannot be the zero address. - `spender` must have allowance for the caller of at least `subtractedValue`."
      },
      "enableTransfer()": {
        "details": "Function to enable transfers."
      },
      "finishMinting()": {
        "details": "Function to stop minting new tokens."
      },
      "increaseAllowance(address,uint256)": {
        "details": "Atomically increases the allowance granted to `spender` by the caller.     * This is an alternative to {approve} that can be used as a mitigation for problems described in {IERC20-approve}.     * Emits an {Approval} event indicating the updated allowance.     * Requirements:     * - `spender` cannot be the zero address."
      },
      "isOwner()": {
        "details": "Returns true if the caller is the current owner."
      },
      "mint(address,uint256)": {
        "details": "Function to mint tokens",
        "params": {
          "to": "The address that will receive the minted tokens.",
          "value": "The amount of tokens to mint."
        },
        "return": "A boolean that indicates if the operation was successful."
      },
      "mintingFinished()": {
        "return": "if minting is finished or not."
      },
      "name()": {
        "details": "Returns the name of the token."
      },
      "owner()": {
        "details": "Returns the address of the current owner."
      },
      "recoverERC20(address,uint256)": {
        "details": "Remember that only owner can call so be careful when use on contracts generated from other contracts.",
        "params": {
          "tokenAddress": "The token contract address",
          "tokenAmount": "Number of tokens to be sent"
        }
      },
      "removeMinter(address)": {
        "details": "remove the `minter` role from address",
        "params": {
          "account": "Address you want to remove role"
        }
      },
      "removeOperator(address)": {
        "details": "remove the `operator` role from address",
        "params": {
          "account": "Address you want to remove role"
        }
      },
      "renounceOwnership()": {
        "details": "Leaves the contract without owner. It will not be possible to call `onlyOwner` functions anymore. Can only be called by the current owner.     * NOTE: Renouncing ownership will leave the contract without an owner, thereby removing any functionality that is only available to the owner."
      },
      "supportsInterface(bytes4)": {
        "details": "See {IERC165-supportsInterface}.     * Time complexity O(1), guaranteed to always use less than 30 000 gas."
      },
      "symbol()": {
        "details": "Returns the symbol of the token, usually a shorter version of the name."
      },
      "totalSupply()": {
        "details": "See {IERC20-totalSupply}."
      },
      "transfer(address,uint256)": {
        "details": "Transfer token to a specified address",
        "params": {
          "to": "The address to transfer to.",
          "value": "The amount to be transferred."
        },
        "return": "A boolean that indicates if the operation was successful."
      },
      "transferEnabled()": {
        "return": "if transfer is enabled or not."
      },
      "transferFrom(address,address,uint256)": {
        "details": "Transfer tokens from one address to another.",
        "params": {
          "from": "address The address which you want to send tokens from",
          "to": "address The address which you want to transfer to",
          "value": "uint256 the amount of tokens to be transferred"
        },
        "return": "A boolean that indicates if the operation was successful."
      },
      "transferOwnership(address)": {
        "details": "Transfers ownership of the contract to a new account (`newOwner`). Can only be called by the current owner."
      }
    },
    "title": "ERC20Token"
  },
  "userdoc": {
    "methods": {}
  }
}