{
  "contractName": "ERC20Token",
  "abi": [
    {
      "constant": true,
      "inputs": [],
      "name": "mintingFinished",
      "outputs": [
        {
          "name": "",
          "type": "bool"
        }
      ],
      "payable": false,
      "stateMutability": "view",
      "type": "function"
    },
    {
      "constant": true,
      "inputs": [],
      "name": "name",
      "outputs": [
        {
          "name": "",
          "type": "string"
        }
      ],
      "payable": false,
      "stateMutability": "view",
      "type": "function"
    },
    {
      "constant": false,
      "inputs": [
        {
          "name": "_spender",
          "type": "address"
        },
        {
          "name": "_value",
          "type": "uint256"
        }
      ],
      "name": "approve",
      "outputs": [
        {
          "name": "",
          "type": "bool"
        }
      ],
      "payable": false,
      "stateMutability": "nonpayable",
      "type": "function"
    },
    {
      "constant": true,
      "inputs": [],
      "name": "totalSupply",
      "outputs": [
        {
          "name": "",
          "type": "uint256"
        }
      ],
      "payable": false,
      "stateMutability": "view",
      "type": "function"
    },
    {
      "constant": false,
      "inputs": [
        {
          "name": "_from",
          "type": "address"
        },
        {
          "name": "_to",
          "type": "address"
        },
        {
          "name": "_value",
          "type": "uint256"
        }
      ],
      "name": "transferFrom",
      "outputs": [
        {
          "name": "",
          "type": "bool"
        }
      ],
      "payable": false,
      "stateMutability": "nonpayable",
      "type": "function"
    },
    {
      "constant": true,
      "inputs": [],
      "name": "decimals",
      "outputs": [
        {
          "name": "",
          "type": "uint8"
        }
      ],
      "payable": false,
      "stateMutability": "view",
      "type": "function"
    },
    {
      "constant": false,
      "inputs": [
        {
          "name": "_to",
          "type": "address"
        },
        {
          "name": "_amount",
          "type": "uint256"
        }
      ],
      "name": "mint",
      "outputs": [
        {
          "name": "",
          "type": "bool"
        }
      ],
      "payable": false,
      "stateMutability": "nonpayable",
      "type": "function"
    },
    {
      "constant": false,
      "inputs": [
        {
          "name": "_value",
          "type": "uint256"
        }
      ],
      "name": "burn",
      "outputs": [],
      "payable": false,
      "stateMutability": "nonpayable",
      "type": "function"
    },
    {
      "constant": false,
      "inputs": [
        {
          "name": "_spender",
          "type": "address"
        },
        {
          "name": "_subtractedValue",
          "type": "uint256"
        }
      ],
      "name": "decreaseApproval",
      "outputs": [
        {
          "name": "",
          "type": "bool"
        }
      ],
      "payable": false,
      "stateMutability": "nonpayable",
      "type": "function"
    },
    {
      "constant": true,
      "inputs": [
        {
          "name": "_owner",
          "type": "address"
        }
      ],
      "name": "balanceOf",
      "outputs": [
        {
          "name": "balance",
          "type": "uint256"
        }
      ],
      "payable": false,
      "stateMutability": "view",
      "type": "function"
    },
    {
      "constant": false,
      "inputs": [],
      "name": "finishMinting",
      "outputs": [
        {
          "name": "",
          "type": "bool"
        }
      ],
      "payable": false,
      "stateMutability": "nonpayable",
      "type": "function"
    },
    {
      "constant": true,
      "inputs": [],
      "name": "owner",
      "outputs": [
        {
          "name": "",
          "type": "address"
        }
      ],
      "payable": false,
      "stateMutability": "view",
      "type": "function"
    },
    {
      "constant": true,
      "inputs": [],
      "name": "symbol",
      "outputs": [
        {
          "name": "",
          "type": "string"
        }
      ],
      "payable": false,
      "stateMutability": "view",
      "type": "function"
    },
    {
      "constant": false,
      "inputs": [
        {
          "name": "_to",
          "type": "address"
        },
        {
          "name": "_value",
          "type": "uint256"
        }
      ],
      "name": "transfer",
      "outputs": [
        {
          "name": "",
          "type": "bool"
        }
      ],
      "payable": false,
      "stateMutability": "nonpayable",
      "type": "function"
    },
    {
      "constant": false,
      "inputs": [
        {
          "name": "_spender",
          "type": "address"
        },
        {
          "name": "_addedValue",
          "type": "uint256"
        }
      ],
      "name": "increaseApproval",
      "outputs": [
        {
          "name": "",
          "type": "bool"
        }
      ],
      "payable": false,
      "stateMutability": "nonpayable",
      "type": "function"
    },
    {
      "constant": true,
      "inputs": [
        {
          "name": "_owner",
          "type": "address"
        },
        {
          "name": "_spender",
          "type": "address"
        }
      ],
      "name": "allowance",
      "outputs": [
        {
          "name": "",
          "type": "uint256"
        }
      ],
      "payable": false,
      "stateMutability": "view",
      "type": "function"
    },
    {
      "constant": false,
      "inputs": [
        {
          "name": "newOwner",
          "type": "address"
        }
      ],
      "name": "transferOwnership",
      "outputs": [],
      "payable": false,
      "stateMutability": "nonpayable",
      "type": "function"
    },
    {
      "inputs": [
        {
          "name": "_name",
          "type": "string"
        },
        {
          "name": "_symbol",
          "type": "string"
        },
        {
          "name": "_decimals",
          "type": "uint8"
        }
      ],
      "payable": false,
      "stateMutability": "nonpayable",
      "type": "constructor"
    },
    {
      "anonymous": false,
      "inputs": [
        {
          "indexed": true,
          "name": "burner",
          "type": "address"
        },
        {
          "indexed": false,
          "name": "value",
          "type": "uint256"
        }
      ],
      "name": "Burn",
      "type": "event"
    },
    {
      "anonymous": false,
      "inputs": [
        {
          "indexed": true,
          "name": "to",
          "type": "address"
        },
        {
          "indexed": false,
          "name": "amount",
          "type": "uint256"
        }
      ],
      "name": "Mint",
      "type": "event"
    },
    {
      "anonymous": false,
      "inputs": [],
      "name": "MintFinished",
      "type": "event"
    },
    {
      "anonymous": false,
      "inputs": [
        {
          "indexed": true,
          "name": "previousOwner",
          "type": "address"
        },
        {
          "indexed": true,
          "name": "newOwner",
          "type": "address"
        }
      ],
      "name": "OwnershipTransferred",
      "type": "event"
    },
    {
      "anonymous": false,
      "inputs": [
        {
          "indexed": true,
          "name": "owner",
          "type": "address"
        },
        {
          "indexed": true,
          "name": "spender",
          "type": "address"
        },
        {
          "indexed": false,
          "name": "value",
          "type": "uint256"
        }
      ],
      "name": "Approval",
      "type": "event"
    },
    {
      "anonymous": false,
      "inputs": [
        {
          "indexed": true,
          "name": "from",
          "type": "address"
        },
        {
          "indexed": true,
          "name": "to",
          "type": "address"
        },
        {
          "indexed": false,
          "name": "value",
          "type": "uint256"
        }
      ],
      "name": "Transfer",
      "type": "event"
    }
  ],
  "bytecode": "0x60606040526006805460a060020a60ff0219169055341561001f57600080fd5b604051610e36380380610e36833981016040528080518201919060200180518201919060200180519150839050828260008380516100619291602001906100b0565b5060018280516100759291602001906100b0565b506002805460ff191660ff92909216919091179055505060068054600160a060020a03191633600160a060020a03161790555061014b915050565b828054600181600116156101000203166002900490600052602060002090601f016020900481019282601f106100f157805160ff191683800117855561011e565b8280016001018555821561011e579182015b8281111561011e578251825591602001919060010190610103565b5061012a92915061012e565b5090565b61014891905b8082111561012a5760008155600101610134565b90565b610cdc8061015a6000396000f3006060604052600436106100f05763ffffffff7c010000000000000000000000000000000000000000000000000000000060003504166305d2035b81146100f557806306fdde031461011c578063095ea7b3146101a657806318160ddd146101c857806323b872dd146101ed578063313ce5671461021557806340c10f191461023e57806342966c6814610260578063661884631461027857806370a082311461029a5780637d64bcb4146102b95780638da5cb5b146102cc57806395d89b41146102fb578063a9059cbb1461030e578063d73dd62314610330578063dd62ed3e14610352578063f2fde38b14610377575b600080fd5b341561010057600080fd5b610108610396565b604051901515815260200160405180910390f35b341561012757600080fd5b61012f6103a6565b60405160208082528190810183818151815260200191508051906020019080838360005b8381101561016b578082015183820152602001610153565b50505050905090810190601f1680156101985780820380516001836020036101000a031916815260200191505b509250505060405180910390f35b34156101b157600080fd5b610108600160a060020a0360043516602435610444565b34156101d357600080fd5b6101db6104b0565b60405190815260200160405180910390f35b34156101f857600080fd5b610108600160a060020a03600435811690602435166044356104b6565b341561022057600080fd5b610228610638565b60405160ff909116815260200160405180910390f35b341561024957600080fd5b610108600160a060020a0360043516602435610641565b341561026b57600080fd5b61027660043561074f565b005b341561028357600080fd5b610108600160a060020a0360043516602435610809565b34156102a557600080fd5b6101db600160a060020a0360043516610903565b34156102c457600080fd5b61010861091e565b34156102d757600080fd5b6102df6109a9565b604051600160a060020a03909116815260200160405180910390f35b341561030657600080fd5b61012f6109b8565b341561031957600080fd5b610108600160a060020a0360043516602435610a23565b341561033b57600080fd5b610108600160a060020a0360043516602435610b1e565b341561035d57600080fd5b6101db600160a060020a0360043581169060243516610bc2565b341561038257600080fd5b610276600160a060020a0360043516610bed565b60065460a060020a900460ff1681565b60008054600181600116156101000203166002900480601f01602080910402602001604051908101604052809291908181526020018280546001816001161561010002031660029004801561043c5780601f106104115761010080835404028352916020019161043c565b820191906000526020600020905b81548152906001019060200180831161041f57829003601f168201915b505050505081565b600160a060020a03338116600081815260056020908152604080832094871680845294909152808220859055909291907f8c5be1e5ebec7d5bd14f71427d1e84f3dd0314c0f7b2291e5b200ac8c7c3b9259085905190815260200160405180910390a350600192915050565b60045490565b6000600160a060020a03831615156104cd57600080fd5b600160a060020a0384166000908152600360205260409020548211156104f257600080fd5b600160a060020a038085166000908152600560209081526040808320339094168352929052205482111561052557600080fd5b600160a060020a03841660009081526003602052604090205461054e908363ffffffff610c8816565b600160a060020a038086166000908152600360205260408082209390935590851681522054610583908363ffffffff610c9a16565b600160a060020a038085166000908152600360209081526040808320949094558783168252600581528382203390931682529190915220546105cb908363ffffffff610c8816565b600160a060020a03808616600081815260056020908152604080832033861684529091529081902093909355908516917fddf252ad1be2c89b69c2b068fc378daa952ba7f163c4a11628f55a4df523b3ef9085905190815260200160405180910390a35060019392505050565b60025460ff1681565b60065460009033600160a060020a0390811691161461065f57600080fd5b60065460a060020a900460ff161561067657600080fd5b600454610689908363ffffffff610c9a16565b600455600160a060020a0383166000908152600360205260409020546106b5908363ffffffff610c9a16565b600160a060020a0384166000818152600360205260409081902092909255907f0f6798a560793a54c3bcfe86a93cde1e73087d944c0ea20544137d41213968859084905190815260200160405180910390a2600160a060020a03831660007fddf252ad1be2c89b69c2b068fc378daa952ba7f163c4a11628f55a4df523b3ef8460405190815260200160405180910390a350600192915050565b600160a060020a03331660009081526003602052604081205482111561077457600080fd5b5033600160a060020a0381166000908152600360205260409020546107999083610c88565b600160a060020a0382166000908152600360205260409020556004546107c5908363ffffffff610c8816565b600455600160a060020a0381167fcc16f5dbb4873280815c1ee09dbd06736cffcc184412cf7a71a0fdb75d397ca58360405190815260200160405180910390a25050565b600160a060020a0333811660009081526005602090815260408083209386168352929052908120548083111561086657600160a060020a03338116600090815260056020908152604080832093881683529290529081205561089d565b610876818463ffffffff610c8816565b600160a060020a033381166000908152600560209081526040808320938916835292905220555b600160a060020a0333811660008181526005602090815260408083209489168084529490915290819020547f8c5be1e5ebec7d5bd14f71427d1e84f3dd0314c0f7b2291e5b200ac8c7c3b925915190815260200160405180910390a35060019392505050565b600160a060020a031660009081526003602052604090205490565b60065460009033600160a060020a0390811691161461093c57600080fd5b60065460a060020a900460ff161561095357600080fd5b6006805474ff0000000000000000000000000000000000000000191660a060020a1790557fae5184fba832cb2b1f702aca6117b8d265eaf03ad33eb133f19dde0f5920fa0860405160405180910390a150600190565b600654600160a060020a031681565b60018054600181600116156101000203166002900480601f01602080910402602001604051908101604052809291908181526020018280546001816001161561010002031660029004801561043c5780601f106104115761010080835404028352916020019161043c565b6000600160a060020a0383161515610a3a57600080fd5b600160a060020a033316600090815260036020526040902054821115610a5f57600080fd5b600160a060020a033316600090815260036020526040902054610a88908363ffffffff610c8816565b600160a060020a033381166000908152600360205260408082209390935590851681522054610abd908363ffffffff610c9a16565b600160a060020a0380851660008181526003602052604090819020939093559133909116907fddf252ad1be2c89b69c2b068fc378daa952ba7f163c4a11628f55a4df523b3ef9085905190815260200160405180910390a350600192915050565b600160a060020a033381166000908152600560209081526040808320938616835292905290812054610b56908363ffffffff610c9a16565b600160a060020a0333811660008181526005602090815260408083209489168084529490915290819020849055919290917f8c5be1e5ebec7d5bd14f71427d1e84f3dd0314c0f7b2291e5b200ac8c7c3b92591905190815260200160405180910390a350600192915050565b600160a060020a03918216600090815260056020908152604080832093909416825291909152205490565b60065433600160a060020a03908116911614610c0857600080fd5b600160a060020a0381161515610c1d57600080fd5b600654600160a060020a0380831691167f8be0079c531659141344cd1fd0a4f28419497f9722a3daafe3b4186f6b6457e060405160405180910390a36006805473ffffffffffffffffffffffffffffffffffffffff1916600160a060020a0392909216919091179055565b600082821115610c9457fe5b50900390565b600082820183811015610ca957fe5b93925050505600a165627a7a72305820643f43062aeb62b46dd522f1c26aca5664d76719292922269da031e169dbff560029",
  "source": "pragma solidity ^0.4.19;\n\nimport \"zeppelin-solidity/contracts/token/ERC20/DetailedERC20.sol\";\nimport \"zeppelin-solidity/contracts/token/ERC20/BurnableToken.sol\";\nimport \"zeppelin-solidity/contracts/token/ERC20/MintableToken.sol\";\n\n\ncontract ERC20Token is DetailedERC20, MintableToken, BurnableToken {\n\n    function ERC20Token(string _name, string _symbol, uint8 _decimals)\n    DetailedERC20 (_name, _symbol, _decimals)\n    public\n    {\n\n    }\n}\n",
  "sourcePath": "/Users/vittominacori/Projects/solidity/erc20-generator/contracts/ERC20Token.sol",
  "compiler": {
    "name": "solc",
    "version": "0.4.19+commit.c4cbbb05.Emscripten.clang"
  },
  "schemaVersion": "2.0.0",
  "updatedAt": "2018-03-12T18:47:01.259Z"
}