{
  "contractName": "ERC20Token",
  "abi": [
    {
      "constant": true,
      "inputs": [],
      "name": "mintingFinished",
      "outputs": [
        {
          "name": "",
          "type": "bool"
        }
      ],
      "payable": false,
      "stateMutability": "view",
      "type": "function"
    },
    {
      "constant": true,
      "inputs": [],
      "name": "name",
      "outputs": [
        {
          "name": "",
          "type": "string"
        }
      ],
      "payable": false,
      "stateMutability": "view",
      "type": "function"
    },
    {
      "constant": false,
      "inputs": [
        {
          "name": "_spender",
          "type": "address"
        },
        {
          "name": "_value",
          "type": "uint256"
        }
      ],
      "name": "approve",
      "outputs": [
        {
          "name": "",
          "type": "bool"
        }
      ],
      "payable": false,
      "stateMutability": "nonpayable",
      "type": "function"
    },
    {
      "constant": true,
      "inputs": [
        {
          "name": "addr",
          "type": "address"
        },
        {
          "name": "roleName",
          "type": "string"
        }
      ],
      "name": "checkRole",
      "outputs": [],
      "payable": false,
      "stateMutability": "view",
      "type": "function"
    },
    {
      "constant": true,
      "inputs": [],
      "name": "totalSupply",
      "outputs": [
        {
          "name": "",
          "type": "uint256"
        }
      ],
      "payable": false,
      "stateMutability": "view",
      "type": "function"
    },
    {
      "constant": true,
      "inputs": [
        {
          "name": "addr",
          "type": "address"
        },
        {
          "name": "roleName",
          "type": "string"
        }
      ],
      "name": "hasRole",
      "outputs": [
        {
          "name": "",
          "type": "bool"
        }
      ],
      "payable": false,
      "stateMutability": "view",
      "type": "function"
    },
    {
      "constant": false,
      "inputs": [
        {
          "name": "_from",
          "type": "address"
        },
        {
          "name": "_to",
          "type": "address"
        },
        {
          "name": "_value",
          "type": "uint256"
        }
      ],
      "name": "transferFrom",
      "outputs": [
        {
          "name": "",
          "type": "bool"
        }
      ],
      "payable": false,
      "stateMutability": "nonpayable",
      "type": "function"
    },
    {
      "constant": false,
      "inputs": [
        {
          "name": "minter",
          "type": "address"
        }
      ],
      "name": "removeMinter",
      "outputs": [],
      "payable": false,
      "stateMutability": "nonpayable",
      "type": "function"
    },
    {
      "constant": true,
      "inputs": [],
      "name": "decimals",
      "outputs": [
        {
          "name": "",
          "type": "uint8"
        }
      ],
      "payable": false,
      "stateMutability": "view",
      "type": "function"
    },
    {
      "constant": false,
      "inputs": [
        {
          "name": "_to",
          "type": "address"
        },
        {
          "name": "_amount",
          "type": "uint256"
        }
      ],
      "name": "mint",
      "outputs": [
        {
          "name": "",
          "type": "bool"
        }
      ],
      "payable": false,
      "stateMutability": "nonpayable",
      "type": "function"
    },
    {
      "constant": false,
      "inputs": [
        {
          "name": "_value",
          "type": "uint256"
        }
      ],
      "name": "burn",
      "outputs": [],
      "payable": false,
      "stateMutability": "nonpayable",
      "type": "function"
    },
    {
      "constant": false,
      "inputs": [
        {
          "name": "_spender",
          "type": "address"
        },
        {
          "name": "_subtractedValue",
          "type": "uint256"
        }
      ],
      "name": "decreaseApproval",
      "outputs": [
        {
          "name": "",
          "type": "bool"
        }
      ],
      "payable": false,
      "stateMutability": "nonpayable",
      "type": "function"
    },
    {
      "constant": true,
      "inputs": [
        {
          "name": "_owner",
          "type": "address"
        }
      ],
      "name": "balanceOf",
      "outputs": [
        {
          "name": "",
          "type": "uint256"
        }
      ],
      "payable": false,
      "stateMutability": "view",
      "type": "function"
    },
    {
      "constant": false,
      "inputs": [],
      "name": "renounceOwnership",
      "outputs": [],
      "payable": false,
      "stateMutability": "nonpayable",
      "type": "function"
    },
    {
      "constant": false,
      "inputs": [],
      "name": "finishMinting",
      "outputs": [
        {
          "name": "",
          "type": "bool"
        }
      ],
      "payable": false,
      "stateMutability": "nonpayable",
      "type": "function"
    },
    {
      "constant": true,
      "inputs": [],
      "name": "owner",
      "outputs": [
        {
          "name": "",
          "type": "address"
        }
      ],
      "payable": false,
      "stateMutability": "view",
      "type": "function"
    },
    {
      "constant": true,
      "inputs": [],
      "name": "ROLE_MINTER",
      "outputs": [
        {
          "name": "",
          "type": "string"
        }
      ],
      "payable": false,
      "stateMutability": "view",
      "type": "function"
    },
    {
      "constant": true,
      "inputs": [],
      "name": "symbol",
      "outputs": [
        {
          "name": "",
          "type": "string"
        }
      ],
      "payable": false,
      "stateMutability": "view",
      "type": "function"
    },
    {
      "constant": false,
      "inputs": [
        {
          "name": "minter",
          "type": "address"
        }
      ],
      "name": "addMinter",
      "outputs": [],
      "payable": false,
      "stateMutability": "nonpayable",
      "type": "function"
    },
    {
      "constant": false,
      "inputs": [
        {
          "name": "_to",
          "type": "address"
        },
        {
          "name": "_value",
          "type": "uint256"
        }
      ],
      "name": "transfer",
      "outputs": [
        {
          "name": "",
          "type": "bool"
        }
      ],
      "payable": false,
      "stateMutability": "nonpayable",
      "type": "function"
    },
    {
      "constant": true,
      "inputs": [],
      "name": "builtOn",
      "outputs": [
        {
          "name": "",
          "type": "string"
        }
      ],
      "payable": false,
      "stateMutability": "view",
      "type": "function"
    },
    {
      "constant": false,
      "inputs": [
        {
          "name": "_spender",
          "type": "address"
        },
        {
          "name": "_addedValue",
          "type": "uint256"
        }
      ],
      "name": "increaseApproval",
      "outputs": [
        {
          "name": "",
          "type": "bool"
        }
      ],
      "payable": false,
      "stateMutability": "nonpayable",
      "type": "function"
    },
    {
      "constant": true,
      "inputs": [
        {
          "name": "_owner",
          "type": "address"
        },
        {
          "name": "_spender",
          "type": "address"
        }
      ],
      "name": "allowance",
      "outputs": [
        {
          "name": "",
          "type": "uint256"
        }
      ],
      "payable": false,
      "stateMutability": "view",
      "type": "function"
    },
    {
      "constant": false,
      "inputs": [
        {
          "name": "_newOwner",
          "type": "address"
        }
      ],
      "name": "transferOwnership",
      "outputs": [],
      "payable": false,
      "stateMutability": "nonpayable",
      "type": "function"
    },
    {
      "inputs": [
        {
          "name": "_name",
          "type": "string"
        },
        {
          "name": "_symbol",
          "type": "string"
        },
        {
          "name": "_decimals",
          "type": "uint8"
        },
        {
          "name": "_initialAmount",
          "type": "uint256"
        }
      ],
      "payable": false,
      "stateMutability": "nonpayable",
      "type": "constructor"
    },
    {
      "anonymous": false,
      "inputs": [
        {
          "indexed": true,
          "name": "burner",
          "type": "address"
        },
        {
          "indexed": false,
          "name": "value",
          "type": "uint256"
        }
      ],
      "name": "Burn",
      "type": "event"
    },
    {
      "anonymous": false,
      "inputs": [
        {
          "indexed": false,
          "name": "addr",
          "type": "address"
        },
        {
          "indexed": false,
          "name": "roleName",
          "type": "string"
        }
      ],
      "name": "RoleAdded",
      "type": "event"
    },
    {
      "anonymous": false,
      "inputs": [
        {
          "indexed": false,
          "name": "addr",
          "type": "address"
        },
        {
          "indexed": false,
          "name": "roleName",
          "type": "string"
        }
      ],
      "name": "RoleRemoved",
      "type": "event"
    },
    {
      "anonymous": false,
      "inputs": [
        {
          "indexed": true,
          "name": "to",
          "type": "address"
        },
        {
          "indexed": false,
          "name": "amount",
          "type": "uint256"
        }
      ],
      "name": "Mint",
      "type": "event"
    },
    {
      "anonymous": false,
      "inputs": [],
      "name": "MintFinished",
      "type": "event"
    },
    {
      "anonymous": false,
      "inputs": [
        {
          "indexed": true,
          "name": "previousOwner",
          "type": "address"
        }
      ],
      "name": "OwnershipRenounced",
      "type": "event"
    },
    {
      "anonymous": false,
      "inputs": [
        {
          "indexed": true,
          "name": "previousOwner",
          "type": "address"
        },
        {
          "indexed": true,
          "name": "newOwner",
          "type": "address"
        }
      ],
      "name": "OwnershipTransferred",
      "type": "event"
    },
    {
      "anonymous": false,
      "inputs": [
        {
          "indexed": true,
          "name": "owner",
          "type": "address"
        },
        {
          "indexed": true,
          "name": "spender",
          "type": "address"
        },
        {
          "indexed": false,
          "name": "value",
          "type": "uint256"
        }
      ],
      "name": "Approval",
      "type": "event"
    },
    {
      "anonymous": false,
      "inputs": [
        {
          "indexed": true,
          "name": "from",
          "type": "address"
        },
        {
          "indexed": true,
          "name": "to",
          "type": "address"
        },
        {
          "indexed": false,
          "name": "value",
          "type": "uint256"
        }
      ],
      "name": "Transfer",
      "type": "event"
    },
    {
      "constant": false,
      "inputs": [
        {
          "name": "_tokenAddress",
          "type": "address"
        },
        {
          "name": "_tokens",
          "type": "uint256"
        }
      ],
      "name": "transferAnyERC20Token",
      "outputs": [
        {
          "name": "success",
          "type": "bool"
        }
      ],
      "payable": false,
      "stateMutability": "nonpayable",
      "type": "function"
    }
  ],
  "bytecode": "0x6006805460a060020a60ff021916905560e0604052602f60808190527f68747470733a2f2f766974746f6d696e61636f72692e6769746875622e696f2f60a09081527f65726332302d67656e657261746f72000000000000000000000000000000000060c05262000074916008919062000345565b503480156200008257600080fd5b5060405162001890380380620018908339810160409081528151602080840151928401516060850151928501805190959490940193909291859185918591620000d2916000919086019062000345565b508151620000e890600190602085019062000345565b506002805460ff90921660ff19909216919091179055505060068054600160a060020a031916331790556000811115620001555760025460068054600160a060020a0390811660009081526003602052604080822060ff909516600a0a8602909455915416815220546004555b6006546200017590600160a060020a03166401000000006200017f810204565b50505050620003ea565b600654600160a060020a031633146200019757600080fd5b620001e7816040805190810160405280600681526020017f6d696e7465720000000000000000000000000000000000000000000000000000815250620001ea640100000000026401000000009004565b50565b62000266826007836040518082805190602001908083835b60208310620002235780518252601f19909201916020918201910162000202565b51815160209384036101000a6000190180199092169116179052920194855250604051938490030190922092915050640100000000620003208102620014051704565b7fbfec83d64eaa953f2708271a023ab9ee82057f8f3578d548c1a4ba0b5b70048982826040518083600160a060020a0316600160a060020a0316815260200180602001828103825283818151815260200191508051906020019080838360005b83811015620002e0578181015183820152602001620002c6565b50505050905090810190601f1680156200030e5780820380516001836020036101000a031916815260200191505b50935050505060405180910390a15050565b600160a060020a0316600090815260209190915260409020805460ff19166001179055565b828054600181600116156101000203166002900490600052602060002090601f016020900481019282601f106200038857805160ff1916838001178555620003b8565b82800160010185558215620003b8579182015b82811115620003b85782518255916020019190600101906200039b565b50620003c6929150620003ca565b5090565b620003e791905b80821115620003c65760008155600101620003d1565b90565b61149680620003fa6000396000f3006080604052600436106101485763ffffffff7c010000000000000000000000000000000000000000000000000000000060003504166305d2035b811461014d57806306fdde0314610176578063095ea7b3146102005780630988ca8c1461022457806318160ddd1461028d578063217fe6c6146102b457806323b872dd1461031b5780633092afd514610345578063313ce5671461036657806340c10f191461039157806342966c68146103b557806366188463146103cd57806370a08231146103f1578063715018a6146104125780637d64bcb4146104275780638da5cb5b1461043c57806392afc33a1461046d57806395d89b4114610482578063983b2d5614610497578063a9059cbb146104b8578063b60b7084146104dc578063d73dd623146104f1578063dc39d06d14610515578063dd62ed3e14610539578063f2fde38b14610560575b600080fd5b34801561015957600080fd5b50610162610581565b604080519115158252519081900360200190f35b34801561018257600080fd5b5061018b6105a2565b6040805160208082528351818301528351919283929083019185019080838360005b838110156101c55781810151838201526020016101ad565b50505050905090810190601f1680156101f25780820380516001836020036101000a031916815260200191505b509250505060405180910390f35b34801561020c57600080fd5b50610162600160a060020a0360043516602435610630565b34801561023057600080fd5b5060408051602060046024803582810135601f810185900485028601850190965285855261028b958335600160a060020a03169536956044949193909101919081908401838280828437509497506106969650505050505050565b005b34801561029957600080fd5b506102a2610704565b60408051918252519081900360200190f35b3480156102c057600080fd5b5060408051602060046024803582810135601f8101859004850286018501909652858552610162958335600160a060020a031695369560449491939091019190819084018382808284375094975061070a9650505050505050565b34801561032757600080fd5b50610162600160a060020a036004358116906024351660443561077d565b34801561035157600080fd5b5061028b600160a060020a03600435166108e4565b34801561037257600080fd5b5061037b61092b565b6040805160ff9092168252519081900360200190f35b34801561039d57600080fd5b50610162600160a060020a0360043516602435610934565b3480156103c157600080fd5b5061028b600435610a54565b3480156103d957600080fd5b50610162600160a060020a0360043516602435610a5e565b3480156103fd57600080fd5b506102a2600160a060020a0360043516610b4e565b34801561041e57600080fd5b5061028b610b69565b34801561043357600080fd5b50610162610bd7565b34801561044857600080fd5b50610451610c7d565b60408051600160a060020a039092168252519081900360200190f35b34801561047957600080fd5b5061018b610c8c565b34801561048e57600080fd5b5061018b610cb1565b3480156104a357600080fd5b5061028b600160a060020a0360043516610d0b565b3480156104c457600080fd5b50610162600160a060020a0360043516602435610d4f565b3480156104e857600080fd5b5061018b610e20565b3480156104fd57600080fd5b50610162600160a060020a0360043516602435610e7b565b34801561052157600080fd5b50610162600160a060020a0360043516602435610f14565b34801561054557600080fd5b506102a2600160a060020a0360043581169060243516610fd0565b34801561056c57600080fd5b5061028b600160a060020a0360043516610ffb565b60065474010000000000000000000000000000000000000000900460ff1681565b6000805460408051602060026001851615610100026000190190941693909304601f810184900484028201840190925281815292918301828280156106285780601f106105fd57610100808354040283529160200191610628565b820191906000526020600020905b81548152906001019060200180831161060b57829003601f168201915b505050505081565b336000818152600560209081526040808320600160a060020a038716808552908352818420869055815186815291519394909390927f8c5be1e5ebec7d5bd14f71427d1e84f3dd0314c0f7b2291e5b200ac8c7c3b925928290030190a350600192915050565b610700826007836040518082805190602001908083835b602083106106cc5780518252601f1990920191602091820191016106ad565b51815160209384036101000a600019018019909216911617905292019485525060405193849003019092209291505061101b565b5050565b60045490565b6000610776836007846040518082805190602001908083835b602083106107425780518252601f199092019160209182019101610723565b51815160209384036101000a6000190180199092169116179052920194855250604051938490030190922092915050611030565b9392505050565b6000600160a060020a038316151561079457600080fd5b600160a060020a0384166000908152600360205260409020548211156107b957600080fd5b600160a060020a03841660009081526005602090815260408083203384529091529020548211156107e957600080fd5b600160a060020a038416600090815260036020526040902054610812908363ffffffff61104f16565b600160a060020a038086166000908152600360205260408082209390935590851681522054610847908363ffffffff61106116565b600160a060020a03808516600090815260036020908152604080832094909455918716815260058252828120338252909152205461088b908363ffffffff61104f16565b600160a060020a038086166000818152600560209081526040808320338452825291829020949094558051868152905192871693919260008051602061144b833981519152929181900390910190a35060019392505050565b600654600160a060020a031633146108fb57600080fd5b6109288160408051908101604052806006815260200160008051602061142b833981519152815250611074565b50565b60025460ff1681565b60006109633360408051908101604052806006815260200160008051602061142b833981519152815250610696565b60065474010000000000000000000000000000000000000000900460ff161561098b57600080fd5b60045461099e908363ffffffff61106116565b600455600160a060020a0383166000908152600360205260409020546109ca908363ffffffff61106116565b600160a060020a038416600081815260036020908152604091829020939093558051858152905191927f0f6798a560793a54c3bcfe86a93cde1e73087d944c0ea20544137d412139688592918290030190a2604080518381529051600160a060020a0385169160009160008051602061144b8339815191529181900360200190a350600192915050565b6109283382611195565b336000908152600560209081526040808320600160a060020a038616845290915281205480831115610ab357336000908152600560209081526040808320600160a060020a0388168452909152812055610ae8565b610ac3818463ffffffff61104f16565b336000908152600560209081526040808320600160a060020a03891684529091529020555b336000818152600560209081526040808320600160a060020a0389168085529083529281902054815190815290519293927f8c5be1e5ebec7d5bd14f71427d1e84f3dd0314c0f7b2291e5b200ac8c7c3b925929181900390910190a35060019392505050565b600160a060020a031660009081526003602052604090205490565b600654600160a060020a03163314610b8057600080fd5b600654604051600160a060020a03909116907ff8df31144d9c2f0f6b59d69b8b98abd5459d07f2742c4df920b25aae33c6482090600090a26006805473ffffffffffffffffffffffffffffffffffffffff19169055565b600654600090600160a060020a03163314610bf157600080fd5b60065474010000000000000000000000000000000000000000900460ff1615610c1957600080fd5b6006805474ff00000000000000000000000000000000000000001916740100000000000000000000000000000000000000001790556040517fae5184fba832cb2b1f702aca6117b8d265eaf03ad33eb133f19dde0f5920fa0890600090a150600190565b600654600160a060020a031681565b604080518082019091526006815260008051602061142b833981519152602082015281565b60018054604080516020600284861615610100026000190190941693909304601f810184900484028201840190925281815292918301828280156106285780601f106105fd57610100808354040283529160200191610628565b600654600160a060020a03163314610d2257600080fd5b6109288160408051908101604052806006815260200160008051602061142b833981519152815250611284565b6000600160a060020a0383161515610d6657600080fd5b33600090815260036020526040902054821115610d8257600080fd5b33600090815260036020526040902054610da2908363ffffffff61104f16565b3360009081526003602052604080822092909255600160a060020a03851681522054610dd4908363ffffffff61106116565b600160a060020a03841660008181526003602090815260409182902093909355805185815290519192339260008051602061144b8339815191529281900390910190a350600192915050565b6008805460408051602060026001851615610100026000190190941693909304601f810184900484028201840190925281815292918301828280156106285780601f106105fd57610100808354040283529160200191610628565b336000908152600560209081526040808320600160a060020a0386168452909152812054610eaf908363ffffffff61106116565b336000818152600560209081526040808320600160a060020a0389168085529083529281902085905580519485525191937f8c5be1e5ebec7d5bd14f71427d1e84f3dd0314c0f7b2291e5b200ac8c7c3b925929081900390910190a350600192915050565b600654600090600160a060020a03163314610f2e57600080fd5b600654604080517fa9059cbb000000000000000000000000000000000000000000000000000000008152600160a060020a0392831660048201526024810185905290519185169163a9059cbb916044808201926020929091908290030181600087803b158015610f9d57600080fd5b505af1158015610fb1573d6000803e3d6000fd5b505050506040513d6020811015610fc757600080fd5b50519392505050565b600160a060020a03918216600090815260056020908152604080832093909416825291909152205490565b600654600160a060020a0316331461101257600080fd5b61092881611365565b6110258282611030565b151561070057600080fd5b600160a060020a03166000908152602091909152604090205460ff1690565b60008282111561105b57fe5b50900390565b8181018281101561106e57fe5b92915050565b6110de826007836040518082805190602001908083835b602083106110aa5780518252601f19909201916020918201910161108b565b51815160209384036101000a60001901801990921691161790529201948552506040519384900301909220929150506113e3565b7fd211483f91fc6eff862467f8de606587a30c8fc9981056f051b897a418df803a82826040518083600160a060020a0316600160a060020a0316815260200180602001828103825283818151815260200191508051906020019080838360005b8381101561115657818101518382015260200161113e565b50505050905090810190601f1680156111835780820380516001836020036101000a031916815260200191505b50935050505060405180910390a15050565b600160a060020a0382166000908152600360205260409020548111156111ba57600080fd5b600160a060020a0382166000908152600360205260409020546111e3908263ffffffff61104f16565b600160a060020a03831660009081526003602052604090205560045461120f908263ffffffff61104f16565b600455604080518281529051600160a060020a038416917fcc16f5dbb4873280815c1ee09dbd06736cffcc184412cf7a71a0fdb75d397ca5919081900360200190a2604080518281529051600091600160a060020a0385169160008051602061144b8339815191529181900360200190a35050565b6112ee826007836040518082805190602001908083835b602083106112ba5780518252601f19909201916020918201910161129b565b51815160209384036101000a6000190180199092169116179052920194855250604051938490030190922092915050611405565b7fbfec83d64eaa953f2708271a023ab9ee82057f8f3578d548c1a4ba0b5b70048982826040518083600160a060020a0316600160a060020a0316815260200180602001828103825283818151815260200191508051906020019080838360008381101561115657818101518382015260200161113e565b600160a060020a038116151561137a57600080fd5b600654604051600160a060020a038084169216907f8be0079c531659141344cd1fd0a4f28419497f9722a3daafe3b4186f6b6457e090600090a36006805473ffffffffffffffffffffffffffffffffffffffff1916600160a060020a0392909216919091179055565b600160a060020a0316600090815260209190915260409020805460ff19169055565b600160a060020a0316600090815260209190915260409020805460ff1916600117905556006d696e7465720000000000000000000000000000000000000000000000000000ddf252ad1be2c89b69c2b068fc378daa952ba7f163c4a11628f55a4df523b3efa165627a7a723058200032894724f1cc3b8720205e7214bb9ca0b2437e4afa2f0c90aad437fab5b6520029",
  "source": "pragma solidity ^0.4.24;\n\nimport \"openzeppelin-solidity/contracts/token/ERC20/DetailedERC20.sol\";\nimport \"openzeppelin-solidity/contracts/token/ERC20/RBACMintableToken.sol\";\nimport \"openzeppelin-solidity/contracts/token/ERC20/BurnableToken.sol\";\n\n\ncontract ERC20Token is DetailedERC20, RBACMintableToken, BurnableToken {\n\n  string public builtOn = \"https://vittominacori.github.io/erc20-generator\";\n\n  constructor(\n    string _name,\n    string _symbol,\n    uint8 _decimals,\n    uint256 _initialAmount\n  )\n  DetailedERC20 (_name, _symbol, _decimals)\n  public\n  {\n    if (_initialAmount > 0) {\n      balances[owner] = _initialAmount * (10 ** uint256(decimals));\n      totalSupply_ = balances[owner];\n    }\n\n    addMinter(owner);\n  }\n\n  function transferAnyERC20Token(address _tokenAddress, uint256 _tokens) onlyOwner public returns (bool success) {\n    return ERC20Basic(_tokenAddress).transfer(owner, _tokens);\n  }\n}\n",
  "sourcePath": "/Users/vittominacori/Projects/vittominacori.github.io/erc20-generator/smart-contracts/contracts/ERC20Token.sol",
  "compiler": {
    "name": "solc",
    "version": "0.4.24+commit.e67f0147.Emscripten.clang"
  },
  "schemaVersion": "2.0.0",
  "updatedAt": "2018-06-06T14:08:39.135Z"
}