{
  "contractName": "ERC20Token",
  "abi": [
    {
      "constant": true,
      "inputs": [],
      "name": "mintingFinished",
      "outputs": [
        {
          "name": "",
          "type": "bool"
        }
      ],
      "payable": false,
      "stateMutability": "view",
      "type": "function"
    },
    {
      "constant": true,
      "inputs": [],
      "name": "name",
      "outputs": [
        {
          "name": "",
          "type": "string"
        }
      ],
      "payable": false,
      "stateMutability": "view",
      "type": "function"
    },
    {
      "constant": false,
      "inputs": [
        {
          "name": "_spender",
          "type": "address"
        },
        {
          "name": "_value",
          "type": "uint256"
        }
      ],
      "name": "approve",
      "outputs": [
        {
          "name": "",
          "type": "bool"
        }
      ],
      "payable": false,
      "stateMutability": "nonpayable",
      "type": "function"
    },
    {
      "constant": true,
      "inputs": [
        {
          "name": "addr",
          "type": "address"
        },
        {
          "name": "roleName",
          "type": "string"
        }
      ],
      "name": "checkRole",
      "outputs": [],
      "payable": false,
      "stateMutability": "view",
      "type": "function"
    },
    {
      "constant": true,
      "inputs": [],
      "name": "totalSupply",
      "outputs": [
        {
          "name": "",
          "type": "uint256"
        }
      ],
      "payable": false,
      "stateMutability": "view",
      "type": "function"
    },
    {
      "constant": true,
      "inputs": [
        {
          "name": "addr",
          "type": "address"
        },
        {
          "name": "roleName",
          "type": "string"
        }
      ],
      "name": "hasRole",
      "outputs": [
        {
          "name": "",
          "type": "bool"
        }
      ],
      "payable": false,
      "stateMutability": "view",
      "type": "function"
    },
    {
      "constant": false,
      "inputs": [
        {
          "name": "_from",
          "type": "address"
        },
        {
          "name": "_to",
          "type": "address"
        },
        {
          "name": "_value",
          "type": "uint256"
        }
      ],
      "name": "transferFrom",
      "outputs": [
        {
          "name": "",
          "type": "bool"
        }
      ],
      "payable": false,
      "stateMutability": "nonpayable",
      "type": "function"
    },
    {
      "constant": true,
      "inputs": [],
      "name": "decimals",
      "outputs": [
        {
          "name": "",
          "type": "uint8"
        }
      ],
      "payable": false,
      "stateMutability": "view",
      "type": "function"
    },
    {
      "constant": false,
      "inputs": [
        {
          "name": "_value",
          "type": "uint256"
        }
      ],
      "name": "burn",
      "outputs": [],
      "payable": false,
      "stateMutability": "nonpayable",
      "type": "function"
    },
    {
      "constant": false,
      "inputs": [
        {
          "name": "_spender",
          "type": "address"
        },
        {
          "name": "_subtractedValue",
          "type": "uint256"
        }
      ],
      "name": "decreaseApproval",
      "outputs": [
        {
          "name": "",
          "type": "bool"
        }
      ],
      "payable": false,
      "stateMutability": "nonpayable",
      "type": "function"
    },
    {
      "constant": true,
      "inputs": [
        {
          "name": "_owner",
          "type": "address"
        }
      ],
      "name": "balanceOf",
      "outputs": [
        {
          "name": "balance",
          "type": "uint256"
        }
      ],
      "payable": false,
      "stateMutability": "view",
      "type": "function"
    },
    {
      "constant": false,
      "inputs": [],
      "name": "finishMinting",
      "outputs": [
        {
          "name": "",
          "type": "bool"
        }
      ],
      "payable": false,
      "stateMutability": "nonpayable",
      "type": "function"
    },
    {
      "constant": false,
      "inputs": [
        {
          "name": "addr",
          "type": "address"
        },
        {
          "name": "roleName",
          "type": "string"
        }
      ],
      "name": "adminRemoveRole",
      "outputs": [],
      "payable": false,
      "stateMutability": "nonpayable",
      "type": "function"
    },
    {
      "constant": true,
      "inputs": [],
      "name": "owner",
      "outputs": [
        {
          "name": "",
          "type": "address"
        }
      ],
      "payable": false,
      "stateMutability": "view",
      "type": "function"
    },
    {
      "constant": true,
      "inputs": [],
      "name": "ROLE_MINTER",
      "outputs": [
        {
          "name": "",
          "type": "string"
        }
      ],
      "payable": false,
      "stateMutability": "view",
      "type": "function"
    },
    {
      "constant": true,
      "inputs": [],
      "name": "symbol",
      "outputs": [
        {
          "name": "",
          "type": "string"
        }
      ],
      "payable": false,
      "stateMutability": "view",
      "type": "function"
    },
    {
      "constant": false,
      "inputs": [
        {
          "name": "_to",
          "type": "address"
        },
        {
          "name": "_value",
          "type": "uint256"
        }
      ],
      "name": "transfer",
      "outputs": [
        {
          "name": "",
          "type": "bool"
        }
      ],
      "payable": false,
      "stateMutability": "nonpayable",
      "type": "function"
    },
    {
      "constant": false,
      "inputs": [
        {
          "name": "addr",
          "type": "address"
        },
        {
          "name": "roleName",
          "type": "string"
        }
      ],
      "name": "adminAddRole",
      "outputs": [],
      "payable": false,
      "stateMutability": "nonpayable",
      "type": "function"
    },
    {
      "constant": true,
      "inputs": [],
      "name": "builtOn",
      "outputs": [
        {
          "name": "",
          "type": "string"
        }
      ],
      "payable": false,
      "stateMutability": "view",
      "type": "function"
    },
    {
      "constant": true,
      "inputs": [],
      "name": "ROLE_ADMIN",
      "outputs": [
        {
          "name": "",
          "type": "string"
        }
      ],
      "payable": false,
      "stateMutability": "view",
      "type": "function"
    },
    {
      "constant": false,
      "inputs": [
        {
          "name": "_spender",
          "type": "address"
        },
        {
          "name": "_addedValue",
          "type": "uint256"
        }
      ],
      "name": "increaseApproval",
      "outputs": [
        {
          "name": "",
          "type": "bool"
        }
      ],
      "payable": false,
      "stateMutability": "nonpayable",
      "type": "function"
    },
    {
      "constant": true,
      "inputs": [
        {
          "name": "_owner",
          "type": "address"
        },
        {
          "name": "_spender",
          "type": "address"
        }
      ],
      "name": "allowance",
      "outputs": [
        {
          "name": "",
          "type": "uint256"
        }
      ],
      "payable": false,
      "stateMutability": "view",
      "type": "function"
    },
    {
      "constant": false,
      "inputs": [
        {
          "name": "newOwner",
          "type": "address"
        }
      ],
      "name": "transferOwnership",
      "outputs": [],
      "payable": false,
      "stateMutability": "nonpayable",
      "type": "function"
    },
    {
      "inputs": [
        {
          "name": "_name",
          "type": "string"
        },
        {
          "name": "_symbol",
          "type": "string"
        },
        {
          "name": "_decimals",
          "type": "uint8"
        },
        {
          "name": "_initialAmount",
          "type": "uint256"
        }
      ],
      "payable": false,
      "stateMutability": "nonpayable",
      "type": "constructor"
    },
    {
      "anonymous": false,
      "inputs": [
        {
          "indexed": false,
          "name": "addr",
          "type": "address"
        },
        {
          "indexed": false,
          "name": "roleName",
          "type": "string"
        }
      ],
      "name": "RoleAdded",
      "type": "event"
    },
    {
      "anonymous": false,
      "inputs": [
        {
          "indexed": false,
          "name": "addr",
          "type": "address"
        },
        {
          "indexed": false,
          "name": "roleName",
          "type": "string"
        }
      ],
      "name": "RoleRemoved",
      "type": "event"
    },
    {
      "anonymous": false,
      "inputs": [
        {
          "indexed": true,
          "name": "burner",
          "type": "address"
        },
        {
          "indexed": false,
          "name": "value",
          "type": "uint256"
        }
      ],
      "name": "Burn",
      "type": "event"
    },
    {
      "anonymous": false,
      "inputs": [
        {
          "indexed": true,
          "name": "to",
          "type": "address"
        },
        {
          "indexed": false,
          "name": "amount",
          "type": "uint256"
        }
      ],
      "name": "Mint",
      "type": "event"
    },
    {
      "anonymous": false,
      "inputs": [],
      "name": "MintFinished",
      "type": "event"
    },
    {
      "anonymous": false,
      "inputs": [
        {
          "indexed": true,
          "name": "previousOwner",
          "type": "address"
        },
        {
          "indexed": true,
          "name": "newOwner",
          "type": "address"
        }
      ],
      "name": "OwnershipTransferred",
      "type": "event"
    },
    {
      "anonymous": false,
      "inputs": [
        {
          "indexed": true,
          "name": "owner",
          "type": "address"
        },
        {
          "indexed": true,
          "name": "spender",
          "type": "address"
        },
        {
          "indexed": false,
          "name": "value",
          "type": "uint256"
        }
      ],
      "name": "Approval",
      "type": "event"
    },
    {
      "anonymous": false,
      "inputs": [
        {
          "indexed": true,
          "name": "from",
          "type": "address"
        },
        {
          "indexed": true,
          "name": "to",
          "type": "address"
        },
        {
          "indexed": false,
          "name": "value",
          "type": "uint256"
        }
      ],
      "name": "Transfer",
      "type": "event"
    },
    {
      "constant": false,
      "inputs": [
        {
          "name": "_to",
          "type": "address"
        },
        {
          "name": "_amount",
          "type": "uint256"
        }
      ],
      "name": "mint",
      "outputs": [
        {
          "name": "",
          "type": "bool"
        }
      ],
      "payable": false,
      "stateMutability": "nonpayable",
      "type": "function"
    },
    {
      "constant": false,
      "inputs": [
        {
          "name": "_tokenAddress",
          "type": "address"
        },
        {
          "name": "_tokens",
          "type": "uint256"
        }
      ],
      "name": "transferAnyERC20Token",
      "outputs": [
        {
          "name": "success",
          "type": "bool"
        }
      ],
      "payable": false,
      "stateMutability": "nonpayable",
      "type": "function"
    }
  ],
  "bytecode": "0x606060408181526006805460a060020a60ff02191690555190810160405280602f81526020017f68747470733a2f2f766974746f6d696e61636f72692e6769746875622e696f2f81526020017f65726332302d67656e657261746f72000000000000000000000000000000000081525060089080516200008492916020019062000595565b5034156200009157600080fd5b60405162001b7f38038062001b7f8339810160405280805182019190602001805182019190602001805191906020018051915084905083836000838051620000de92916020019062000595565b506001828051620000f492916020019062000595565b506002805460ff191660ff92909216919091179055505060068054600160a060020a03191633600160a060020a03811691909117909155620001789060408051908101604052600581527f61646d696e00000000000000000000000000000000000000000000000000000060208201526401000000006200139f620001bf82021704565b6000811115620001b557600654600254620001b391600160a060020a03169060ff16600a0a830264010000000062000968620002f182021704565b505b505050506200063a565b62000241826007836040518082805190602001908083835b60208310620001f85780518252601f199092019160209182019101620001d7565b6001836020036101000a03801982511681845116808217855250505050505090500191505090815260200160405190819003902090640100000000620014a4620004b682021704565b7fbfec83d64eaa953f2708271a023ab9ee82057f8f3578d548c1a4ba0b5b7004898282604051600160a060020a038316815260406020820181815290820183818151815260200191508051906020019080838360005b83811015620002b157808201518382015260200162000297565b50505050905090810190601f168015620002df5780820380516001836020036101000a031916815260200191505b50935050505060405180910390a15050565b6000620003403360408051908101604052600581527f61646d696e000000000000000000000000000000000000000000000000000000602082015264010000000062000770620004db82021704565b80620003945750620003943360408051908101604052600681527f6d696e7465720000000000000000000000000000000000000000000000000000602082015264010000000062000770620004db82021704565b1515620003a057600080fd5b60065474010000000000000000000000000000000000000000900460ff1615620003c957600080fd5b600454620003e690836401000000006200126d6200056682021704565b600455600160a060020a0383166000908152600360205260409020546200041c90836401000000006200126d6200056682021704565b600160a060020a0384166000818152600360205260409081902092909255907f0f6798a560793a54c3bcfe86a93cde1e73087d944c0ea20544137d41213968859084905190815260200160405180910390a2600160a060020a03831660007fddf252ad1be2c89b69c2b068fc378daa952ba7f163c4a11628f55a4df523b3ef8460405190815260200160405180910390a350600192915050565b600160a060020a0316600090815260209190915260409020805460ff19166001179055565b60006200055f836007846040518082805190602001908083835b60208310620005165780518252601f199092019160209182019101620004f5565b6001836020036101000a038019825116818451168082178552505050505050905001915050908152602001604051908190039020906401000000006200123c6200057682021704565b9392505050565b6000828201838110156200055f57fe5b600160a060020a03166000908152602091909152604090205460ff1690565b828054600181600116156101000203166002900490600052602060002090601f016020900481019282601f10620005d857805160ff191683800117855562000608565b8280016001018555821562000608579182015b8281111562000608578251825591602001919060010190620005eb565b50620006169291506200061a565b5090565b6200063791905b8082111562000616576000815560010162000621565b90565b611535806200064a6000396000f3006060604052600436106101485763ffffffff7c010000000000000000000000000000000000000000000000000000000060003504166305d2035b811461014d57806306fdde0314610174578063095ea7b3146101fe5780630988ca8c1461022057806318160ddd14610281578063217fe6c6146102a657806323b872dd14610305578063313ce5671461032d57806340c10f191461035657806342966c6814610378578063661884631461038e57806370a08231146103b05780637d64bcb4146103cf57806388cee87e146103e25780638da5cb5b1461044157806392afc33a1461047057806395d89b4114610483578063a9059cbb14610496578063b25fa92c146104b8578063b60b708414610517578063d391014b1461052a578063d73dd6231461053d578063dc39d06d1461055f578063dd62ed3e14610581578063f2fde38b146105a6575b600080fd5b341561015857600080fd5b6101606105c5565b604051901515815260200160405180910390f35b341561017f57600080fd5b6101876105e6565b60405160208082528190810183818151815260200191508051906020019080838360005b838110156101c35780820151838201526020016101ab565b50505050905090810190601f1680156101f05780820380516001836020036101000a031916815260200191505b509250505060405180910390f35b341561020957600080fd5b610160600160a060020a0360043516602435610684565b341561022b57600080fd5b61027f60048035600160a060020a03169060446024803590810190830135806020601f820181900481020160405190810160405281815292919060208401838380828437509496506106f095505050505050565b005b341561028c57600080fd5b61029461076a565b60405190815260200160405180910390f35b34156102b157600080fd5b61016060048035600160a060020a03169060446024803590810190830135806020601f8201819004810201604051908101604052818152929190602084018383808284375094965061077095505050505050565b341561031057600080fd5b610160600160a060020a03600435811690602435166044356107ef565b341561033857600080fd5b61034061095f565b60405160ff909116815260200160405180910390f35b341561036157600080fd5b610160600160a060020a0360043516602435610968565b341561038357600080fd5b61027f600435610ad2565b341561039957600080fd5b610160600160a060020a0360043516602435610bb9565b34156103bb57600080fd5b610294600160a060020a0360043516610cb3565b34156103da57600080fd5b610160610cce565b34156103ed57600080fd5b61027f60048035600160a060020a03169060446024803590810190830135806020601f82018190048102016040519081016040528181529291906020840183838082843750949650610d7b95505050505050565b341561044c57600080fd5b610454610db0565b604051600160a060020a03909116815260200160405180910390f35b341561047b57600080fd5b610187610dbf565b341561048e57600080fd5b610187610df6565b34156104a157600080fd5b610160600160a060020a0360043516602435610e61565b34156104c357600080fd5b61027f60048035600160a060020a03169060446024803590810190830135806020601f82018190048102016040519081016040528181529291906020840183838082843750949650610f4a95505050505050565b341561052257600080fd5b610187610f7f565b341561053557600080fd5b610187610fea565b341561054857600080fd5b610160600160a060020a036004351660243561100f565b341561056a57600080fd5b610160600160a060020a03600435166024356110b3565b341561058c57600080fd5b610294600160a060020a0360043581169060243516611161565b34156105b157600080fd5b61027f600160a060020a036004351661118c565b60065474010000000000000000000000000000000000000000900460ff1681565b60008054600181600116156101000203166002900480601f01602080910402602001604051908101604052809291908181526020018280546001816001161561010002031660029004801561067c5780601f106106515761010080835404028352916020019161067c565b820191906000526020600020905b81548152906001019060200180831161065f57829003601f168201915b505050505081565b600160a060020a03338116600081815260056020908152604080832094871680845294909152808220859055909291907f8c5be1e5ebec7d5bd14f71427d1e84f3dd0314c0f7b2291e5b200ac8c7c3b9259085905190815260200160405180910390a350600192915050565b610766826007836040518082805190602001908083835b602083106107265780518252601f199092019160209182019101610707565b6001836020036101000a0380198251168184511680821785525050505050509050019150509081526020016040519081900390209063ffffffff61122716565b5050565b60045490565b60006107e8836007846040518082805190602001908083835b602083106107a85780518252601f199092019160209182019101610789565b6001836020036101000a0380198251168184511680821785525050505050509050019150509081526020016040519081900390209063ffffffff61123c16565b9392505050565b6000600160a060020a038316151561080657600080fd5b600160a060020a03841660009081526003602052604090205482111561082b57600080fd5b600160a060020a038085166000908152600560209081526040808320339094168352929052205482111561085e57600080fd5b600160a060020a038416600090815260036020526040902054610887908363ffffffff61125b16565b600160a060020a0380861660009081526003602052604080822093909355908516815220546108bc908363ffffffff61126d16565b600160a060020a03808516600090815260036020908152604080832094909455878316825260058152838220339093168252919091522054610904908363ffffffff61125b16565b600160a060020a03808616600081815260056020908152604080832033861684529091529081902093909355908516916000805160206114ea8339815191529085905190815260200160405180910390a35060019392505050565b60025460ff1681565b60006109953360408051908101604052600581526000805160206114ca8339815191526020820152610770565b806109d857506109d83360408051908101604052600681527f6d696e74657200000000000000000000000000000000000000000000000000006020820152610770565b15156109e357600080fd5b60065474010000000000000000000000000000000000000000900460ff1615610a0b57600080fd5b600454610a1e908363ffffffff61126d16565b600455600160a060020a038316600090815260036020526040902054610a4a908363ffffffff61126d16565b600160a060020a0384166000818152600360205260409081902092909255907f0f6798a560793a54c3bcfe86a93cde1e73087d944c0ea20544137d41213968859084905190815260200160405180910390a2600160a060020a03831660006000805160206114ea8339815191528460405190815260200160405180910390a350600192915050565b600160a060020a033316600090815260036020526040812054821115610af757600080fd5b5033600160a060020a038116600090815260036020526040902054610b1c908361125b565b600160a060020a038216600090815260036020526040902055600454610b48908363ffffffff61125b16565b600455600160a060020a0381167fcc16f5dbb4873280815c1ee09dbd06736cffcc184412cf7a71a0fdb75d397ca58360405190815260200160405180910390a26000600160a060020a0382166000805160206114ea8339815191528460405190815260200160405180910390a35050565b600160a060020a03338116600090815260056020908152604080832093861683529290529081205480831115610c1657600160a060020a033381166000908152600560209081526040808320938816835292905290812055610c4d565b610c26818463ffffffff61125b16565b600160a060020a033381166000908152600560209081526040808320938916835292905220555b600160a060020a0333811660008181526005602090815260408083209489168084529490915290819020547f8c5be1e5ebec7d5bd14f71427d1e84f3dd0314c0f7b2291e5b200ac8c7c3b925915190815260200160405180910390a35060019392505050565b600160a060020a031660009081526003602052604090205490565b60065460009033600160a060020a03908116911614610cec57600080fd5b60065474010000000000000000000000000000000000000000900460ff1615610d1457600080fd5b6006805474ff00000000000000000000000000000000000000001916740100000000000000000000000000000000000000001790557fae5184fba832cb2b1f702aca6117b8d265eaf03ad33eb133f19dde0f5920fa0860405160405180910390a150600190565b610da63360408051908101604052600581526000805160206114ca83398151915260208201526106f0565b610766828261127c565b600654600160a060020a031681565b60408051908101604052600681527f6d696e7465720000000000000000000000000000000000000000000000000000602082015281565b60018054600181600116156101000203166002900480601f01602080910402602001604051908101604052809291908181526020018280546001816001161561010002031660029004801561067c5780601f106106515761010080835404028352916020019161067c565b6000600160a060020a0383161515610e7857600080fd5b600160a060020a033316600090815260036020526040902054821115610e9d57600080fd5b600160a060020a033316600090815260036020526040902054610ec6908363ffffffff61125b16565b600160a060020a033381166000908152600360205260408082209390935590851681522054610efb908363ffffffff61126d16565b600160a060020a0380851660008181526003602052604090819020939093559133909116906000805160206114ea8339815191529085905190815260200160405180910390a350600192915050565b610f753360408051908101604052600581526000805160206114ca83398151915260208201526106f0565b610766828261139f565b60088054600181600116156101000203166002900480601f01602080910402602001604051908101604052809291908181526020018280546001816001161561010002031660029004801561067c5780601f106106515761010080835404028352916020019161067c565b60408051908101604052600581526000805160206114ca833981519152602082015281565b600160a060020a033381166000908152600560209081526040808320938616835292905290812054611047908363ffffffff61126d16565b600160a060020a0333811660008181526005602090815260408083209489168084529490915290819020849055919290917f8c5be1e5ebec7d5bd14f71427d1e84f3dd0314c0f7b2291e5b200ac8c7c3b92591905190815260200160405180910390a350600192915050565b60065460009033600160a060020a039081169116146110d157600080fd5b600654600160a060020a038085169163a9059cbb9116846040517c010000000000000000000000000000000000000000000000000000000063ffffffff8516028152600160a060020a0390921660048301526024820152604401602060405180830381600087803b151561114457600080fd5b5af1151561115157600080fd5b5050506040518051949350505050565b600160a060020a03918216600090815260056020908152604080832093909416825291909152205490565b60065433600160a060020a039081169116146111a757600080fd5b600160a060020a03811615156111bc57600080fd5b600654600160a060020a0380831691167f8be0079c531659141344cd1fd0a4f28419497f9722a3daafe3b4186f6b6457e060405160405180910390a36006805473ffffffffffffffffffffffffffffffffffffffff1916600160a060020a0392909216919091179055565b611231828261123c565b151561076657600080fd5b600160a060020a03166000908152602091909152604090205460ff1690565b60008282111561126757fe5b50900390565b6000828201838110156107e857fe5b6112f2826007836040518082805190602001908083835b602083106112b25780518252601f199092019160209182019101611293565b6001836020036101000a0380198251168184511680821785525050505050509050019150509081526020016040519081900390209063ffffffff61148216565b7fd211483f91fc6eff862467f8de606587a30c8fc9981056f051b897a418df803a8282604051600160a060020a038316815260406020820181815290820183818151815260200191508051906020019080838360005b83811015611360578082015183820152602001611348565b50505050905090810190601f16801561138d5780820380516001836020036101000a031916815260200191505b50935050505060405180910390a15050565b611415826007836040518082805190602001908083835b602083106113d55780518252601f1990920191602091820191016113b6565b6001836020036101000a0380198251168184511680821785525050505050509050019150509081526020016040519081900390209063ffffffff6114a416565b7fbfec83d64eaa953f2708271a023ab9ee82057f8f3578d548c1a4ba0b5b7004898282604051600160a060020a0383168152604060208201818152908201838181518152602001915080519060200190808383600083811015611360578082015183820152602001611348565b600160a060020a0316600090815260209190915260409020805460ff19169055565b600160a060020a0316600090815260209190915260409020805460ff19166001179055560061646d696e000000000000000000000000000000000000000000000000000000ddf252ad1be2c89b69c2b068fc378daa952ba7f163c4a11628f55a4df523b3efa165627a7a7230582067910eda666d76b27b5ee8a0be6166c693e932cc4f06dd05f823c385daea4b730029",
  "source": "pragma solidity ^0.4.21;\n\nimport \"zeppelin-solidity/contracts/ownership/rbac/RBAC.sol\";\nimport \"zeppelin-solidity/contracts/token/ERC20/DetailedERC20.sol\";\nimport \"zeppelin-solidity/contracts/token/ERC20/MintableToken.sol\";\nimport \"zeppelin-solidity/contracts/token/ERC20/BurnableToken.sol\";\n\n\ncontract ERC20Token is DetailedERC20, MintableToken, BurnableToken, RBAC {\n\n    string public builtOn = \"https://vittominacori.github.io/erc20-generator\";\n\n    string public constant ROLE_MINTER = \"minter\";\n\n    modifier onlyMinter () {\n        require(hasRole(msg.sender, ROLE_ADMIN) || hasRole(msg.sender, ROLE_MINTER));\n        _;\n    }\n\n    function ERC20Token(\n        string _name,\n        string _symbol,\n        uint8 _decimals,\n        uint256 _initialAmount\n    )\n    DetailedERC20 (_name, _symbol, _decimals)\n    public\n    {\n        if (_initialAmount > 0) {\n            mint(owner, _initialAmount * (10 ** uint256(decimals)));\n        }\n    }\n\n    function mint(address _to, uint256 _amount) onlyMinter canMint public returns (bool) {\n        totalSupply_ = totalSupply_.add(_amount);\n        balances[_to] = balances[_to].add(_amount);\n        emit Mint(_to, _amount);\n        emit Transfer(address(0), _to, _amount);\n        return true;\n    }\n\n    function transferAnyERC20Token(address _tokenAddress, uint256 _tokens) onlyOwner public returns (bool success) {\n        return ERC20Basic(_tokenAddress).transfer(owner, _tokens);\n    }\n}\n",
  "sourcePath": "/Users/vittominacori/Projects/vittominacori.github.io/erc20-generator/smart-contracts/contracts/ERC20Token.sol",
  "compiler": {
    "name": "solc",
    "version": "0.4.21+commit.dfe3193c.Emscripten.clang"
  },
  "schemaVersion": "2.0.0",
  "updatedAt": "2018-04-19T20:30:52.037Z"
}