{
  "contractName": "ERC20Token",
  "abi": [
    {
      "constant": true,
      "inputs": [],
      "name": "mintingFinished",
      "outputs": [
        {
          "name": "",
          "type": "bool"
        }
      ],
      "payable": false,
      "stateMutability": "view",
      "type": "function"
    },
    {
      "constant": true,
      "inputs": [],
      "name": "name",
      "outputs": [
        {
          "name": "",
          "type": "string"
        }
      ],
      "payable": false,
      "stateMutability": "view",
      "type": "function"
    },
    {
      "constant": false,
      "inputs": [
        {
          "name": "_spender",
          "type": "address"
        },
        {
          "name": "_value",
          "type": "uint256"
        }
      ],
      "name": "approve",
      "outputs": [
        {
          "name": "",
          "type": "bool"
        }
      ],
      "payable": false,
      "stateMutability": "nonpayable",
      "type": "function"
    },
    {
      "constant": true,
      "inputs": [
        {
          "name": "addr",
          "type": "address"
        },
        {
          "name": "roleName",
          "type": "string"
        }
      ],
      "name": "checkRole",
      "outputs": [],
      "payable": false,
      "stateMutability": "view",
      "type": "function"
    },
    {
      "constant": true,
      "inputs": [],
      "name": "totalSupply",
      "outputs": [
        {
          "name": "",
          "type": "uint256"
        }
      ],
      "payable": false,
      "stateMutability": "view",
      "type": "function"
    },
    {
      "constant": true,
      "inputs": [
        {
          "name": "addr",
          "type": "address"
        },
        {
          "name": "roleName",
          "type": "string"
        }
      ],
      "name": "hasRole",
      "outputs": [
        {
          "name": "",
          "type": "bool"
        }
      ],
      "payable": false,
      "stateMutability": "view",
      "type": "function"
    },
    {
      "constant": false,
      "inputs": [
        {
          "name": "_from",
          "type": "address"
        },
        {
          "name": "_to",
          "type": "address"
        },
        {
          "name": "_value",
          "type": "uint256"
        }
      ],
      "name": "transferFrom",
      "outputs": [
        {
          "name": "",
          "type": "bool"
        }
      ],
      "payable": false,
      "stateMutability": "nonpayable",
      "type": "function"
    },
    {
      "constant": true,
      "inputs": [],
      "name": "decimals",
      "outputs": [
        {
          "name": "",
          "type": "uint8"
        }
      ],
      "payable": false,
      "stateMutability": "view",
      "type": "function"
    },
    {
      "constant": false,
      "inputs": [
        {
          "name": "_value",
          "type": "uint256"
        }
      ],
      "name": "burn",
      "outputs": [],
      "payable": false,
      "stateMutability": "nonpayable",
      "type": "function"
    },
    {
      "constant": false,
      "inputs": [
        {
          "name": "_spender",
          "type": "address"
        },
        {
          "name": "_subtractedValue",
          "type": "uint256"
        }
      ],
      "name": "decreaseApproval",
      "outputs": [
        {
          "name": "",
          "type": "bool"
        }
      ],
      "payable": false,
      "stateMutability": "nonpayable",
      "type": "function"
    },
    {
      "constant": true,
      "inputs": [
        {
          "name": "_owner",
          "type": "address"
        }
      ],
      "name": "balanceOf",
      "outputs": [
        {
          "name": "",
          "type": "uint256"
        }
      ],
      "payable": false,
      "stateMutability": "view",
      "type": "function"
    },
    {
      "constant": false,
      "inputs": [],
      "name": "finishMinting",
      "outputs": [
        {
          "name": "",
          "type": "bool"
        }
      ],
      "payable": false,
      "stateMutability": "nonpayable",
      "type": "function"
    },
    {
      "constant": false,
      "inputs": [
        {
          "name": "addr",
          "type": "address"
        },
        {
          "name": "roleName",
          "type": "string"
        }
      ],
      "name": "adminRemoveRole",
      "outputs": [],
      "payable": false,
      "stateMutability": "nonpayable",
      "type": "function"
    },
    {
      "constant": true,
      "inputs": [],
      "name": "owner",
      "outputs": [
        {
          "name": "",
          "type": "address"
        }
      ],
      "payable": false,
      "stateMutability": "view",
      "type": "function"
    },
    {
      "constant": true,
      "inputs": [],
      "name": "ROLE_MINTER",
      "outputs": [
        {
          "name": "",
          "type": "string"
        }
      ],
      "payable": false,
      "stateMutability": "view",
      "type": "function"
    },
    {
      "constant": true,
      "inputs": [],
      "name": "symbol",
      "outputs": [
        {
          "name": "",
          "type": "string"
        }
      ],
      "payable": false,
      "stateMutability": "view",
      "type": "function"
    },
    {
      "constant": false,
      "inputs": [
        {
          "name": "_to",
          "type": "address"
        },
        {
          "name": "_value",
          "type": "uint256"
        }
      ],
      "name": "transfer",
      "outputs": [
        {
          "name": "",
          "type": "bool"
        }
      ],
      "payable": false,
      "stateMutability": "nonpayable",
      "type": "function"
    },
    {
      "constant": false,
      "inputs": [
        {
          "name": "addr",
          "type": "address"
        },
        {
          "name": "roleName",
          "type": "string"
        }
      ],
      "name": "adminAddRole",
      "outputs": [],
      "payable": false,
      "stateMutability": "nonpayable",
      "type": "function"
    },
    {
      "constant": true,
      "inputs": [],
      "name": "builtOn",
      "outputs": [
        {
          "name": "",
          "type": "string"
        }
      ],
      "payable": false,
      "stateMutability": "view",
      "type": "function"
    },
    {
      "constant": true,
      "inputs": [],
      "name": "ROLE_ADMIN",
      "outputs": [
        {
          "name": "",
          "type": "string"
        }
      ],
      "payable": false,
      "stateMutability": "view",
      "type": "function"
    },
    {
      "constant": false,
      "inputs": [
        {
          "name": "_spender",
          "type": "address"
        },
        {
          "name": "_addedValue",
          "type": "uint256"
        }
      ],
      "name": "increaseApproval",
      "outputs": [
        {
          "name": "",
          "type": "bool"
        }
      ],
      "payable": false,
      "stateMutability": "nonpayable",
      "type": "function"
    },
    {
      "constant": true,
      "inputs": [
        {
          "name": "_owner",
          "type": "address"
        },
        {
          "name": "_spender",
          "type": "address"
        }
      ],
      "name": "allowance",
      "outputs": [
        {
          "name": "",
          "type": "uint256"
        }
      ],
      "payable": false,
      "stateMutability": "view",
      "type": "function"
    },
    {
      "constant": false,
      "inputs": [
        {
          "name": "newOwner",
          "type": "address"
        }
      ],
      "name": "transferOwnership",
      "outputs": [],
      "payable": false,
      "stateMutability": "nonpayable",
      "type": "function"
    },
    {
      "inputs": [
        {
          "name": "_name",
          "type": "string"
        },
        {
          "name": "_symbol",
          "type": "string"
        },
        {
          "name": "_decimals",
          "type": "uint8"
        },
        {
          "name": "_initialAmount",
          "type": "uint256"
        }
      ],
      "payable": false,
      "stateMutability": "nonpayable",
      "type": "constructor"
    },
    {
      "anonymous": false,
      "inputs": [
        {
          "indexed": false,
          "name": "addr",
          "type": "address"
        },
        {
          "indexed": false,
          "name": "roleName",
          "type": "string"
        }
      ],
      "name": "RoleAdded",
      "type": "event"
    },
    {
      "anonymous": false,
      "inputs": [
        {
          "indexed": false,
          "name": "addr",
          "type": "address"
        },
        {
          "indexed": false,
          "name": "roleName",
          "type": "string"
        }
      ],
      "name": "RoleRemoved",
      "type": "event"
    },
    {
      "anonymous": false,
      "inputs": [
        {
          "indexed": true,
          "name": "burner",
          "type": "address"
        },
        {
          "indexed": false,
          "name": "value",
          "type": "uint256"
        }
      ],
      "name": "Burn",
      "type": "event"
    },
    {
      "anonymous": false,
      "inputs": [
        {
          "indexed": true,
          "name": "to",
          "type": "address"
        },
        {
          "indexed": false,
          "name": "amount",
          "type": "uint256"
        }
      ],
      "name": "Mint",
      "type": "event"
    },
    {
      "anonymous": false,
      "inputs": [],
      "name": "MintFinished",
      "type": "event"
    },
    {
      "anonymous": false,
      "inputs": [
        {
          "indexed": true,
          "name": "previousOwner",
          "type": "address"
        },
        {
          "indexed": true,
          "name": "newOwner",
          "type": "address"
        }
      ],
      "name": "OwnershipTransferred",
      "type": "event"
    },
    {
      "anonymous": false,
      "inputs": [
        {
          "indexed": true,
          "name": "owner",
          "type": "address"
        },
        {
          "indexed": true,
          "name": "spender",
          "type": "address"
        },
        {
          "indexed": false,
          "name": "value",
          "type": "uint256"
        }
      ],
      "name": "Approval",
      "type": "event"
    },
    {
      "anonymous": false,
      "inputs": [
        {
          "indexed": true,
          "name": "from",
          "type": "address"
        },
        {
          "indexed": true,
          "name": "to",
          "type": "address"
        },
        {
          "indexed": false,
          "name": "value",
          "type": "uint256"
        }
      ],
      "name": "Transfer",
      "type": "event"
    },
    {
      "constant": false,
      "inputs": [
        {
          "name": "_to",
          "type": "address"
        },
        {
          "name": "_amount",
          "type": "uint256"
        }
      ],
      "name": "mint",
      "outputs": [
        {
          "name": "",
          "type": "bool"
        }
      ],
      "payable": false,
      "stateMutability": "nonpayable",
      "type": "function"
    },
    {
      "constant": false,
      "inputs": [
        {
          "name": "_tokenAddress",
          "type": "address"
        },
        {
          "name": "_tokens",
          "type": "uint256"
        }
      ],
      "name": "transferAnyERC20Token",
      "outputs": [
        {
          "name": "success",
          "type": "bool"
        }
      ],
      "payable": false,
      "stateMutability": "nonpayable",
      "type": "function"
    }
  ],
  "bytecode": "0x6006805460a060020a60ff021916905560e0604052602f60808190527f68747470733a2f2f766974746f6d696e61636f72692e6769746875622e696f2f60a09081527f65726332302d67656e657261746f72000000000000000000000000000000000060c0526200007491600891906200058a565b503480156200008257600080fd5b5060405162001b9a38038062001b9a8339810160409081528151602080840151928401516060850151928501805190959490940193909291859185918591620000d291600091908601906200058a565b508151620000e89060019060208501906200058a565b506002805460ff191660ff92909216919091179055505060068054600160a060020a03191633600160a060020a0381169190911790915560408051808201909152600581527f61646d696e0000000000000000000000000000000000000000000000000000006020820152620001689190640100000000620001aa810204565b6000811115620001a0576006546002546200019e91600160a060020a03169060ff16600a0a8302640100000000620002e0810204565b505b505050506200062f565b62000226826007836040518082805190602001908083835b60208310620001e35780518252601f199092019160209182019101620001c2565b51815160209384036101000a6000190180199092169116179052920194855250604051938490030190922092915050640100000000620004ad8102620014ca1704565b7fbfec83d64eaa953f2708271a023ab9ee82057f8f3578d548c1a4ba0b5b70048982826040518083600160a060020a0316600160a060020a0316815260200180602001828103825283818151815260200191508051906020019080838360005b83811015620002a057818101518382015260200162000286565b50505050905090810190601f168015620002ce5780820380516001836020036101000a031916815260200191505b50935050505060405180910390a15050565b600062000332336040805190810160405280600581526020017f61646d696e000000000000000000000000000000000000000000000000000000815250620004d2640100000000026401000000009004565b8062000389575062000389336040805190810160405280600681526020017f6d696e7465720000000000000000000000000000000000000000000000000000815250620004d2640100000000026401000000009004565b15156200039557600080fd5b60065474010000000000000000000000000000000000000000900460ff1615620003be57600080fd5b600454620003db9083640100000000620011a46200055782021704565b600455600160a060020a038316600090815260036020526040902054620004119083640100000000620011a46200055782021704565b600160a060020a038416600081815260036020908152604091829020939093558051858152905191927f0f6798a560793a54c3bcfe86a93cde1e73087d944c0ea20544137d412139688592918290030190a2604080518381529051600160a060020a038516916000917fddf252ad1be2c89b69c2b068fc378daa952ba7f163c4a11628f55a4df523b3ef9181900360200190a350600192915050565b600160a060020a0316600090815260209190915260409020805460ff19166001179055565b600062000550836007846040518082805190602001908083835b602083106200050d5780518252601f199092019160209182019101620004ec565b51815160209384036101000a60001901801990921691161790529201948552506040519384900301909220929150506401000000006200056b8102620011731704565b9392505050565b818101828110156200056557fe5b92915050565b600160a060020a03166000908152602091909152604090205460ff1690565b828054600181600116156101000203166002900490600052602060002090601f016020900481019282601f10620005cd57805160ff1916838001178555620005fd565b82800160010185558215620005fd579182015b82811115620005fd578251825591602001919060010190620005e0565b506200060b9291506200060f565b5090565b6200062c91905b808211156200060b576000815560010162000616565b90565b61155b806200063f6000396000f3006080604052600436106101485763ffffffff7c010000000000000000000000000000000000000000000000000000000060003504166305d2035b811461014d57806306fdde0314610176578063095ea7b3146102005780630988ca8c1461022457806318160ddd1461028d578063217fe6c6146102b457806323b872dd1461031b578063313ce5671461034557806340c10f191461037057806342966c681461039457806366188463146103ac57806370a08231146103d05780637d64bcb4146103f157806388cee87e146104065780638da5cb5b1461046d57806392afc33a1461049e57806395d89b41146104b3578063a9059cbb146104c8578063b25fa92c146104ec578063b60b708414610553578063d391014b14610568578063d73dd6231461057d578063dc39d06d146105a1578063dd62ed3e146105c5578063f2fde38b146105ec575b600080fd5b34801561015957600080fd5b5061016261060d565b604080519115158252519081900360200190f35b34801561018257600080fd5b5061018b61062e565b6040805160208082528351818301528351919283929083019185019080838360005b838110156101c55781810151838201526020016101ad565b50505050905090810190601f1680156101f25780820380516001836020036101000a031916815260200191505b509250505060405180910390f35b34801561020c57600080fd5b50610162600160a060020a03600435166024356106bc565b34801561023057600080fd5b5060408051602060046024803582810135601f810185900485028601850190965285855261028b958335600160a060020a03169536956044949193909101919081908401838280828437509497506107269650505050505050565b005b34801561029957600080fd5b506102a2610794565b60408051918252519081900360200190f35b3480156102c057600080fd5b5060408051602060046024803582810135601f8101859004850286018501909652858552610162958335600160a060020a031695369560449491939091019190819084018382808284375094975061079a9650505050505050565b34801561032757600080fd5b50610162600160a060020a036004358116906024351660443561080d565b34801561035157600080fd5b5061035a61097d565b6040805160ff9092168252519081900360200190f35b34801561037c57600080fd5b50610162600160a060020a0360043516602435610986565b3480156103a057600080fd5b5061028b600435610af6565b3480156103b857600080fd5b50610162600160a060020a0360043516602435610b03565b3480156103dc57600080fd5b506102a2600160a060020a0360043516610bfc565b3480156103fd57600080fd5b50610162610c17565b34801561041257600080fd5b5060408051602060046024803582810135601f810185900485028601850190965285855261028b958335600160a060020a0316953695604494919390910191908190840183828082843750949750610cc19650505050505050565b34801561047957600080fd5b50610482610cf8565b60408051600160a060020a039092168252519081900360200190f35b3480156104aa57600080fd5b5061018b610d07565b3480156104bf57600080fd5b5061018b610d3e565b3480156104d457600080fd5b50610162600160a060020a0360043516602435610d98565b3480156104f857600080fd5b5060408051602060046024803582810135601f810185900485028601850190965285855261028b958335600160a060020a0316953695604494919390910191908190840183828082843750949750610e819650505050505050565b34801561055f57600080fd5b5061018b610eb8565b34801561057457600080fd5b5061018b610f13565b34801561058957600080fd5b50610162600160a060020a0360043516602435610f38565b3480156105ad57600080fd5b50610162600160a060020a0360043516602435610fda565b3480156105d157600080fd5b506102a2600160a060020a036004358116906024351661109a565b3480156105f857600080fd5b5061028b600160a060020a03600435166110c5565b60065474010000000000000000000000000000000000000000900460ff1681565b6000805460408051602060026001851615610100026000190190941693909304601f810184900484028201840190925281815292918301828280156106b45780601f10610689576101008083540402835291602001916106b4565b820191906000526020600020905b81548152906001019060200180831161069757829003601f168201915b505050505081565b600160a060020a03338116600081815260056020908152604080832094871680845294825280832086905580518681529051929493927f8c5be1e5ebec7d5bd14f71427d1e84f3dd0314c0f7b2291e5b200ac8c7c3b925929181900390910190a350600192915050565b610790826007836040518082805190602001908083835b6020831061075c5780518252601f19909201916020918201910161073d565b51815160209384036101000a600019018019909216911617905292019485525060405193849003019092209291505061115e565b5050565b60045490565b6000610806836007846040518082805190602001908083835b602083106107d25780518252601f1990920191602091820191016107b3565b51815160209384036101000a6000190180199092169116179052920194855250604051938490030190922092915050611173565b9392505050565b6000600160a060020a038316151561082457600080fd5b600160a060020a03841660009081526003602052604090205482111561084957600080fd5b600160a060020a038085166000908152600560209081526040808320339094168352929052205482111561087c57600080fd5b600160a060020a0384166000908152600360205260409020546108a5908363ffffffff61119216565b600160a060020a0380861660009081526003602052604080822093909355908516815220546108da908363ffffffff6111a416565b600160a060020a03808516600090815260036020908152604080832094909455878316825260058152838220339093168252919091522054610922908363ffffffff61119216565b600160a060020a03808616600081815260056020908152604080832033861684528252918290209490945580518681529051928716939192600080516020611510833981519152929181900390910190a35060019392505050565b60025460ff1681565b60006109b5336040805190810160405280600581526020016000805160206114f083398151915281525061079a565b806109fa57506109fa336040805190810160405280600681526020017f6d696e746572000000000000000000000000000000000000000000000000000081525061079a565b1515610a0557600080fd5b60065474010000000000000000000000000000000000000000900460ff1615610a2d57600080fd5b600454610a40908363ffffffff6111a416565b600455600160a060020a038316600090815260036020526040902054610a6c908363ffffffff6111a416565b600160a060020a038416600081815260036020908152604091829020939093558051858152905191927f0f6798a560793a54c3bcfe86a93cde1e73087d944c0ea20544137d412139688592918290030190a2604080518381529051600160a060020a038516916000916000805160206115108339815191529181900360200190a350600192915050565b610b0033826111b7565b50565b600160a060020a03338116600090815260056020908152604080832093861683529290529081205480831115610b6057600160a060020a033381166000908152600560209081526040808320938816835292905290812055610b97565b610b70818463ffffffff61119216565b600160a060020a033381166000908152600560209081526040808320938916835292905220555b600160a060020a0333811660008181526005602090815260408083209489168084529482529182902054825190815291517f8c5be1e5ebec7d5bd14f71427d1e84f3dd0314c0f7b2291e5b200ac8c7c3b9259281900390910190a35060019392505050565b600160a060020a031660009081526003602052604090205490565b60065460009033600160a060020a03908116911614610c3557600080fd5b60065474010000000000000000000000000000000000000000900460ff1615610c5d57600080fd5b6006805474ff00000000000000000000000000000000000000001916740100000000000000000000000000000000000000001790556040517fae5184fba832cb2b1f702aca6117b8d265eaf03ad33eb133f19dde0f5920fa0890600090a150600190565b610cee336040805190810160405280600581526020016000805160206114f0833981519152815250610726565b61079082826112a6565b600654600160a060020a031681565b60408051808201909152600681527f6d696e7465720000000000000000000000000000000000000000000000000000602082015281565b60018054604080516020600284861615610100026000190190941693909304601f810184900484028201840190925281815292918301828280156106b45780601f10610689576101008083540402835291602001916106b4565b6000600160a060020a0383161515610daf57600080fd5b600160a060020a033316600090815260036020526040902054821115610dd457600080fd5b600160a060020a033316600090815260036020526040902054610dfd908363ffffffff61119216565b600160a060020a033381166000908152600360205260408082209390935590851681522054610e32908363ffffffff6111a416565b600160a060020a0380851660008181526003602090815260409182902094909455805186815290519193339093169260008051602061151083398151915292918290030190a350600192915050565b610eae336040805190810160405280600581526020016000805160206114f0833981519152815250610726565b61079082826113c7565b6008805460408051602060026001851615610100026000190190941693909304601f810184900484028201840190925281815292918301828280156106b45780601f10610689576101008083540402835291602001916106b4565b60408051808201909152600581526000805160206114f0833981519152602082015281565b600160a060020a033381166000908152600560209081526040808320938616835292905290812054610f70908363ffffffff6111a416565b600160a060020a0333811660008181526005602090815260408083209489168084529482529182902085905581519485529051929391927f8c5be1e5ebec7d5bd14f71427d1e84f3dd0314c0f7b2291e5b200ac8c7c3b9259281900390910190a350600192915050565b60065460009033600160a060020a03908116911614610ff857600080fd5b600654604080517fa9059cbb000000000000000000000000000000000000000000000000000000008152600160a060020a0392831660048201526024810185905290519185169163a9059cbb916044808201926020929091908290030181600087803b15801561106757600080fd5b505af115801561107b573d6000803e3d6000fd5b505050506040513d602081101561109157600080fd5b50519392505050565b600160a060020a03918216600090815260056020908152604080832093909416825291909152205490565b60065433600160a060020a039081169116146110e057600080fd5b600160a060020a03811615156110f557600080fd5b600654604051600160a060020a038084169216907f8be0079c531659141344cd1fd0a4f28419497f9722a3daafe3b4186f6b6457e090600090a36006805473ffffffffffffffffffffffffffffffffffffffff1916600160a060020a0392909216919091179055565b6111688282611173565b151561079057600080fd5b600160a060020a03166000908152602091909152604090205460ff1690565b60008282111561119e57fe5b50900390565b818101828110156111b157fe5b92915050565b600160a060020a0382166000908152600360205260409020548111156111dc57600080fd5b600160a060020a038216600090815260036020526040902054611205908263ffffffff61119216565b600160a060020a038316600090815260036020526040902055600454611231908263ffffffff61119216565b600455604080518281529051600160a060020a038416917fcc16f5dbb4873280815c1ee09dbd06736cffcc184412cf7a71a0fdb75d397ca5919081900360200190a2604080518281529051600091600160a060020a038516916000805160206115108339815191529181900360200190a35050565b611310826007836040518082805190602001908083835b602083106112dc5780518252601f1990920191602091820191016112bd565b51815160209384036101000a60001901801990921691161790529201948552506040519384900301909220929150506114a8565b7fd211483f91fc6eff862467f8de606587a30c8fc9981056f051b897a418df803a82826040518083600160a060020a0316600160a060020a0316815260200180602001828103825283818151815260200191508051906020019080838360005b83811015611388578181015183820152602001611370565b50505050905090810190601f1680156113b55780820380516001836020036101000a031916815260200191505b50935050505060405180910390a15050565b611431826007836040518082805190602001908083835b602083106113fd5780518252601f1990920191602091820191016113de565b51815160209384036101000a60001901801990921691161790529201948552506040519384900301909220929150506114ca565b7fbfec83d64eaa953f2708271a023ab9ee82057f8f3578d548c1a4ba0b5b70048982826040518083600160a060020a0316600160a060020a03168152602001806020018281038252838181518152602001915080519060200190808383600083811015611388578181015183820152602001611370565b600160a060020a0316600090815260209190915260409020805460ff19169055565b600160a060020a0316600090815260209190915260409020805460ff19166001179055560061646d696e000000000000000000000000000000000000000000000000000000ddf252ad1be2c89b69c2b068fc378daa952ba7f163c4a11628f55a4df523b3efa165627a7a7230582042e169c48acaddc2a4459a33c3fe6b7281b99d3f130b4d7fcca61fdc43319ebf0029",
  "source": "pragma solidity ^0.4.23;\n\nimport \"openzeppelin-solidity/contracts/ownership/rbac/RBACWithAdmin.sol\";\nimport \"openzeppelin-solidity/contracts/token/ERC20/DetailedERC20.sol\";\nimport \"openzeppelin-solidity/contracts/token/ERC20/MintableToken.sol\";\nimport \"openzeppelin-solidity/contracts/token/ERC20/BurnableToken.sol\";\n\n\ncontract ERC20Token is DetailedERC20, MintableToken, BurnableToken, RBACWithAdmin {\n\n    string public builtOn = \"https://vittominacori.github.io/erc20-generator\";\n\n    string public constant ROLE_MINTER = \"minter\";\n\n    modifier onlyMinter () {\n        require(hasRole(msg.sender, ROLE_ADMIN) || hasRole(msg.sender, ROLE_MINTER));\n        _;\n    }\n\n    constructor(\n        string _name,\n        string _symbol,\n        uint8 _decimals,\n        uint256 _initialAmount\n    )\n    DetailedERC20 (_name, _symbol, _decimals)\n    public\n    {\n        if (_initialAmount > 0) {\n            mint(owner, _initialAmount * (10 ** uint256(decimals)));\n        }\n    }\n\n    function mint(address _to, uint256 _amount) onlyMinter canMint public returns (bool) {\n        totalSupply_ = totalSupply_.add(_amount);\n        balances[_to] = balances[_to].add(_amount);\n        emit Mint(_to, _amount);\n        emit Transfer(address(0), _to, _amount);\n        return true;\n    }\n\n    function transferAnyERC20Token(address _tokenAddress, uint256 _tokens) onlyOwner public returns (bool success) {\n        return ERC20Basic(_tokenAddress).transfer(owner, _tokens);\n    }\n}\n",
  "sourcePath": "/Users/vittominacori/Projects/vittominacori.github.io/erc20-generator/smart-contracts/contracts/ERC20Token.sol",
  "compiler": {
    "name": "solc",
    "version": "0.4.23+commit.124ca40d.Emscripten.clang"
  },
  "schemaVersion": "2.0.0",
  "updatedAt": "2018-05-02T17:23:30.108Z"
}