{
  "contractName": "ERC20Token",
  "abi": [
    {
      "constant": true,
      "inputs": [],
      "name": "mintingFinished",
      "outputs": [
        {
          "name": "",
          "type": "bool"
        }
      ],
      "payable": false,
      "stateMutability": "view",
      "type": "function"
    },
    {
      "constant": true,
      "inputs": [],
      "name": "name",
      "outputs": [
        {
          "name": "",
          "type": "string"
        }
      ],
      "payable": false,
      "stateMutability": "view",
      "type": "function"
    },
    {
      "constant": false,
      "inputs": [
        {
          "name": "_spender",
          "type": "address"
        },
        {
          "name": "_value",
          "type": "uint256"
        }
      ],
      "name": "approve",
      "outputs": [
        {
          "name": "",
          "type": "bool"
        }
      ],
      "payable": false,
      "stateMutability": "nonpayable",
      "type": "function"
    },
    {
      "constant": true,
      "inputs": [],
      "name": "totalSupply",
      "outputs": [
        {
          "name": "",
          "type": "uint256"
        }
      ],
      "payable": false,
      "stateMutability": "view",
      "type": "function"
    },
    {
      "constant": false,
      "inputs": [
        {
          "name": "_from",
          "type": "address"
        },
        {
          "name": "_to",
          "type": "address"
        },
        {
          "name": "_value",
          "type": "uint256"
        }
      ],
      "name": "transferFrom",
      "outputs": [
        {
          "name": "",
          "type": "bool"
        }
      ],
      "payable": false,
      "stateMutability": "nonpayable",
      "type": "function"
    },
    {
      "constant": true,
      "inputs": [],
      "name": "decimals",
      "outputs": [
        {
          "name": "",
          "type": "uint8"
        }
      ],
      "payable": false,
      "stateMutability": "view",
      "type": "function"
    },
    {
      "constant": false,
      "inputs": [
        {
          "name": "_to",
          "type": "address"
        },
        {
          "name": "_amount",
          "type": "uint256"
        }
      ],
      "name": "mint",
      "outputs": [
        {
          "name": "",
          "type": "bool"
        }
      ],
      "payable": false,
      "stateMutability": "nonpayable",
      "type": "function"
    },
    {
      "constant": false,
      "inputs": [
        {
          "name": "_value",
          "type": "uint256"
        }
      ],
      "name": "burn",
      "outputs": [],
      "payable": false,
      "stateMutability": "nonpayable",
      "type": "function"
    },
    {
      "constant": false,
      "inputs": [
        {
          "name": "_spender",
          "type": "address"
        },
        {
          "name": "_subtractedValue",
          "type": "uint256"
        }
      ],
      "name": "decreaseApproval",
      "outputs": [
        {
          "name": "",
          "type": "bool"
        }
      ],
      "payable": false,
      "stateMutability": "nonpayable",
      "type": "function"
    },
    {
      "constant": true,
      "inputs": [
        {
          "name": "_owner",
          "type": "address"
        }
      ],
      "name": "balanceOf",
      "outputs": [
        {
          "name": "balance",
          "type": "uint256"
        }
      ],
      "payable": false,
      "stateMutability": "view",
      "type": "function"
    },
    {
      "constant": false,
      "inputs": [],
      "name": "finishMinting",
      "outputs": [
        {
          "name": "",
          "type": "bool"
        }
      ],
      "payable": false,
      "stateMutability": "nonpayable",
      "type": "function"
    },
    {
      "constant": true,
      "inputs": [],
      "name": "owner",
      "outputs": [
        {
          "name": "",
          "type": "address"
        }
      ],
      "payable": false,
      "stateMutability": "view",
      "type": "function"
    },
    {
      "constant": true,
      "inputs": [],
      "name": "symbol",
      "outputs": [
        {
          "name": "",
          "type": "string"
        }
      ],
      "payable": false,
      "stateMutability": "view",
      "type": "function"
    },
    {
      "constant": false,
      "inputs": [
        {
          "name": "_to",
          "type": "address"
        },
        {
          "name": "_value",
          "type": "uint256"
        }
      ],
      "name": "transfer",
      "outputs": [
        {
          "name": "",
          "type": "bool"
        }
      ],
      "payable": false,
      "stateMutability": "nonpayable",
      "type": "function"
    },
    {
      "constant": true,
      "inputs": [],
      "name": "builtOn",
      "outputs": [
        {
          "name": "",
          "type": "string"
        }
      ],
      "payable": false,
      "stateMutability": "view",
      "type": "function"
    },
    {
      "constant": false,
      "inputs": [
        {
          "name": "_spender",
          "type": "address"
        },
        {
          "name": "_addedValue",
          "type": "uint256"
        }
      ],
      "name": "increaseApproval",
      "outputs": [
        {
          "name": "",
          "type": "bool"
        }
      ],
      "payable": false,
      "stateMutability": "nonpayable",
      "type": "function"
    },
    {
      "constant": true,
      "inputs": [
        {
          "name": "_owner",
          "type": "address"
        },
        {
          "name": "_spender",
          "type": "address"
        }
      ],
      "name": "allowance",
      "outputs": [
        {
          "name": "",
          "type": "uint256"
        }
      ],
      "payable": false,
      "stateMutability": "view",
      "type": "function"
    },
    {
      "constant": false,
      "inputs": [
        {
          "name": "newOwner",
          "type": "address"
        }
      ],
      "name": "transferOwnership",
      "outputs": [],
      "payable": false,
      "stateMutability": "nonpayable",
      "type": "function"
    },
    {
      "inputs": [
        {
          "name": "_name",
          "type": "string"
        },
        {
          "name": "_symbol",
          "type": "string"
        },
        {
          "name": "_decimals",
          "type": "uint8"
        },
        {
          "name": "_initialAmount",
          "type": "uint256"
        }
      ],
      "payable": false,
      "stateMutability": "nonpayable",
      "type": "constructor"
    },
    {
      "anonymous": false,
      "inputs": [
        {
          "indexed": true,
          "name": "burner",
          "type": "address"
        },
        {
          "indexed": false,
          "name": "value",
          "type": "uint256"
        }
      ],
      "name": "Burn",
      "type": "event"
    },
    {
      "anonymous": false,
      "inputs": [
        {
          "indexed": true,
          "name": "to",
          "type": "address"
        },
        {
          "indexed": false,
          "name": "amount",
          "type": "uint256"
        }
      ],
      "name": "Mint",
      "type": "event"
    },
    {
      "anonymous": false,
      "inputs": [],
      "name": "MintFinished",
      "type": "event"
    },
    {
      "anonymous": false,
      "inputs": [
        {
          "indexed": true,
          "name": "previousOwner",
          "type": "address"
        },
        {
          "indexed": true,
          "name": "newOwner",
          "type": "address"
        }
      ],
      "name": "OwnershipTransferred",
      "type": "event"
    },
    {
      "anonymous": false,
      "inputs": [
        {
          "indexed": true,
          "name": "owner",
          "type": "address"
        },
        {
          "indexed": true,
          "name": "spender",
          "type": "address"
        },
        {
          "indexed": false,
          "name": "value",
          "type": "uint256"
        }
      ],
      "name": "Approval",
      "type": "event"
    },
    {
      "anonymous": false,
      "inputs": [
        {
          "indexed": true,
          "name": "from",
          "type": "address"
        },
        {
          "indexed": true,
          "name": "to",
          "type": "address"
        },
        {
          "indexed": false,
          "name": "value",
          "type": "uint256"
        }
      ],
      "name": "Transfer",
      "type": "event"
    }
  ],
  "bytecode": "0x606060408181526006805460a060020a60ff02191690555190810160405280602f81526020017f68747470733a2f2f766974746f6d696e61636f72692e6769746875622e696f2f81526020017f65726332302d67656e657261746f720000000000000000000000000000000000815250600790805162000084929160200190620002b9565b5034156200009157600080fd5b6040516200112e3803806200112e8339810160405280805182019190602001805182019190602001805191906020018051915084905083836000838051620000de929160200190620002b9565b506001828051620000f4929160200190620002b9565b506002805460ff191660ff92909216919091179055505060068054600160a060020a03191633600160a060020a0316179055600081111562000163576006546002546200016191600160a060020a03169060ff16600a0a83026401000000006200065e6200016d82021704565b505b505050506200035e565b60065460009033600160a060020a039081169116146200018c57600080fd5b60065474010000000000000000000000000000000000000000900460ff1615620001b557600080fd5b600454620001d2908364010000000062000d5e620002a282021704565b600455600160a060020a03831660009081526003602052604090205462000208908364010000000062000d5e620002a282021704565b600160a060020a0384166000818152600360205260409081902092909255907f0f6798a560793a54c3bcfe86a93cde1e73087d944c0ea20544137d41213968859084905190815260200160405180910390a2600160a060020a03831660007fddf252ad1be2c89b69c2b068fc378daa952ba7f163c4a11628f55a4df523b3ef8460405190815260200160405180910390a350600192915050565b600082820183811015620002b257fe5b9392505050565b828054600181600116156101000203166002900490600052602060002090601f016020900481019282601f10620002fc57805160ff19168380011785556200032c565b828001600101855582156200032c579182015b828111156200032c5782518255916020019190600101906200030f565b506200033a9291506200033e565b5090565b6200035b91905b808211156200033a576000815560010162000345565b90565b610dc0806200036e6000396000f3006060604052600436106100fb5763ffffffff7c010000000000000000000000000000000000000000000000000000000060003504166305d2035b811461010057806306fdde0314610127578063095ea7b3146101b157806318160ddd146101d357806323b872dd146101f8578063313ce5671461022057806340c10f191461024957806342966c681461026b578063661884631461028357806370a08231146102a55780637d64bcb4146102c45780638da5cb5b146102d757806395d89b4114610306578063a9059cbb14610319578063b60b70841461033b578063d73dd6231461034e578063dd62ed3e14610370578063f2fde38b14610395575b600080fd5b341561010b57600080fd5b6101136103b4565b604051901515815260200160405180910390f35b341561013257600080fd5b61013a6103d5565b60405160208082528190810183818151815260200191508051906020019080838360005b8381101561017657808201518382015260200161015e565b50505050905090810190601f1680156101a35780820380516001836020036101000a031916815260200191505b509250505060405180910390f35b34156101bc57600080fd5b610113600160a060020a0360043516602435610473565b34156101de57600080fd5b6101e66104df565b60405190815260200160405180910390f35b341561020357600080fd5b610113600160a060020a03600435811690602435166044356104e5565b341561022b57600080fd5b610233610655565b60405160ff909116815260200160405180910390f35b341561025457600080fd5b610113600160a060020a036004351660243561065e565b341561027657600080fd5b61028160043561076b565b005b341561028e57600080fd5b610113600160a060020a0360043516602435610852565b34156102b057600080fd5b6101e6600160a060020a036004351661094c565b34156102cf57600080fd5b610113610967565b34156102e257600080fd5b6102ea610a14565b604051600160a060020a03909116815260200160405180910390f35b341561031157600080fd5b61013a610a23565b341561032457600080fd5b610113600160a060020a0360043516602435610a8e565b341561034657600080fd5b61013a610b77565b341561035957600080fd5b610113600160a060020a0360043516602435610be2565b341561037b57600080fd5b6101e6600160a060020a0360043581169060243516610c86565b34156103a057600080fd5b610281600160a060020a0360043516610cb1565b60065474010000000000000000000000000000000000000000900460ff1681565b60008054600181600116156101000203166002900480601f01602080910402602001604051908101604052809291908181526020018280546001816001161561010002031660029004801561046b5780601f106104405761010080835404028352916020019161046b565b820191906000526020600020905b81548152906001019060200180831161044e57829003601f168201915b505050505081565b600160a060020a03338116600081815260056020908152604080832094871680845294909152808220859055909291907f8c5be1e5ebec7d5bd14f71427d1e84f3dd0314c0f7b2291e5b200ac8c7c3b9259085905190815260200160405180910390a350600192915050565b60045490565b6000600160a060020a03831615156104fc57600080fd5b600160a060020a03841660009081526003602052604090205482111561052157600080fd5b600160a060020a038085166000908152600560209081526040808320339094168352929052205482111561055457600080fd5b600160a060020a03841660009081526003602052604090205461057d908363ffffffff610d4c16565b600160a060020a0380861660009081526003602052604080822093909355908516815220546105b2908363ffffffff610d5e16565b600160a060020a038085166000908152600360209081526040808320949094558783168252600581528382203390931682529190915220546105fa908363ffffffff610d4c16565b600160a060020a0380861660008181526005602090815260408083203386168452909152908190209390935590851691600080516020610d758339815191529085905190815260200160405180910390a35060019392505050565b60025460ff1681565b60065460009033600160a060020a0390811691161461067c57600080fd5b60065474010000000000000000000000000000000000000000900460ff16156106a457600080fd5b6004546106b7908363ffffffff610d5e16565b600455600160a060020a0383166000908152600360205260409020546106e3908363ffffffff610d5e16565b600160a060020a0384166000818152600360205260409081902092909255907f0f6798a560793a54c3bcfe86a93cde1e73087d944c0ea20544137d41213968859084905190815260200160405180910390a2600160a060020a0383166000600080516020610d758339815191528460405190815260200160405180910390a350600192915050565b600160a060020a03331660009081526003602052604081205482111561079057600080fd5b5033600160a060020a0381166000908152600360205260409020546107b59083610d4c565b600160a060020a0382166000908152600360205260409020556004546107e1908363ffffffff610d4c16565b600455600160a060020a0381167fcc16f5dbb4873280815c1ee09dbd06736cffcc184412cf7a71a0fdb75d397ca58360405190815260200160405180910390a26000600160a060020a038216600080516020610d758339815191528460405190815260200160405180910390a35050565b600160a060020a033381166000908152600560209081526040808320938616835292905290812054808311156108af57600160a060020a0333811660009081526005602090815260408083209388168352929052908120556108e6565b6108bf818463ffffffff610d4c16565b600160a060020a033381166000908152600560209081526040808320938916835292905220555b600160a060020a0333811660008181526005602090815260408083209489168084529490915290819020547f8c5be1e5ebec7d5bd14f71427d1e84f3dd0314c0f7b2291e5b200ac8c7c3b925915190815260200160405180910390a35060019392505050565b600160a060020a031660009081526003602052604090205490565b60065460009033600160a060020a0390811691161461098557600080fd5b60065474010000000000000000000000000000000000000000900460ff16156109ad57600080fd5b6006805474ff00000000000000000000000000000000000000001916740100000000000000000000000000000000000000001790557fae5184fba832cb2b1f702aca6117b8d265eaf03ad33eb133f19dde0f5920fa0860405160405180910390a150600190565b600654600160a060020a031681565b60018054600181600116156101000203166002900480601f01602080910402602001604051908101604052809291908181526020018280546001816001161561010002031660029004801561046b5780601f106104405761010080835404028352916020019161046b565b6000600160a060020a0383161515610aa557600080fd5b600160a060020a033316600090815260036020526040902054821115610aca57600080fd5b600160a060020a033316600090815260036020526040902054610af3908363ffffffff610d4c16565b600160a060020a033381166000908152600360205260408082209390935590851681522054610b28908363ffffffff610d5e16565b600160a060020a038085166000818152600360205260409081902093909355913390911690600080516020610d758339815191529085905190815260200160405180910390a350600192915050565b60078054600181600116156101000203166002900480601f01602080910402602001604051908101604052809291908181526020018280546001816001161561010002031660029004801561046b5780601f106104405761010080835404028352916020019161046b565b600160a060020a033381166000908152600560209081526040808320938616835292905290812054610c1a908363ffffffff610d5e16565b600160a060020a0333811660008181526005602090815260408083209489168084529490915290819020849055919290917f8c5be1e5ebec7d5bd14f71427d1e84f3dd0314c0f7b2291e5b200ac8c7c3b92591905190815260200160405180910390a350600192915050565b600160a060020a03918216600090815260056020908152604080832093909416825291909152205490565b60065433600160a060020a03908116911614610ccc57600080fd5b600160a060020a0381161515610ce157600080fd5b600654600160a060020a0380831691167f8be0079c531659141344cd1fd0a4f28419497f9722a3daafe3b4186f6b6457e060405160405180910390a36006805473ffffffffffffffffffffffffffffffffffffffff1916600160a060020a0392909216919091179055565b600082821115610d5857fe5b50900390565b600082820183811015610d6d57fe5b93925050505600ddf252ad1be2c89b69c2b068fc378daa952ba7f163c4a11628f55a4df523b3efa165627a7a723058206c54e8b057cfc0449d6bf33235d4cf79a2b000cb1ae13aaaf010972fff0f27920029",
  "source": "pragma solidity ^0.4.21;\n\nimport \"zeppelin-solidity/contracts/token/ERC20/DetailedERC20.sol\";\nimport \"zeppelin-solidity/contracts/token/ERC20/BurnableToken.sol\";\nimport \"zeppelin-solidity/contracts/token/ERC20/MintableToken.sol\";\n\n\ncontract ERC20Token is DetailedERC20, MintableToken, BurnableToken {\n\n    string public builtOn = \"https://vittominacori.github.io/erc20-generator\";\n\n    function ERC20Token(\n        string _name,\n        string _symbol,\n        uint8 _decimals,\n        uint256 _initialAmount\n    )\n    DetailedERC20 (_name, _symbol, _decimals)\n    public\n    {\n        if (_initialAmount > 0) {\n            mint(owner, _initialAmount * (10 ** uint256(decimals)));\n        }\n    }\n}\n",
  "sourcePath": "/Users/vittominacori/Projects/solidity/erc20-generator-smart-contract/contracts/ERC20Token.sol",
  "compiler": {
    "name": "solc",
    "version": "0.4.21+commit.dfe3193c.Emscripten.clang"
  },
  "schemaVersion": "2.0.0",
  "updatedAt": "2018-04-05T19:59:43.839Z"
}