{
  "contractName": "ERC20Token",
  "abi": [
    {
      "constant": true,
      "inputs": [],
      "name": "mintingFinished",
      "outputs": [
        {
          "name": "",
          "type": "bool"
        }
      ],
      "payable": false,
      "stateMutability": "view",
      "type": "function"
    },
    {
      "constant": true,
      "inputs": [],
      "name": "name",
      "outputs": [
        {
          "name": "",
          "type": "string"
        }
      ],
      "payable": false,
      "stateMutability": "view",
      "type": "function"
    },
    {
      "constant": false,
      "inputs": [
        {
          "name": "_spender",
          "type": "address"
        },
        {
          "name": "_value",
          "type": "uint256"
        }
      ],
      "name": "approve",
      "outputs": [
        {
          "name": "",
          "type": "bool"
        }
      ],
      "payable": false,
      "stateMutability": "nonpayable",
      "type": "function"
    },
    {
      "constant": true,
      "inputs": [
        {
          "name": "addr",
          "type": "address"
        },
        {
          "name": "roleName",
          "type": "string"
        }
      ],
      "name": "checkRole",
      "outputs": [],
      "payable": false,
      "stateMutability": "view",
      "type": "function"
    },
    {
      "constant": true,
      "inputs": [],
      "name": "totalSupply",
      "outputs": [
        {
          "name": "",
          "type": "uint256"
        }
      ],
      "payable": false,
      "stateMutability": "view",
      "type": "function"
    },
    {
      "constant": true,
      "inputs": [
        {
          "name": "addr",
          "type": "address"
        },
        {
          "name": "roleName",
          "type": "string"
        }
      ],
      "name": "hasRole",
      "outputs": [
        {
          "name": "",
          "type": "bool"
        }
      ],
      "payable": false,
      "stateMutability": "view",
      "type": "function"
    },
    {
      "constant": false,
      "inputs": [
        {
          "name": "_from",
          "type": "address"
        },
        {
          "name": "_to",
          "type": "address"
        },
        {
          "name": "_value",
          "type": "uint256"
        }
      ],
      "name": "transferFrom",
      "outputs": [
        {
          "name": "",
          "type": "bool"
        }
      ],
      "payable": false,
      "stateMutability": "nonpayable",
      "type": "function"
    },
    {
      "constant": false,
      "inputs": [
        {
          "name": "minter",
          "type": "address"
        }
      ],
      "name": "removeMinter",
      "outputs": [],
      "payable": false,
      "stateMutability": "nonpayable",
      "type": "function"
    },
    {
      "constant": true,
      "inputs": [],
      "name": "decimals",
      "outputs": [
        {
          "name": "",
          "type": "uint8"
        }
      ],
      "payable": false,
      "stateMutability": "view",
      "type": "function"
    },
    {
      "constant": false,
      "inputs": [
        {
          "name": "_to",
          "type": "address"
        },
        {
          "name": "_value",
          "type": "uint256"
        },
        {
          "name": "_data",
          "type": "bytes"
        }
      ],
      "name": "transferAndCall",
      "outputs": [
        {
          "name": "",
          "type": "bool"
        }
      ],
      "payable": true,
      "stateMutability": "payable",
      "type": "function"
    },
    {
      "constant": false,
      "inputs": [
        {
          "name": "_to",
          "type": "address"
        },
        {
          "name": "_amount",
          "type": "uint256"
        }
      ],
      "name": "mint",
      "outputs": [
        {
          "name": "",
          "type": "bool"
        }
      ],
      "payable": false,
      "stateMutability": "nonpayable",
      "type": "function"
    },
    {
      "constant": false,
      "inputs": [
        {
          "name": "_value",
          "type": "uint256"
        }
      ],
      "name": "burn",
      "outputs": [],
      "payable": false,
      "stateMutability": "nonpayable",
      "type": "function"
    },
    {
      "constant": false,
      "inputs": [
        {
          "name": "_spender",
          "type": "address"
        },
        {
          "name": "_subtractedValue",
          "type": "uint256"
        }
      ],
      "name": "decreaseApproval",
      "outputs": [
        {
          "name": "",
          "type": "bool"
        }
      ],
      "payable": false,
      "stateMutability": "nonpayable",
      "type": "function"
    },
    {
      "constant": true,
      "inputs": [
        {
          "name": "_owner",
          "type": "address"
        }
      ],
      "name": "balanceOf",
      "outputs": [
        {
          "name": "",
          "type": "uint256"
        }
      ],
      "payable": false,
      "stateMutability": "view",
      "type": "function"
    },
    {
      "constant": false,
      "inputs": [],
      "name": "renounceOwnership",
      "outputs": [],
      "payable": false,
      "stateMutability": "nonpayable",
      "type": "function"
    },
    {
      "constant": false,
      "inputs": [],
      "name": "finishMinting",
      "outputs": [
        {
          "name": "",
          "type": "bool"
        }
      ],
      "payable": false,
      "stateMutability": "nonpayable",
      "type": "function"
    },
    {
      "constant": true,
      "inputs": [],
      "name": "owner",
      "outputs": [
        {
          "name": "",
          "type": "address"
        }
      ],
      "payable": false,
      "stateMutability": "view",
      "type": "function"
    },
    {
      "constant": false,
      "inputs": [
        {
          "name": "_spender",
          "type": "address"
        },
        {
          "name": "_addedValue",
          "type": "uint256"
        },
        {
          "name": "_data",
          "type": "bytes"
        }
      ],
      "name": "increaseApprovalAndCall",
      "outputs": [
        {
          "name": "",
          "type": "bool"
        }
      ],
      "payable": true,
      "stateMutability": "payable",
      "type": "function"
    },
    {
      "constant": true,
      "inputs": [],
      "name": "ROLE_MINTER",
      "outputs": [
        {
          "name": "",
          "type": "string"
        }
      ],
      "payable": false,
      "stateMutability": "view",
      "type": "function"
    },
    {
      "constant": true,
      "inputs": [],
      "name": "symbol",
      "outputs": [
        {
          "name": "",
          "type": "string"
        }
      ],
      "payable": false,
      "stateMutability": "view",
      "type": "function"
    },
    {
      "constant": false,
      "inputs": [
        {
          "name": "minter",
          "type": "address"
        }
      ],
      "name": "addMinter",
      "outputs": [],
      "payable": false,
      "stateMutability": "nonpayable",
      "type": "function"
    },
    {
      "constant": false,
      "inputs": [
        {
          "name": "_to",
          "type": "address"
        },
        {
          "name": "_value",
          "type": "uint256"
        }
      ],
      "name": "transfer",
      "outputs": [
        {
          "name": "",
          "type": "bool"
        }
      ],
      "payable": false,
      "stateMutability": "nonpayable",
      "type": "function"
    },
    {
      "constant": true,
      "inputs": [],
      "name": "builtOn",
      "outputs": [
        {
          "name": "",
          "type": "string"
        }
      ],
      "payable": false,
      "stateMutability": "view",
      "type": "function"
    },
    {
      "constant": false,
      "inputs": [
        {
          "name": "_from",
          "type": "address"
        },
        {
          "name": "_to",
          "type": "address"
        },
        {
          "name": "_value",
          "type": "uint256"
        },
        {
          "name": "_data",
          "type": "bytes"
        }
      ],
      "name": "transferFromAndCall",
      "outputs": [
        {
          "name": "",
          "type": "bool"
        }
      ],
      "payable": true,
      "stateMutability": "payable",
      "type": "function"
    },
    {
      "constant": false,
      "inputs": [
        {
          "name": "_spender",
          "type": "address"
        },
        {
          "name": "_value",
          "type": "uint256"
        },
        {
          "name": "_data",
          "type": "bytes"
        }
      ],
      "name": "approveAndCall",
      "outputs": [
        {
          "name": "",
          "type": "bool"
        }
      ],
      "payable": true,
      "stateMutability": "payable",
      "type": "function"
    },
    {
      "constant": false,
      "inputs": [
        {
          "name": "_spender",
          "type": "address"
        },
        {
          "name": "_subtractedValue",
          "type": "uint256"
        },
        {
          "name": "_data",
          "type": "bytes"
        }
      ],
      "name": "decreaseApprovalAndCall",
      "outputs": [
        {
          "name": "",
          "type": "bool"
        }
      ],
      "payable": true,
      "stateMutability": "payable",
      "type": "function"
    },
    {
      "constant": false,
      "inputs": [
        {
          "name": "_spender",
          "type": "address"
        },
        {
          "name": "_addedValue",
          "type": "uint256"
        }
      ],
      "name": "increaseApproval",
      "outputs": [
        {
          "name": "",
          "type": "bool"
        }
      ],
      "payable": false,
      "stateMutability": "nonpayable",
      "type": "function"
    },
    {
      "constant": true,
      "inputs": [
        {
          "name": "_owner",
          "type": "address"
        },
        {
          "name": "_spender",
          "type": "address"
        }
      ],
      "name": "allowance",
      "outputs": [
        {
          "name": "",
          "type": "uint256"
        }
      ],
      "payable": false,
      "stateMutability": "view",
      "type": "function"
    },
    {
      "constant": false,
      "inputs": [
        {
          "name": "_newOwner",
          "type": "address"
        }
      ],
      "name": "transferOwnership",
      "outputs": [],
      "payable": false,
      "stateMutability": "nonpayable",
      "type": "function"
    },
    {
      "inputs": [
        {
          "name": "_name",
          "type": "string"
        },
        {
          "name": "_symbol",
          "type": "string"
        },
        {
          "name": "_decimals",
          "type": "uint8"
        },
        {
          "name": "_initialAmount",
          "type": "uint256"
        }
      ],
      "payable": false,
      "stateMutability": "nonpayable",
      "type": "constructor"
    },
    {
      "anonymous": false,
      "inputs": [
        {
          "indexed": true,
          "name": "burner",
          "type": "address"
        },
        {
          "indexed": false,
          "name": "value",
          "type": "uint256"
        }
      ],
      "name": "Burn",
      "type": "event"
    },
    {
      "anonymous": false,
      "inputs": [
        {
          "indexed": false,
          "name": "addr",
          "type": "address"
        },
        {
          "indexed": false,
          "name": "roleName",
          "type": "string"
        }
      ],
      "name": "RoleAdded",
      "type": "event"
    },
    {
      "anonymous": false,
      "inputs": [
        {
          "indexed": false,
          "name": "addr",
          "type": "address"
        },
        {
          "indexed": false,
          "name": "roleName",
          "type": "string"
        }
      ],
      "name": "RoleRemoved",
      "type": "event"
    },
    {
      "anonymous": false,
      "inputs": [
        {
          "indexed": true,
          "name": "to",
          "type": "address"
        },
        {
          "indexed": false,
          "name": "amount",
          "type": "uint256"
        }
      ],
      "name": "Mint",
      "type": "event"
    },
    {
      "anonymous": false,
      "inputs": [],
      "name": "MintFinished",
      "type": "event"
    },
    {
      "anonymous": false,
      "inputs": [
        {
          "indexed": true,
          "name": "previousOwner",
          "type": "address"
        }
      ],
      "name": "OwnershipRenounced",
      "type": "event"
    },
    {
      "anonymous": false,
      "inputs": [
        {
          "indexed": true,
          "name": "previousOwner",
          "type": "address"
        },
        {
          "indexed": true,
          "name": "newOwner",
          "type": "address"
        }
      ],
      "name": "OwnershipTransferred",
      "type": "event"
    },
    {
      "anonymous": false,
      "inputs": [
        {
          "indexed": true,
          "name": "owner",
          "type": "address"
        },
        {
          "indexed": true,
          "name": "spender",
          "type": "address"
        },
        {
          "indexed": false,
          "name": "value",
          "type": "uint256"
        }
      ],
      "name": "Approval",
      "type": "event"
    },
    {
      "anonymous": false,
      "inputs": [
        {
          "indexed": true,
          "name": "from",
          "type": "address"
        },
        {
          "indexed": true,
          "name": "to",
          "type": "address"
        },
        {
          "indexed": false,
          "name": "value",
          "type": "uint256"
        }
      ],
      "name": "Transfer",
      "type": "event"
    },
    {
      "constant": false,
      "inputs": [
        {
          "name": "_tokenAddress",
          "type": "address"
        },
        {
          "name": "_tokens",
          "type": "uint256"
        }
      ],
      "name": "transferAnyERC20Token",
      "outputs": [
        {
          "name": "success",
          "type": "bool"
        }
      ],
      "payable": false,
      "stateMutability": "nonpayable",
      "type": "function"
    }
  ],
  "bytecode": "0x6006805460a060020a60ff021916905560e0604052602f60808190527f68747470733a2f2f766974746f6d696e61636f72692e6769746875622e696f2f60a09081527f65726332302d67656e657261746f72000000000000000000000000000000000060c05262000074916008919062000345565b503480156200008257600080fd5b5060405162001c6138038062001c618339810160409081528151602080840151928401516060850151928501805190959490940193909291859185918591620000d2916000919086019062000345565b508151620000e890600190602085019062000345565b506002805460ff90921660ff19909216919091179055505060068054600160a060020a031916331790556000811115620001555760025460068054600160a060020a0390811660009081526003602052604080822060ff909516600a0a8602909455915416815220546004555b6006546200017590600160a060020a03166401000000006200017f810204565b50505050620003ea565b600654600160a060020a031633146200019757600080fd5b620001e7816040805190810160405280600681526020017f6d696e7465720000000000000000000000000000000000000000000000000000815250620001ea640100000000026401000000009004565b50565b62000266826007836040518082805190602001908083835b60208310620002235780518252601f19909201916020918201910162000202565b51815160209384036101000a6000190180199092169116179052920194855250604051938490030190922092915050640100000000620003208102620017d61704565b7fbfec83d64eaa953f2708271a023ab9ee82057f8f3578d548c1a4ba0b5b70048982826040518083600160a060020a0316600160a060020a0316815260200180602001828103825283818151815260200191508051906020019080838360005b83811015620002e0578181015183820152602001620002c6565b50505050905090810190601f1680156200030e5780820380516001836020036101000a031916815260200191505b50935050505060405180910390a15050565b600160a060020a0316600090815260209190915260409020805460ff19166001179055565b828054600181600116156101000203166002900490600052602060002090601f016020900481019282601f106200038857805160ff1916838001178555620003b8565b82800160010185558215620003b8579182015b82811115620003b85782518255916020019190600101906200039b565b50620003c6929150620003ca565b5090565b620003e791905b80821115620003c65760008155600101620003d1565b90565b61186780620003fa6000396000f30060806040526004361061017f5763ffffffff7c010000000000000000000000000000000000000000000000000000000060003504166305d2035b811461018457806306fdde03146101ad578063095ea7b3146102375780630988ca8c1461025b57806318160ddd146102c4578063217fe6c6146102eb57806323b872dd146103525780633092afd51461037c578063313ce5671461039d5780634000aea0146103c857806340c10f191461042457806342966c6814610448578063661884631461046057806370a0823114610484578063715018a6146104a55780637d64bcb4146104ba5780638da5cb5b146104cf57806390db623f1461050057806392afc33a1461055c57806395d89b4114610571578063983b2d5614610586578063a9059cbb146105a7578063b60b7084146105cb578063c1d34b89146105e0578063cae9ca5114610642578063cb3993be1461069e578063d73dd623146106fa578063dc39d06d1461071e578063dd62ed3e14610742578063f2fde38b14610769575b600080fd5b34801561019057600080fd5b5061019961078a565b604080519115158252519081900360200190f35b3480156101b957600080fd5b506101c26107ab565b6040805160208082528351818301528351919283929083019185019080838360005b838110156101fc5781810151838201526020016101e4565b50505050905090810190601f1680156102295780820380516001836020036101000a031916815260200191505b509250505060405180910390f35b34801561024357600080fd5b50610199600160a060020a0360043516602435610839565b34801561026757600080fd5b5060408051602060046024803582810135601f81018590048502860185019096528585526102c2958335600160a060020a031695369560449491939091019190819084018382808284375094975061089f9650505050505050565b005b3480156102d057600080fd5b506102d961090d565b60408051918252519081900360200190f35b3480156102f757600080fd5b5060408051602060046024803582810135601f8101859004850286018501909652858552610199958335600160a060020a03169536956044949193909101919081908401838280828437509497506109139650505050505050565b34801561035e57600080fd5b50610199600160a060020a0360043581169060243516604435610986565b34801561038857600080fd5b506102c2600160a060020a0360043516610aed565b3480156103a957600080fd5b506103b2610b34565b6040805160ff9092168252519081900360200190f35b604080516020600460443581810135601f8101849004840285018401909552848452610199948235600160a060020a0316946024803595369594606494920191908190840183828082843750949750610b3d9650505050505050565b34801561043057600080fd5b50610199600160a060020a0360043516602435610bed565b34801561045457600080fd5b506102c2600435610d0d565b34801561046c57600080fd5b50610199600160a060020a0360043516602435610d17565b34801561049057600080fd5b506102d9600160a060020a0360043516610e07565b3480156104b157600080fd5b506102c2610e22565b3480156104c657600080fd5b50610199610e90565b3480156104db57600080fd5b506104e4610f36565b60408051600160a060020a039092168252519081900360200190f35b604080516020600460443581810135601f8101849004840285018401909552848452610199948235600160a060020a0316946024803595369594606494920191908190840183828082843750949750610f459650505050505050565b34801561056857600080fd5b506101c2610f67565b34801561057d57600080fd5b506101c2610f8c565b34801561059257600080fd5b506102c2600160a060020a0360043516610fe6565b3480156105b357600080fd5b50610199600160a060020a036004351660243561102a565b3480156105d757600080fd5b506101c26110fb565b604080516020601f60643560048181013592830184900484028501840190955281845261019994600160a060020a0381358116956024803590921695604435953695608494019181908401838280828437509497506111569650505050505050565b604080516020600460443581810135601f8101849004840285018401909552848452610199948235600160a060020a03169460248035953695946064949201919081908401838280828437509497506112089650505050505050565b604080516020600460443581810135601f8101849004840285018401909552848452610199948235600160a060020a031694602480359536959460649492019190819084018382808284375094975061122a9650505050505050565b34801561070657600080fd5b50610199600160a060020a036004351660243561124c565b34801561072a57600080fd5b50610199600160a060020a03600435166024356112e5565b34801561074e57600080fd5b506102d9600160a060020a03600435811690602435166113a1565b34801561077557600080fd5b506102c2600160a060020a03600435166113cc565b60065474010000000000000000000000000000000000000000900460ff1681565b6000805460408051602060026001851615610100026000190190941693909304601f810184900484028201840190925281815292918301828280156108315780601f1061080657610100808354040283529160200191610831565b820191906000526020600020905b81548152906001019060200180831161081457829003601f168201915b505050505081565b336000818152600560209081526040808320600160a060020a038716808552908352818420869055815186815291519394909390927f8c5be1e5ebec7d5bd14f71427d1e84f3dd0314c0f7b2291e5b200ac8c7c3b925928290030190a350600192915050565b610909826007836040518082805190602001908083835b602083106108d55780518252601f1990920191602091820191016108b6565b51815160209384036101000a60001901801990921691161790529201948552506040519384900301909220929150506113ec565b5050565b60045490565b600061097f836007846040518082805190602001908083835b6020831061094b5780518252601f19909201916020918201910161092c565b51815160209384036101000a6000190180199092169116179052920194855250604051938490030190922092915050611401565b9392505050565b6000600160a060020a038316151561099d57600080fd5b600160a060020a0384166000908152600360205260409020548211156109c257600080fd5b600160a060020a03841660009081526005602090815260408083203384529091529020548211156109f257600080fd5b600160a060020a038416600090815260036020526040902054610a1b908363ffffffff61142016565b600160a060020a038086166000908152600360205260408082209390935590851681522054610a50908363ffffffff61143216565b600160a060020a038085166000908152600360209081526040808320949094559187168152600582528281203382529091522054610a94908363ffffffff61142016565b600160a060020a038086166000818152600560209081526040808320338452825291829020949094558051868152905192871693919260008051602061181c833981519152929181900390910190a35060019392505050565b600654600160a060020a03163314610b0457600080fd5b610b31816040805190810160405280600681526020016000805160206117fc833981519152815250611445565b50565b60025460ff1681565b6000600160a060020a038416301415610b5557600080fd5b610b5f848461102a565b5083600160a060020a0316348360405180828051906020019080838360005b83811015610b96578181015183820152602001610b7e565b50505050905090810190601f168015610bc35780820380516001836020036101000a031916815260200191505b5091505060006040518083038185875af1925050501515610be357600080fd5b5060019392505050565b6000610c1c336040805190810160405280600681526020016000805160206117fc83398151915281525061089f565b60065474010000000000000000000000000000000000000000900460ff1615610c4457600080fd5b600454610c57908363ffffffff61143216565b600455600160a060020a038316600090815260036020526040902054610c83908363ffffffff61143216565b600160a060020a038416600081815260036020908152604091829020939093558051858152905191927f0f6798a560793a54c3bcfe86a93cde1e73087d944c0ea20544137d412139688592918290030190a2604080518381529051600160a060020a0385169160009160008051602061181c8339815191529181900360200190a350600192915050565b610b313382611566565b336000908152600560209081526040808320600160a060020a038616845290915281205480831115610d6c57336000908152600560209081526040808320600160a060020a0388168452909152812055610da1565b610d7c818463ffffffff61142016565b336000908152600560209081526040808320600160a060020a03891684529091529020555b336000818152600560209081526040808320600160a060020a0389168085529083529281902054815190815290519293927f8c5be1e5ebec7d5bd14f71427d1e84f3dd0314c0f7b2291e5b200ac8c7c3b925929181900390910190a35060019392505050565b600160a060020a031660009081526003602052604090205490565b600654600160a060020a03163314610e3957600080fd5b600654604051600160a060020a03909116907ff8df31144d9c2f0f6b59d69b8b98abd5459d07f2742c4df920b25aae33c6482090600090a26006805473ffffffffffffffffffffffffffffffffffffffff19169055565b600654600090600160a060020a03163314610eaa57600080fd5b60065474010000000000000000000000000000000000000000900460ff1615610ed257600080fd5b6006805474ff00000000000000000000000000000000000000001916740100000000000000000000000000000000000000001790556040517fae5184fba832cb2b1f702aca6117b8d265eaf03ad33eb133f19dde0f5920fa0890600090a150600190565b600654600160a060020a031681565b6000600160a060020a038416301415610f5d57600080fd5b610b5f848461124c565b60408051808201909152600681526000805160206117fc833981519152602082015281565b60018054604080516020600284861615610100026000190190941693909304601f810184900484028201840190925281815292918301828280156108315780601f1061080657610100808354040283529160200191610831565b600654600160a060020a03163314610ffd57600080fd5b610b31816040805190810160405280600681526020016000805160206117fc833981519152815250611655565b6000600160a060020a038316151561104157600080fd5b3360009081526003602052604090205482111561105d57600080fd5b3360009081526003602052604090205461107d908363ffffffff61142016565b3360009081526003602052604080822092909255600160a060020a038516815220546110af908363ffffffff61143216565b600160a060020a03841660008181526003602090815260409182902093909355805185815290519192339260008051602061181c8339815191529281900390910190a350600192915050565b6008805460408051602060026001851615610100026000190190941693909304601f810184900484028201840190925281815292918301828280156108315780601f1061080657610100808354040283529160200191610831565b6000600160a060020a03841630141561116e57600080fd5b611179858585610986565b5083600160a060020a0316348360405180828051906020019080838360005b838110156111b0578181015183820152602001611198565b50505050905090810190601f1680156111dd5780820380516001836020036101000a031916815260200191505b5091505060006040518083038185875af19250505015156111fd57600080fd5b506001949350505050565b6000600160a060020a03841630141561122057600080fd5b610b5f8484610839565b6000600160a060020a03841630141561124257600080fd5b610b5f8484610d17565b336000908152600560209081526040808320600160a060020a0386168452909152812054611280908363ffffffff61143216565b336000818152600560209081526040808320600160a060020a0389168085529083529281902085905580519485525191937f8c5be1e5ebec7d5bd14f71427d1e84f3dd0314c0f7b2291e5b200ac8c7c3b925929081900390910190a350600192915050565b600654600090600160a060020a031633146112ff57600080fd5b600654604080517fa9059cbb000000000000000000000000000000000000000000000000000000008152600160a060020a0392831660048201526024810185905290519185169163a9059cbb916044808201926020929091908290030181600087803b15801561136e57600080fd5b505af1158015611382573d6000803e3d6000fd5b505050506040513d602081101561139857600080fd5b50519392505050565b600160a060020a03918216600090815260056020908152604080832093909416825291909152205490565b600654600160a060020a031633146113e357600080fd5b610b3181611736565b6113f68282611401565b151561090957600080fd5b600160a060020a03166000908152602091909152604090205460ff1690565b60008282111561142c57fe5b50900390565b8181018281101561143f57fe5b92915050565b6114af826007836040518082805190602001908083835b6020831061147b5780518252601f19909201916020918201910161145c565b51815160209384036101000a60001901801990921691161790529201948552506040519384900301909220929150506117b4565b7fd211483f91fc6eff862467f8de606587a30c8fc9981056f051b897a418df803a82826040518083600160a060020a0316600160a060020a0316815260200180602001828103825283818151815260200191508051906020019080838360005b8381101561152757818101518382015260200161150f565b50505050905090810190601f1680156115545780820380516001836020036101000a031916815260200191505b50935050505060405180910390a15050565b600160a060020a03821660009081526003602052604090205481111561158b57600080fd5b600160a060020a0382166000908152600360205260409020546115b4908263ffffffff61142016565b600160a060020a0383166000908152600360205260409020556004546115e0908263ffffffff61142016565b600455604080518281529051600160a060020a038416917fcc16f5dbb4873280815c1ee09dbd06736cffcc184412cf7a71a0fdb75d397ca5919081900360200190a2604080518281529051600091600160a060020a0385169160008051602061181c8339815191529181900360200190a35050565b6116bf826007836040518082805190602001908083835b6020831061168b5780518252601f19909201916020918201910161166c565b51815160209384036101000a60001901801990921691161790529201948552506040519384900301909220929150506117d6565b7fbfec83d64eaa953f2708271a023ab9ee82057f8f3578d548c1a4ba0b5b70048982826040518083600160a060020a0316600160a060020a0316815260200180602001828103825283818151815260200191508051906020019080838360008381101561152757818101518382015260200161150f565b600160a060020a038116151561174b57600080fd5b600654604051600160a060020a038084169216907f8be0079c531659141344cd1fd0a4f28419497f9722a3daafe3b4186f6b6457e090600090a36006805473ffffffffffffffffffffffffffffffffffffffff1916600160a060020a0392909216919091179055565b600160a060020a0316600090815260209190915260409020805460ff19169055565b600160a060020a0316600090815260209190915260409020805460ff1916600117905556006d696e7465720000000000000000000000000000000000000000000000000000ddf252ad1be2c89b69c2b068fc378daa952ba7f163c4a11628f55a4df523b3efa165627a7a7230582016f07ad4c2cd34294883ff1ace6e290e9d281df21980ddf05332dc9e0601983d0029",
  "source": "pragma solidity ^0.4.24;\n\nimport \"openzeppelin-solidity/contracts/token/ERC20/DetailedERC20.sol\";\nimport \"openzeppelin-solidity/contracts/token/ERC827/ERC827Token.sol\";\nimport \"openzeppelin-solidity/contracts/token/ERC20/RBACMintableToken.sol\";\nimport \"openzeppelin-solidity/contracts/token/ERC20/BurnableToken.sol\";\n\n\ncontract ERC20Token is DetailedERC20, ERC827Token, RBACMintableToken, BurnableToken {\n\n  string public builtOn = \"https://vittominacori.github.io/erc20-generator\";\n\n  constructor(\n    string _name,\n    string _symbol,\n    uint8 _decimals,\n    uint256 _initialAmount\n  )\n  DetailedERC20 (_name, _symbol, _decimals)\n  public\n  {\n    if (_initialAmount > 0) {\n      balances[owner] = _initialAmount * (10 ** uint256(decimals));\n      totalSupply_ = balances[owner];\n    }\n\n    addMinter(owner);\n  }\n\n  function transferAnyERC20Token(address _tokenAddress, uint256 _tokens) onlyOwner public returns (bool success) {\n    return ERC20Basic(_tokenAddress).transfer(owner, _tokens);\n  }\n}\n",
  "sourcePath": "/Users/vittominacori/Projects/vittominacori.github.io/erc20-generator/smart-contracts/contracts/ERC20Token.sol",
  "compiler": {
    "name": "solc",
    "version": "0.4.24+commit.e67f0147.Emscripten.clang"
  },
  "schemaVersion": "2.0.0",
  "updatedAt": "2018-06-14T12:18:07.403Z"
}